{
  "_format": "hh-sol-artifact-1",
  "contractName": "NFT1",
  "sourceName": "contracts/nft.sol",
  "abi": [
    {
      "inputs": [
        {
          "internalType": "string",
          "name": "_name",
          "type": "string"
        },
        {
          "internalType": "string",
          "name": "_symbol",
          "type": "string"
        },
        {
          "internalType": "string",
          "name": "_baseUri",
          "type": "string"
        }
      ],
      "stateMutability": "nonpayable",
      "type": "constructor"
    },
    {
      "anonymous": false,
      "inputs": [
        {
          "indexed": true,
          "internalType": "address",
          "name": "owner",
          "type": "address"
        },
        {
          "indexed": true,
          "internalType": "address",
          "name": "approved",
          "type": "address"
        },
        {
          "indexed": true,
          "internalType": "uint256",
          "name": "tokenId",
          "type": "uint256"
        }
      ],
      "name": "Approval",
      "type": "event"
    },
    {
      "anonymous": false,
      "inputs": [
        {
          "indexed": true,
          "internalType": "address",
          "name": "owner",
          "type": "address"
        },
        {
          "indexed": true,
          "internalType": "address",
          "name": "operator",
          "type": "address"
        },
        {
          "indexed": false,
          "internalType": "bool",
          "name": "approved",
          "type": "bool"
        }
      ],
      "name": "ApprovalForAll",
      "type": "event"
    },
    {
      "anonymous": false,
      "inputs": [
        {
          "indexed": false,
          "internalType": "string",
          "name": "baseURI",
          "type": "string"
        }
      ],
      "name": "BaseURIChange",
      "type": "event"
    },
    {
      "anonymous": false,
      "inputs": [
        {
          "indexed": true,
          "internalType": "address",
          "name": "owner",
          "type": "address"
        },
        {
          "indexed": true,
          "internalType": "uint256",
          "name": "tokenId",
          "type": "uint256"
        }
      ],
      "name": "ItemCreated",
      "type": "event"
    },
    {
      "anonymous": false,
      "inputs": [
        {
          "indexed": true,
          "internalType": "address",
          "name": "previousOwner",
          "type": "address"
        },
        {
          "indexed": true,
          "internalType": "address",
          "name": "newOwner",
          "type": "address"
        }
      ],
      "name": "OwnershipTransferred",
      "type": "event"
    },
    {
      "anonymous": false,
      "inputs": [
        {
          "indexed": true,
          "internalType": "address",
          "name": "from",
          "type": "address"
        },
        {
          "indexed": true,
          "internalType": "address",
          "name": "to",
          "type": "address"
        },
        {
          "indexed": true,
          "internalType": "uint256",
          "name": "tokenId",
          "type": "uint256"
        }
      ],
      "name": "Transfer",
      "type": "event"
    },
    {
      "inputs": [],
      "name": "_INTERFACE_ID_ERC721_VERIFY_FINGERPRINT",
      "outputs": [
        {
          "internalType": "bytes4",
          "name": "",
          "type": "bytes4"
        }
      ],
      "stateMutability": "view",
      "type": "function"
    },
    {
      "inputs": [
        {
          "internalType": "address",
          "name": "to",
          "type": "address"
        },
        {
          "internalType": "uint256",
          "name": "tokenId",
          "type": "uint256"
        }
      ],
      "name": "approve",
      "outputs": [],
      "stateMutability": "nonpayable",
      "type": "function"
    },
    {
      "inputs": [
        {
          "internalType": "address",
          "name": "owner",
          "type": "address"
        }
      ],
      "name": "balanceOf",
      "outputs": [
        {
          "internalType": "uint256",
          "name": "",
          "type": "uint256"
        }
      ],
      "stateMutability": "view",
      "type": "function"
    },
    {
      "inputs": [],
      "name": "baseURI",
      "outputs": [
        {
          "internalType": "string",
          "name": "",
          "type": "string"
        }
      ],
      "stateMutability": "view",
      "type": "function"
    },
    {
      "inputs": [
        {
          "internalType": "string",
          "name": "_metaDataURI",
          "type": "string"
        },
        {
          "internalType": "string",
          "name": "_metaData",
          "type": "string"
        },
        {
          "internalType": "uint256",
          "name": "_royaltyAmount",
          "type": "uint256"
        }
      ],
      "name": "create",
      "outputs": [],
      "stateMutability": "nonpayable",
      "type": "function"
    },
    {
      "inputs": [
        {
          "internalType": "string",
          "name": "_metaDataURI",
          "type": "string"
        },
        {
          "internalType": "string",
          "name": "_metaData",
          "type": "string"
        },
        {
          "internalType": "uint256",
          "name": "_royaltyAmount",
          "type": "uint256"
        },
        {
          "internalType": "address",
          "name": "_actualCreator",
          "type": "address"
        },
        {
          "internalType": "uint256",
          "name": "_actualTokenId",
          "type": "uint256"
        }
      ],
      "name": "createAdmin",
      "outputs": [],
      "stateMutability": "nonpayable",
      "type": "function"
    },
    {
      "inputs": [
        {
          "internalType": "uint256",
          "name": "",
          "type": "uint256"
        }
      ],
      "name": "extraInfoMap",
      "outputs": [
        {
          "internalType": "string",
          "name": "metaDataURI",
          "type": "string"
        },
        {
          "internalType": "bytes32",
          "name": "metaDataHash",
          "type": "bytes32"
        },
        {
          "internalType": "address",
          "name": "tokenMinter",
          "type": "address"
        },
        {
          "internalType": "uint256",
          "name": "royaltyAmount",
          "type": "uint256"
        }
      ],
      "stateMutability": "view",
      "type": "function"
    },
    {
      "inputs": [
        {
          "internalType": "uint256",
          "name": "tokenId",
          "type": "uint256"
        }
      ],
      "name": "getApproved",
      "outputs": [
        {
          "internalType": "address",
          "name": "",
          "type": "address"
        }
      ],
      "stateMutability": "view",
      "type": "function"
    },
    {
      "inputs": [
        {
          "internalType": "string",
          "name": "_metaData",
          "type": "string"
        }
      ],
      "name": "getMetaDataHash",
      "outputs": [
        {
          "internalType": "bytes32",
          "name": "",
          "type": "bytes32"
        }
      ],
      "stateMutability": "pure",
      "type": "function"
    },
    {
      "inputs": [
        {
          "internalType": "uint256",
          "name": "_tokenId",
          "type": "uint256"
        }
      ],
      "name": "getRoyaltyAmount",
      "outputs": [
        {
          "internalType": "uint256",
          "name": "",
          "type": "uint256"
        }
      ],
      "stateMutability": "view",
      "type": "function"
    },
    {
      "inputs": [
        {
          "internalType": "uint256",
          "name": "_tokenId",
          "type": "uint256"
        }
      ],
      "name": "getTokenMinter",
      "outputs": [
        {
          "internalType": "address",
          "name": "",
          "type": "address"
        }
      ],
      "stateMutability": "view",
      "type": "function"
    },
    {
      "inputs": [
        {
          "internalType": "address",
          "name": "owner",
          "type": "address"
        },
        {
          "internalType": "address",
          "name": "operator",
          "type": "address"
        }
      ],
      "name": "isApprovedForAll",
      "outputs": [
        {
          "internalType": "bool",
          "name": "",
          "type": "bool"
        }
      ],
      "stateMutability": "view",
      "type": "function"
    },
    {
      "inputs": [],
      "name": "maxRoyalty",
      "outputs": [
        {
          "internalType": "uint256",
          "name": "",
          "type": "uint256"
        }
      ],
      "stateMutability": "view",
      "type": "function"
    },
    {
      "inputs": [],
      "name": "name",
      "outputs": [
        {
          "internalType": "string",
          "name": "",
          "type": "string"
        }
      ],
      "stateMutability": "view",
      "type": "function"
    },
    {
      "inputs": [],
      "name": "owner",
      "outputs": [
        {
          "internalType": "address",
          "name": "",
          "type": "address"
        }
      ],
      "stateMutability": "view",
      "type": "function"
    },
    {
      "inputs": [
        {
          "internalType": "uint256",
          "name": "tokenId",
          "type": "uint256"
        }
      ],
      "name": "ownerOf",
      "outputs": [
        {
          "internalType": "address",
          "name": "",
          "type": "address"
        }
      ],
      "stateMutability": "view",
      "type": "function"
    },
    {
      "inputs": [],
      "name": "renounceOwnership",
      "outputs": [],
      "stateMutability": "nonpayable",
      "type": "function"
    },
    {
      "inputs": [
        {
          "internalType": "address",
          "name": "from",
          "type": "address"
        },
        {
          "internalType": "address",
          "name": "to",
          "type": "address"
        },
        {
          "internalType": "uint256",
          "name": "tokenId",
          "type": "uint256"
        }
      ],
      "name": "safeTransferFrom",
      "outputs": [],
      "stateMutability": "nonpayable",
      "type": "function"
    },
    {
      "inputs": [
        {
          "internalType": "address",
          "name": "from",
          "type": "address"
        },
        {
          "internalType": "address",
          "name": "to",
          "type": "address"
        },
        {
          "internalType": "uint256",
          "name": "tokenId",
          "type": "uint256"
        },
        {
          "internalType": "bytes",
          "name": "_data",
          "type": "bytes"
        }
      ],
      "name": "safeTransferFrom",
      "outputs": [],
      "stateMutability": "nonpayable",
      "type": "function"
    },
    {
      "inputs": [
        {
          "internalType": "address",
          "name": "operator",
          "type": "address"
        },
        {
          "internalType": "bool",
          "name": "approved",
          "type": "bool"
        }
      ],
      "name": "setApprovalForAll",
      "outputs": [],
      "stateMutability": "nonpayable",
      "type": "function"
    },
    {
      "inputs": [
        {
          "internalType": "string",
          "name": "_baseUri",
          "type": "string"
        }
      ],
      "name": "setBaseURI",
      "outputs": [],
      "stateMutability": "nonpayable",
      "type": "function"
    },
    {
      "inputs": [
        {
          "internalType": "bytes4",
          "name": "interfaceId",
          "type": "bytes4"
        }
      ],
      "name": "supportsInterface",
      "outputs": [
        {
          "internalType": "bool",
          "name": "",
          "type": "bool"
        }
      ],
      "stateMutability": "view",
      "type": "function"
    },
    {
      "inputs": [],
      "name": "symbol",
      "outputs": [
        {
          "internalType": "string",
          "name": "",
          "type": "string"
        }
      ],
      "stateMutability": "view",
      "type": "function"
    },
    {
      "inputs": [
        {
          "internalType": "uint256",
          "name": "index",
          "type": "uint256"
        }
      ],
      "name": "tokenByIndex",
      "outputs": [
        {
          "internalType": "uint256",
          "name": "",
          "type": "uint256"
        }
      ],
      "stateMutability": "view",
      "type": "function"
    },
    {
      "inputs": [
        {
          "internalType": "address",
          "name": "owner",
          "type": "address"
        },
        {
          "internalType": "uint256",
          "name": "index",
          "type": "uint256"
        }
      ],
      "name": "tokenOfOwnerByIndex",
      "outputs": [
        {
          "internalType": "uint256",
          "name": "",
          "type": "uint256"
        }
      ],
      "stateMutability": "view",
      "type": "function"
    },
    {
      "inputs": [
        {
          "internalType": "uint256",
          "name": "tokenId",
          "type": "uint256"
        }
      ],
      "name": "tokenURI",
      "outputs": [
        {
          "internalType": "string",
          "name": "",
          "type": "string"
        }
      ],
      "stateMutability": "view",
      "type": "function"
    },
    {
      "inputs": [],
      "name": "totalSupply",
      "outputs": [
        {
          "internalType": "uint256",
          "name": "",
          "type": "uint256"
        }
      ],
      "stateMutability": "view",
      "type": "function"
    },
    {
      "inputs": [
        {
          "internalType": "address",
          "name": "from",
          "type": "address"
        },
        {
          "internalType": "address",
          "name": "to",
          "type": "address"
        },
        {
          "internalType": "uint256",
          "name": "tokenId",
          "type": "uint256"
        }
      ],
      "name": "transferFrom",
      "outputs": [],
      "stateMutability": "nonpayable",
      "type": "function"
    },
    {
      "inputs": [
        {
          "internalType": "address",
          "name": "newOwner",
          "type": "address"
        }
      ],
      "name": "transferOwnership",
      "outputs": [],
      "stateMutability": "nonpayable",
      "type": "function"
    },
    {
      "inputs": [
        {
          "internalType": "uint256",
          "name": "_maxRoyalty",
          "type": "uint256"
        }
      ],
      "name": "updateMaxRoyalty",
      "outputs": [],
      "stateMutability": "nonpayable",
      "type": "function"
    },
    {
      "inputs": [
        {
          "internalType": "uint256",
          "name": "_tokenId",
          "type": "uint256"
        },
        {
          "internalType": "bytes32",
          "name": "_fingerprint",
          "type": "bytes32"
        }
      ],
      "name": "verifyFingerprint",
      "outputs": [
        {
          "internalType": "bool",
          "name": "",
          "type": "bool"
        }
      ],
      "stateMutability": "view",
      "type": "function"
    }
  ],
  "bytecode": "0x60806040526103e8600b553480156200001757600080fd5b506040516200303238038062003032833981810160405260608110156200003d57600080fd5b81019080805160405193929190846401000000008211156200005e57600080fd5b9083019060208201858111156200007457600080fd5b82516401000000008111828201881017156200008f57600080fd5b82525081516020918201929091019080838360005b83811015620000be578181015183820152602001620000a4565b50505050905090810190601f168015620000ec5780820380516001836020036101000a031916815260200191505b50604052602001805160405193929190846401000000008211156200011057600080fd5b9083019060208201858111156200012657600080fd5b82516401000000008111828201881017156200014157600080fd5b82525081516020918201929091019080838360005b838110156200017057818101518382015260200162000156565b50505050905090810190601f1680156200019e5780820380516001836020036101000a031916815260200191505b5060405260200180516040519392919084640100000000821115620001c257600080fd5b908301906020820185811115620001d857600080fd5b8251640100000000811182820188101715620001f357600080fd5b82525081516020918201929091019080838360005b838110156200022257818101518382015260200162000208565b50505050905090810190601f168015620002505780820380516001836020036101000a031916815260200191505b50604052505050828260006200026b6200036b60201b60201c565b600080546001600160a01b0319166001600160a01b0383169081178255604051929350917f8be0079c531659141344cd1fd0a4f28419497f9722a3daafe3b4186f6b6457e0908290a350620002c76301ffc9a760e01b6200036f565b8151620002dc90600790602085019062000527565b508051620002f290600890602084019062000527565b50620003056380ac58cd60e01b6200036f565b62000317635b5e139f60e01b6200036f565b6200032963780e9d6360e01b6200036f565b5062000337905081620003f7565b620003627f8cb5b56b0b357b005adf5059f554ed4289f3f4f430f156b4eee18609bb91c3686200036f565b505050620005c3565b3390565b6001600160e01b03198082161415620003cf576040805162461bcd60e51b815260206004820152601c60248201527f4552433136353a20696e76616c696420696e7465726661636520696400000000604482015290519081900360640190fd5b6001600160e01b0319166000908152600160208190526040909120805460ff19169091179055565b620004016200036b565b6000546001600160a01b0390811691161462000464576040805162461bcd60e51b815260206004820181905260248201527f4f776e61626c653a2063616c6c6572206973206e6f7420746865206f776e6572604482015290519081900360640190fd5b6200046f816200050e565b7fa1e4fe82e2a65657cfd59fd66da1338be7d996f649643c161b7c24b1de80fca9816040518080602001828103825283818151815260200191508051906020019080838360005b83811015620004d0578181015183820152602001620004b6565b50505050905090810190601f168015620004fe5780820380516001836020036101000a031916815260200191505b509250505060405180910390a150565b80516200052390600a90602084019062000527565b5050565b828054600181600116156101000203166002900490600052602060002090601f016020900481019282601f106200056a57805160ff19168380011785556200059a565b828001600101855582156200059a579182015b828111156200059a5782518255916020019190600101906200057d565b50620005a8929150620005ac565b5090565b5b80821115620005a85760008155600101620005ad565b612a5f80620005d36000396000f3fe608060405234801561001057600080fd5b50600436106101e55760003560e01c806355f804b31161010f57806395d89b41116100a2578063c87b56dd11610071578063c87b56dd14610943578063d0e4f39614610960578063e985e9c51461097d578063f2fde38b146109ab576101e5565b806395d89b4114610776578063a22cb4651461077e578063b6e19157146107ac578063b88d4fde1461087f576101e5565b806370a08231116100de57806370a082311461071d578063715018a6146107435780638cb5b56b1461074b5780638da5cb5b1461076e576101e5565b806355f804b31461064c5780636352211e146106f0578063674a12c71461070d5780636c0360eb14610715576101e5565b8063259bfd03116101875780634f64f049116101565780634f64f049146104bb5780634f6ccce71461055f57806351c3c9f81461057c57806353ed876514610599576101e5565b8063259bfd031461037e5780632f745c591461039b5780633ca6d100146103c757806342842e0e14610485576101e5565b8063095ea7b3116101c3578063095ea7b3146102db57806316606e4b1461030957806318160ddd1461032e57806323b872dd14610348576101e5565b806301ffc9a7146101ea57806306fdde0314610225578063081812fc146102a2575b600080fd5b6102116004803603602081101561020057600080fd5b50356001600160e01b0319166109d1565b604080519115158252519081900360200190f35b61022d6109f4565b6040805160208082528351818301528351919283929083019185019080838360005b8381101561026757818101518382015260200161024f565b50505050905090810190601f1680156102945780820380516001836020036101000a031916815260200191505b509250505060405180910390f35b6102bf600480360360208110156102b857600080fd5b5035610a8a565b604080516001600160a01b039092168252519081900360200190f35b610307600480360360408110156102f157600080fd5b506001600160a01b038135169060200135610aec565b005b610311610bc7565b604080516001600160e01b03199092168252519081900360200190f35b610336610beb565b60408051918252519081900360200190f35b6103076004803603606081101561035e57600080fd5b506001600160a01b03813581169160208101359091169060400135610bfc565b6103366004803603602081101561039457600080fd5b5035610c53565b610336600480360360408110156103b157600080fd5b506001600160a01b038135169060200135610c68565b610307600480360360608110156103dd57600080fd5b810190602081018135600160201b8111156103f757600080fd5b82018360208201111561040957600080fd5b803590602001918460018302840111600160201b8311171561042a57600080fd5b919390929091602081019035600160201b81111561044757600080fd5b82018360208201111561045957600080fd5b803590602001918460018302840111600160201b8311171561047a57600080fd5b919350915035610c93565b6103076004803603606081101561049b57600080fd5b506001600160a01b03813581169160208101359091169060400135610d10565b610336600480360360208110156104d157600080fd5b810190602081018135600160201b8111156104eb57600080fd5b8201836020820111156104fd57600080fd5b803590602001918460018302840111600160201b8311171561051e57600080fd5b91908080601f016020809104026020016040519081016040528093929190818152602001838380828437600092019190915250929550610d2b945050505050565b6103366004803603602081101561057557600080fd5b5035610df5565b6103076004803603602081101561059257600080fd5b5035610e0b565b6105b6600480360360208110156105af57600080fd5b5035610e68565b6040518080602001858152602001846001600160a01b03168152602001838152602001828103825286818151815260200191508051906020019080838360005b8381101561060e5781810151838201526020016105f6565b50505050905090810190601f16801561063b5780820380516001836020036101000a031916815260200191505b509550505050505060405180910390f35b6103076004803603602081101561066257600080fd5b810190602081018135600160201b81111561067c57600080fd5b82018360208201111561068e57600080fd5b803590602001918460018302840111600160201b831117156106af57600080fd5b91908080601f016020809104026020016040519081016040528093929190818152602001838380828437600092019190915250929550610f27945050505050565b6102bf6004803603602081101561070657600080fd5b5035611024565b61033661104c565b61022d611052565b6103366004803603602081101561073357600080fd5b50356001600160a01b03166110b3565b61030761111b565b6102116004803603604081101561076157600080fd5b50803590602001356111bd565b6102bf6111d4565b61022d6111e3565b6103076004803603604081101561079457600080fd5b506001600160a01b0381351690602001351515611244565b610307600480360360a08110156107c257600080fd5b810190602081018135600160201b8111156107dc57600080fd5b8201836020820111156107ee57600080fd5b803590602001918460018302840111600160201b8311171561080f57600080fd5b919390929091602081019035600160201b81111561082c57600080fd5b82018360208201111561083e57600080fd5b803590602001918460018302840111600160201b8311171561085f57600080fd5b91935091508035906001600160a01b036020820135169060400135611349565b6103076004803603608081101561089557600080fd5b6001600160a01b03823581169260208101359091169160408201359190810190608081016060820135600160201b8111156108cf57600080fd5b8201836020820111156108e157600080fd5b803590602001918460018302840111600160201b8311171561090257600080fd5b91908080601f016020809104026020016040519081016040528093929190818152602001838380828437600092019190915250929550611423945050505050565b61022d6004803603602081101561095957600080fd5b5035611481565b6102bf6004803603602081101561097657600080fd5b5035611728565b6102116004803603604081101561099357600080fd5b506001600160a01b0381358116916020013516611746565b610307600480360360208110156109c157600080fd5b50356001600160a01b0316611774565b6001600160e01b0319811660009081526001602052604090205460ff165b919050565b60078054604080516020601f6002600019610100600188161502019095169490940493840181900481028201810190925282815260609390929091830182828015610a805780601f10610a5557610100808354040283529160200191610a80565b820191906000526020600020905b815481529060010190602001808311610a6357829003601f168201915b5050505050905090565b6000610a958261186c565b610ad05760405162461bcd60e51b815260040180806020018281038252602c815260200180612908602c913960400191505060405180910390fd5b506000908152600560205260409020546001600160a01b031690565b6000610af782611024565b9050806001600160a01b0316836001600160a01b03161415610b4a5760405162461bcd60e51b81526004018080602001828103825260218152602001806129d86021913960400191505060405180910390fd5b806001600160a01b0316610b5c611879565b6001600160a01b03161480610b7d5750610b7d81610b78611879565b611746565b610bb85760405162461bcd60e51b815260040180806020018281038252603881526020018061285b6038913960400191505060405180910390fd5b610bc2838361187d565b505050565b7f8cb5b56b0b357b005adf5059f554ed4289f3f4f430f156b4eee18609bb91c36881565b6000610bf760036118eb565b905090565b610c0d610c07611879565b826118f6565b610c485760405162461bcd60e51b81526004018080602001828103825260318152602001806129f96031913960400191505060405180910390fd5b610bc283838361199a565b6000908152600c602052604090206003015490565b6001600160a01b0382166000908152600260205260408120610c8a9083611ae6565b90505b92915050565b610d0885858080601f01602080910402602001604051908101604052809392919081815260200183838082843760009201919091525050604080516020601f89018190048102820181019092528781529250879150869081908401838280828437600092019190915250869250611af2915050565b505050505050565b610bc283838360405180602001604052806000815250611423565b600080826040516020018082805190602001908083835b60208310610d615780518252601f199092019160209182019101610d42565b6001836020036101000a0380198251168184511680821785525050505050509050019150506040516020818303038152906040528051906020012090508060405160200180807f19457468657265756d205369676e6564204d6573736167653a0a333200000000815250601c0182815260200191505060405160208183030381529060405280519060200120915050919050565b600080610e03600384611be2565b509392505050565b610e13611879565b6000546001600160a01b03908116911614610e63576040805162461bcd60e51b81526020600482018190526024820152600080516020612960833981519152604482015290519081900360640190fd5b600b55565b600c6020908152600091825260409182902080548351601f60026000196101006001861615020190931692909204918201849004840281018401909452808452909291839190830182828015610eff5780601f10610ed457610100808354040283529160200191610eff565b820191906000526020600020905b815481529060010190602001808311610ee257829003601f168201915b5050505060018301546002840154600390940154929390926001600160a01b03909116915084565b610f2f611879565b6000546001600160a01b03908116911614610f7f576040805162461bcd60e51b81526020600482018190526024820152600080516020612960833981519152604482015290519081900360640190fd5b610f8881611bfe565b7fa1e4fe82e2a65657cfd59fd66da1338be7d996f649643c161b7c24b1de80fca9816040518080602001828103825283818151815260200191508051906020019080838360005b83811015610fe7578181015183820152602001610fcf565b50505050905090810190601f1680156110145780820380516001836020036101000a031916815260200191505b509250505060405180910390a150565b6000610c8d826040518060600160405280602981526020016128bd6029913960039190611c15565b600b5481565b600a8054604080516020601f6002600019610100600188161502019095169490940493840181900481028201810190925282815260609390929091830182828015610a805780601f10610a5557610100808354040283529160200191610a80565b60006001600160a01b0382166110fa5760405162461bcd60e51b815260040180806020018281038252602a815260200180612893602a913960400191505060405180910390fd5b6001600160a01b0382166000908152600260205260409020610c8d906118eb565b611123611879565b6000546001600160a01b03908116911614611173576040805162461bcd60e51b81526020600482018190526024820152600080516020612960833981519152604482015290519081900360640190fd5b600080546040516001600160a01b03909116907f8be0079c531659141344cd1fd0a4f28419497f9722a3daafe3b4186f6b6457e0908390a3600080546001600160a01b0319169055565b6000918252600c6020526040909120600101541490565b6000546001600160a01b031690565b60088054604080516020601f6002600019610100600188161502019095169490940493840181900481028201810190925282815260609390929091830182828015610a805780601f10610a5557610100808354040283529160200191610a80565b61124c611879565b6001600160a01b0316826001600160a01b031614156112b2576040805162461bcd60e51b815260206004820152601960248201527f4552433732313a20617070726f766520746f2063616c6c657200000000000000604482015290519081900360640190fd5b80600660006112bf611879565b6001600160a01b03908116825260208083019390935260409182016000908120918716808252919093529120805460ff191692151592909217909155611303611879565b6001600160a01b03167f17307eab39ab6107e8899845ad3d59bd9653f200f220920489ca2b5937696c318360405180821515815260200191505060405180910390a35050565b611351611879565b6000546001600160a01b039081169116146113a1576040805162461bcd60e51b81526020600482018190526024820152600080516020612960833981519152604482015290519081900360640190fd5b61141987878080601f01602080910402602001604051908101604052809392919081815260200183838082843760009201919091525050604080516020601f8b018190048102820181019092528981529250899150889081908401838280828437600092019190915250889250879150869050611c2c565b5050505050505050565b61143461142e611879565b836118f6565b61146f5760405162461bcd60e51b81526004018080602001828103825260318152602001806129f96031913960400191505060405180910390fd5b61147b84848484611d81565b50505050565b606061148c8261186c565b6114c75760405162461bcd60e51b815260040180806020018281038252602f8152602001806129a9602f913960400191505060405180910390fd5b60008281526009602090815260409182902080548351601f600260001961010060018616150201909316929092049182018490048402810184019094528084526060939283018282801561155c5780601f106115315761010080835404028352916020019161155c565b820191906000526020600020905b81548152906001019060200180831161153f57829003601f168201915b5050600a54939450505050600260001961010060018416150201909116046115855790506109ef565b80511561165657600a8160405160200180838054600181600116156101000203166002900480156115ed5780601f106115cb5761010080835404028352918201916115ed565b820191906000526020600020905b8154815290600101906020018083116115d9575b5050825160208401908083835b602083106116195780518252601f1990920191602091820191016115fa565b6001836020036101000a038019825116818451168082178552505050505050905001925050506040516020818303038152906040529150506109ef565b600a61166184611dd3565b60405160200180838054600181600116156101000203166002900480156116bf5780601f1061169d5761010080835404028352918201916116bf565b820191906000526020600020905b8154815290600101906020018083116116ab575b5050825160208401908083835b602083106116eb5780518252601f1990920191602091820191016116cc565b6001836020036101000a03801982511681845116808217855250505050505090500192505050604051602081830303815290604052915050919050565b6000908152600c60205260409020600201546001600160a01b031690565b6001600160a01b03918216600090815260066020908152604080832093909416825291909152205460ff1690565b61177c611879565b6000546001600160a01b039081169116146117cc576040805162461bcd60e51b81526020600482018190526024820152600080516020612960833981519152604482015290519081900360640190fd5b6001600160a01b0381166118115760405162461bcd60e51b81526004018080602001828103825260268152602001806127e56026913960400191505060405180910390fd5b600080546040516001600160a01b03808516939216917f8be0079c531659141344cd1fd0a4f28419497f9722a3daafe3b4186f6b6457e091a3600080546001600160a01b0319166001600160a01b0392909216919091179055565b6000610c8d600383611eae565b3390565b600081815260056020526040902080546001600160a01b0319166001600160a01b03841690811790915581906118b282611024565b6001600160a01b03167f8c5be1e5ebec7d5bd14f71427d1e84f3dd0314c0f7b2291e5b200ac8c7c3b92560405160405180910390a45050565b6000610c8d82611eba565b60006119018261186c565b61193c5760405162461bcd60e51b815260040180806020018281038252602c81526020018061282f602c913960400191505060405180910390fd5b600061194783611024565b9050806001600160a01b0316846001600160a01b031614806119825750836001600160a01b031661197784610a8a565b6001600160a01b0316145b8061199257506119928185611746565b949350505050565b826001600160a01b03166119ad82611024565b6001600160a01b0316146119f25760405162461bcd60e51b81526004018080602001828103825260298152602001806129806029913960400191505060405180910390fd5b6001600160a01b038216611a375760405162461bcd60e51b815260040180806020018281038252602481526020018061280b6024913960400191505060405180910390fd5b611a42838383610bc2565b611a4d60008261187d565b6001600160a01b0383166000908152600260205260409020611a6f9082611ebe565b506001600160a01b0382166000908152600260205260409020611a929082611eca565b50611a9f60038284611ed6565b5080826001600160a01b0316846001600160a01b03167fddf252ad1be2c89b69c2b068fc378daa952ba7f163c4a11628f55a4df523b3ef60405160405180910390a4505050565b6000610c8a8383611eec565b6000611afc610beb565b9050600b54821115611b0d57600080fd5b6040518060800160405280858152602001611b2785610d2b565b81523360208083019190915260409182018590526000848152600c825291909120825180519192611b5d928492909101906126fd565b506020820151600182015560408201516002820180546001600160a01b0319166001600160a01b03909216919091179055606090910151600390910155611ba43382611f50565b611bae818561207e565b604051819033907fa9a8fc8429e9d4b8fe54b38fd34cb56aaa1a9bf6eb605f45b223b08b58b9761890600090a39392505050565b6000808080611bf186866120e1565b9097909650945050505050565b8051611c1190600a9060208401906126fd565b5050565b6000611c2284848461215c565b90505b9392505050565b6000611c36611879565b6000546001600160a01b03908116911614611c86576040805162461bcd60e51b81526020600482018190526024820152600080516020612960833981519152604482015290519081900360640190fd5b819050600b54841115611c9857600080fd5b6040518060800160405280878152602001611cb287610d2b565b81526001600160a01b03851660208083019190915260409182018790526000848152600c825291909120825180519192611cf1928492909101906126fd565b506020820151600182015560408201516002820180546001600160a01b0319166001600160a01b03909216919091179055606090910151600390910155611d383382611f50565b611d42818761207e565b60405181906001600160a01b038516907fa9a8fc8429e9d4b8fe54b38fd34cb56aaa1a9bf6eb605f45b223b08b58b9761890600090a395945050505050565b611d8c84848461199a565b611d9884848484612226565b61147b5760405162461bcd60e51b81526004018080602001828103825260328152602001806127b36032913960400191505060405180910390fd5b606081611df857506040805180820190915260018152600360fc1b60208201526109ef565b8160005b8115611e1057600101600a82049150611dfc565b60608167ffffffffffffffff81118015611e2957600080fd5b506040519080825280601f01601f191660200182016040528015611e54576020820181803683370190505b50859350905060001982015b8315611ea557600a840660300160f81b82828060019003935081518110611e8357fe5b60200101906001600160f81b031916908160001a905350600a84049350611e60565b50949350505050565b6000610c8a838361238e565b5490565b6000610c8a83836123a6565b6000610c8a838361246c565b6000611c2284846001600160a01b0385166124b6565b81546000908210611f2e5760405162461bcd60e51b81526004018080602001828103825260228152602001806127916022913960400191505060405180910390fd5b826000018281548110611f3d57fe5b9060005260206000200154905092915050565b6001600160a01b038216611fab576040805162461bcd60e51b815260206004820181905260248201527f4552433732313a206d696e7420746f20746865207a65726f2061646472657373604482015290519081900360640190fd5b611fb48161186c565b15612006576040805162461bcd60e51b815260206004820152601c60248201527f4552433732313a20746f6b656e20616c7265616479206d696e74656400000000604482015290519081900360640190fd5b61201260008383610bc2565b6001600160a01b03821660009081526002602052604090206120349082611eca565b5061204160038284611ed6565b5060405181906001600160a01b038416906000907fddf252ad1be2c89b69c2b068fc378daa952ba7f163c4a11628f55a4df523b3ef908290a45050565b6120878261186c565b6120c25760405162461bcd60e51b815260040180806020018281038252602c815260200180612934602c913960400191505060405180910390fd5b60008281526009602090815260409091208251610bc2928401906126fd565b8154600090819083106121255760405162461bcd60e51b81526004018080602001828103825260228152602001806128e66022913960400191505060405180910390fd5b600084600001848154811061213657fe5b906000526020600020906002020190508060000154816001015492509250509250929050565b600082815260018401602052604081205482816121f75760405162461bcd60e51b81526004018080602001828103825283818151815260200191508051906020019080838360005b838110156121bc5781810151838201526020016121a4565b50505050905090810190601f1680156121e95780820380516001836020036101000a031916815260200191505b509250505060405180910390fd5b5084600001600182038154811061220a57fe5b9060005260206000209060020201600101549150509392505050565b600061223a846001600160a01b031661254d565b61224657506001611992565b6060612354630a85bd0160e11b61225b611879565b88878760405160240180856001600160a01b03168152602001846001600160a01b0316815260200183815260200180602001828103825283818151815260200191508051906020019080838360005b838110156122c25781810151838201526020016122aa565b50505050905090810190601f1680156122ef5780820380516001836020036101000a031916815260200191505b5095505050505050604051602081830303815290604052906001600160e01b0319166020820180516001600160e01b0383818316178352505050506040518060600160405280603281526020016127b3603291396001600160a01b0388169190612586565b9050600081806020019051602081101561236d57600080fd5b50516001600160e01b031916630a85bd0160e11b1492505050949350505050565b60009081526001919091016020526040902054151590565b6000818152600183016020526040812054801561246257835460001980830191908101906000908790839081106123d957fe5b90600052602060002001549050808760000184815481106123f657fe5b60009182526020808320909101929092558281526001898101909252604090209084019055865487908061242657fe5b60019003818190600052602060002001600090559055866001016000878152602001908152602001600020600090556001945050505050610c8d565b6000915050610c8d565b6000612478838361238e565b6124ae57508154600181810184556000848152602080822090930184905584548482528286019093526040902091909155610c8d565b506000610c8d565b60008281526001840160205260408120548061251b575050604080518082018252838152602080820184815286546001818101895560008981528481209551600290930290950191825591519082015586548684528188019092529290912055611c25565b8285600001600183038154811061252e57fe5b9060005260206000209060020201600101819055506000915050611c25565b6000813f7fc5d2460186f7233c927e7db2dcc703c0e500b653ca82273b7bfad8045d85a470818114801590611992575050151592915050565b6060611c228484600085606061259b8561254d565b6125ec576040805162461bcd60e51b815260206004820152601d60248201527f416464726573733a2063616c6c20746f206e6f6e2d636f6e7472616374000000604482015290519081900360640190fd5b60006060866001600160a01b031685876040518082805190602001908083835b6020831061262b5780518252601f19909201916020918201910161260c565b6001836020036101000a03801982511681845116808217855250505050505090500191505060006040518083038185875af1925050503d806000811461268d576040519150601f19603f3d011682016040523d82523d6000602084013e612692565b606091505b509150915081156126a65791506119929050565b8051156126b65780518082602001fd5b60405162461bcd60e51b81526020600482018181528651602484015286518793919283926044019190850190808383600083156121bc5781810151838201526020016121a4565b828054600181600116156101000203166002900490600052602060002090601f016020900481019282601f1061273e57805160ff191683800117855561276b565b8280016001018555821561276b579182015b8281111561276b578251825591602001919060010190612750565b5061277792915061277b565b5090565b5b80821115612777576000815560010161277c56fe456e756d657261626c655365743a20696e646578206f7574206f6620626f756e64734552433732313a207472616e7366657220746f206e6f6e20455243373231526563656976657220696d706c656d656e7465724f776e61626c653a206e6577206f776e657220697320746865207a65726f20616464726573734552433732313a207472616e7366657220746f20746865207a65726f20616464726573734552433732313a206f70657261746f7220717565727920666f72206e6f6e6578697374656e7420746f6b656e4552433732313a20617070726f76652063616c6c6572206973206e6f74206f776e6572206e6f7220617070726f76656420666f7220616c6c4552433732313a2062616c616e636520717565727920666f7220746865207a65726f20616464726573734552433732313a206f776e657220717565727920666f72206e6f6e6578697374656e7420746f6b656e456e756d657261626c654d61703a20696e646578206f7574206f6620626f756e64734552433732313a20617070726f76656420717565727920666f72206e6f6e6578697374656e7420746f6b656e4552433732314d657461646174613a2055524920736574206f66206e6f6e6578697374656e7420746f6b656e4f776e61626c653a2063616c6c6572206973206e6f7420746865206f776e65724552433732313a207472616e73666572206f6620746f6b656e2074686174206973206e6f74206f776e4552433732314d657461646174613a2055524920717565727920666f72206e6f6e6578697374656e7420746f6b656e4552433732313a20617070726f76616c20746f2063757272656e74206f776e65724552433732313a207472616e736665722063616c6c6572206973206e6f74206f776e6572206e6f7220617070726f766564a264697066735822122022a695db92703f91a32e1e9b0392ec570ec256046cad88174db706214dd3bf3464736f6c634300060c0033",
  "linkReferences": {},
  "deployedLinkReferences": {}
}