{"contracts/staking.sol":{"QIDexStaking":{"abi":[{"inputs":[{"internalType":"uint256","name":"_rewardPerBlock","type":"uint256"},{"internalType":"uint256","name":"_depositFee","type":"uint256"},{"internalType":"uint256","name":"_withdrawFee","type":"uint256"},{"internalType":"uint256","name":"_poolLimitPerUser","type":"uint256"},{"internalType":"address","name":"_rewardToken","type":"address"}],"stateMutability":"nonpayable","type":"constructor"},{"anonymous":false,"inputs":[{"indexed":false,"internalType":"address","name":"tokenRecovered","type":"address"},{"indexed":false,"internalType":"uint256","name":"amount","type":"uint256"}],"name":"AdminTokenRecovered","type":"event"},{"anonymous":false,"inputs":[{"indexed":true,"internalType":"address","name":"user","type":"address"},{"indexed":false,"internalType":"uint256","name":"amount","type":"uint256"}],"name":"Deposit","type":"event"},{"anonymous":false,"inputs":[{"indexed":false,"internalType":"address","name":"_actualStaker","type":"address"},{"indexed":false,"internalType":"uint256","name":"_amount","type":"uint256"},{"indexed":false,"internalType":"uint256","name":"_duration","type":"uint256"},{"indexed":false,"internalType":"uint256","name":"_end","type":"uint256"},{"indexed":false,"internalType":"uint256","name":"_rewardDebt","type":"uint256"}],"name":"DepositAdmin","type":"event"},{"anonymous":false,"inputs":[{"indexed":false,"internalType":"uint256","name":"_duration","type":"uint256"}],"name":"DurationUpdated","type":"event"},{"anonymous":false,"inputs":[{"indexed":false,"internalType":"uint256","name":"_depositFee","type":"uint256"},{"indexed":false,"internalType":"uint256","name":"_withdrawFee","type":"uint256"}],"name":"FeeUpdated","type":"event"},{"anonymous":false,"inputs":[{"indexed":false,"internalType":"uint256","name":"poolLimitPerUser","type":"uint256"}],"name":"NewPoolLimit","type":"event"},{"anonymous":false,"inputs":[{"indexed":true,"internalType":"address","name":"previousOwner","type":"address"},{"indexed":true,"internalType":"address","name":"newOwner","type":"address"}],"name":"OwnershipTransferred","type":"event"},{"anonymous":false,"inputs":[{"indexed":false,"internalType":"uint256","name":"_rewardPerBlock","type":"uint256"}],"name":"RewardPerBlockUpdated","type":"event"},{"anonymous":false,"inputs":[{"indexed":true,"internalType":"address","name":"user","type":"address"},{"indexed":false,"internalType":"uint256","name":"amount","type":"uint256"}],"name":"Withdraw","type":"event"},{"inputs":[],"name":"PRECISION_FACTOR","outputs":[{"internalType":"uint256","name":"","type":"uint256"}],"stateMutability":"view","type":"function"},{"inputs":[],"name":"accTokenPerShare","outputs":[{"internalType":"uint256","name":"","type":"uint256"}],"stateMutability":"view","type":"function"},{"inputs":[],"name":"availableRewardTokens","outputs":[{"internalType":"uint256","name":"","type":"uint256"}],"stateMutability":"view","type":"function"},{"inputs":[],"name":"claimReward","outputs":[],"stateMutability":"nonpayable","type":"function"},{"inputs":[],"name":"deposit","outputs":[],"stateMutability":"payable","type":"function"},{"inputs":[{"internalType":"address","name":"_actualStaker","type":"address"},{"internalType":"uint256","name":"_amount","type":"uint256"},{"internalType":"uint256","name":"_duration","type":"uint256"},{"internalType":"uint256","name":"_end","type":"uint256"},{"internalType":"uint256","name":"_rewardDebt","type":"uint256"}],"name":"depositAdmin","outputs":[],"stateMutability":"payable","type":"function"},{"inputs":[],"name":"depositFee","outputs":[{"internalType":"uint256","name":"","type":"uint256"}],"stateMutability":"view","type":"function"},{"inputs":[],"name":"duration","outputs":[{"internalType":"uint256","name":"","type":"uint256"}],"stateMutability":"view","type":"function"},{"inputs":[],"name":"hasUserLimit","outputs":[{"internalType":"bool","name":"","type":"bool"}],"stateMutability":"view","type":"function"},{"inputs":[],"name":"lastRewardBlock","outputs":[{"internalType":"uint256","name":"","type":"uint256"}],"stateMutability":"view","type":"function"},{"inputs":[],"name":"owner","outputs":[{"internalType":"address","name":"","type":"address"}],"stateMutability":"view","type":"function"},{"inputs":[{"internalType":"address","name":"_account","type":"address"}],"name":"pendingReward","outputs":[{"internalType":"uint256","name":"","type":"uint256"}],"stateMutability":"view","type":"function"},{"inputs":[],"name":"poolLimitPerUser","outputs":[{"internalType":"uint256","name":"","type":"uint256"}],"stateMutability":"view","type":"function"},{"inputs":[{"internalType":"address","name":"_tokenAddress","type":"address"},{"internalType":"uint256","name":"_tokenAmount","type":"uint256"}],"name":"recoverWrongTokens","outputs":[],"stateMutability":"nonpayable","type":"function"},{"inputs":[],"name":"renounceOwnership","outputs":[],"stateMutability":"nonpayable","type":"function"},{"inputs":[],"name":"rewardPerBlock","outputs":[{"internalType":"uint256","name":"","type":"uint256"}],"stateMutability":"view","type":"function"},{"inputs":[],"name":"rewardToken","outputs":[{"internalType":"contract IERC20","name":"","type":"address"}],"stateMutability":"view","type":"function"},{"inputs":[{"internalType":"uint256","name":"newValue","type":"uint256"}],"name":"setAccTokenPerShare","outputs":[],"stateMutability":"nonpayable","type":"function"},{"inputs":[{"internalType":"address","name":"","type":"address"}],"name":"staked","outputs":[{"internalType":"bool","name":"","type":"bool"}],"stateMutability":"view","type":"function"},{"inputs":[],"name":"startBlock","outputs":[{"internalType":"uint256","name":"","type":"uint256"}],"stateMutability":"view","type":"function"},{"inputs":[],"name":"totalStaked","outputs":[{"internalType":"uint256","name":"","type":"uint256"}],"stateMutability":"view","type":"function"},{"inputs":[],"name":"totalUsers","outputs":[{"internalType":"uint256","name":"","type":"uint256"}],"stateMutability":"view","type":"function"},{"inputs":[{"internalType":"address","name":"newOwner","type":"address"}],"name":"transferOwnership","outputs":[],"stateMutability":"nonpayable","type":"function"},{"inputs":[{"internalType":"uint256","name":"_duration","type":"uint256"}],"name":"updateDuration","outputs":[],"stateMutability":"nonpayable","type":"function"},{"inputs":[{"internalType":"uint256","name":"_depositFee","type":"uint256"},{"internalType":"uint256","name":"_withdrawFee","type":"uint256"}],"name":"updateFee","outputs":[],"stateMutability":"nonpayable","type":"function"},{"inputs":[{"internalType":"bool","name":"_hasUserLimit","type":"bool"},{"internalType":"uint256","name":"_poolLimitPerUser","type":"uint256"}],"name":"updatePoolLimitPerUser","outputs":[],"stateMutability":"nonpayable","type":"function"},{"inputs":[{"internalType":"uint256","name":"_rewardPerBlock","type":"uint256"}],"name":"updateRewardPerBlock","outputs":[],"stateMutability":"nonpayable","type":"function"},{"inputs":[{"internalType":"address","name":"_rewardToken","type":"address"}],"name":"updateRewardToken","outputs":[],"stateMutability":"nonpayable","type":"function"},{"inputs":[{"internalType":"address","name":"_account","type":"address"}],"name":"userInfo","outputs":[{"internalType":"uint256","name":"amount","type":"uint256"},{"internalType":"uint256","name":"available","type":"uint256"},{"internalType":"uint256","name":"locked","type":"uint256"}],"stateMutability":"view","type":"function"},{"inputs":[{"internalType":"address","name":"","type":"address"}],"name":"userStaked","outputs":[{"internalType":"uint256","name":"amount","type":"uint256"},{"internalType":"uint256","name":"count","type":"uint256"},{"internalType":"uint256","name":"locked","type":"uint256"},{"internalType":"uint256","name":"available","type":"uint256"}],"stateMutability":"view","type":"function"},{"inputs":[{"internalType":"address","name":"","type":"address"},{"internalType":"uint256","name":"","type":"uint256"}],"name":"userStakes","outputs":[{"internalType":"uint256","name":"amount","type":"uint256"},{"internalType":"uint256","name":"duration","type":"uint256"},{"internalType":"uint256","name":"end","type":"uint256"},{"internalType":"uint256","name":"rewardDebt","type":"uint256"}],"stateMutability":"view","type":"function"},{"inputs":[{"internalType":"uint256","name":"_amount","type":"uint256"}],"name":"withdraw","outputs":[],"stateMutability":"nonpayable","type":"function"},{"inputs":[],"name":"withdrawFee","outputs":[{"internalType":"uint256","name":"","type":"uint256"}],"stateMutability":"view","type":"function"},{"stateMutability":"payable","type":"receive"}],"evm":{"bytecode":{"linkReferences":{},"object":"608060405261016d60025569d3c21bcecceda1000000600b553480156200002557600080fd5b50604051620025f8380380620025f8833981810160405260a08110156200004b57600080fd5b5080516020820151604083015160608401516080909401519293919290919060006200007f6001600160e01b036200014216565b600080546001600160a01b0319166001600160a01b0383169081178255604051929350917f8be0079c531659141344cd1fd0a4f28419497f9722a3daafe3b4186f6b6457e0908290a35060018081905550620000eb6001436200014660201b62001ccd1790919060201c565b600a819055600555600385905560068490556007839055600e80546001600160a01b0319166001600160a01b038316179055811562000137576008805460ff1916600117905560098290555b5050505050620001a5565b3390565b808201828110156200019f576040805162461bcd60e51b815260206004820152601460248201527f64732d6d6174682d6164642d6f766572666c6f77000000000000000000000000604482015290519081900360640190fd5b92915050565b61244380620001b56000396000f3fe6080604052600436106101f25760003560e01c80638f6629151161010d578063b88a802f116100a0578063e941fa781161006f578063e941fa781461061c578063f2fde38b14610631578063f40f0f5214610664578063f7c618c114610697578063f8cf31cb146106ac576101f9565b8063b88a802f146105d5578063bff1f9e1146105ea578063ccd34cd5146105ff578063d0e30db014610614576101f9565b8063a0b40905116100dc578063a0b40905146104fc578063a9f8d1811461052e578063acc3a93914610543578063b5d5b5fa1461059c576101f9565b80638f6629151461047657806392e8990e1461048b57806398807d84146104b45780639f94e272146104e7576101f9565b806348cd4cb111610185578063715018a611610154578063715018a614610406578063817b1cd21461041b5780638ae39cac146104305780638da5cb5b14610445576101f9565b806348cd4cb11461038957806366fe9f8a1461039e57806367a52793146103b35780636d5e80f8146103c8576101f9565b80631b50ad09116101c15780631b50ad09146102cc5780632740c197146102f65780632e1a7d4d146103265780633f138d4b14610350576101f9565b806301f8a976146101fe578063075564da1461022a5780630fb5a6b4146102545780631959a0021461027b576101f9565b366101f957005b600080fd5b34801561020a57600080fd5b506102286004803603602081101561022157600080fd5b50356106df565b005b34801561023657600080fd5b506102286004803603602081101561024d57600080fd5b5035610772565b34801561026057600080fd5b50610269610819565b60408051918252519081900360200190f35b34801561028757600080fd5b506102ae6004803603602081101561029e57600080fd5b50356001600160a01b031661081f565b60408051938452602084019290925282820152519081900360600190f35b3480156102d857600080fd5b50610228600480360360208110156102ef57600080fd5b50356108db565b34801561030257600080fd5b506102286004803603604081101561031957600080fd5b508035906020013561096e565b34801561033257600080fd5b506102286004803603602081101561034957600080fd5b5035610a0f565b34801561035c57600080fd5b506102286004803603604081101561037357600080fd5b506001600160a01b038135169060200135610daf565b34801561039557600080fd5b50610269610f0c565b3480156103aa57600080fd5b50610269610f12565b3480156103bf57600080fd5b50610269610f18565b610228600480360360a08110156103de57600080fd5b506001600160a01b038135169060208101359060408101359060608101359060800135610f1e565b34801561041257600080fd5b50610228611145565b34801561042757600080fd5b506102696111e7565b34801561043c57600080fd5b506102696111ed565b34801561045157600080fd5b5061045a6111f3565b604080516001600160a01b039092168252519081900360200190f35b34801561048257600080fd5b50610269611202565b34801561049757600080fd5b506104a0611208565b604080519115158252519081900360200190f35b3480156104c057600080fd5b506104a0600480360360208110156104d757600080fd5b50356001600160a01b0316611211565b3480156104f357600080fd5b50610269611226565b34801561050857600080fd5b506102286004803603604081101561051f57600080fd5b508035151590602001356112a2565b34801561053a57600080fd5b506102696113f2565b34801561054f57600080fd5b506105766004803603602081101561056657600080fd5b50356001600160a01b03166113f8565b604080519485526020850193909352838301919091526060830152519081900360800190f35b3480156105a857600080fd5b50610576600480360360408110156105bf57600080fd5b506001600160a01b03813516906020013561141f565b3480156105e157600080fd5b50610228611462565b3480156105f657600080fd5b50610269611618565b34801561060b57600080fd5b5061026961161e565b610228611624565b34801561062857600080fd5b506102696119fc565b34801561063d57600080fd5b506102286004803603602081101561065457600080fd5b50356001600160a01b0316611a02565b34801561067057600080fd5b506102696004803603602081101561068757600080fd5b50356001600160a01b0316611afa565b3480156106a357600080fd5b5061045a611c40565b3480156106b857600080fd5b50610228600480360360208110156106cf57600080fd5b50356001600160a01b0316611c4f565b6106e7611cc9565b6000546001600160a01b03908116911614610737576040805162461bcd60e51b815260206004820181905260248201526000805160206123ee833981519152604482015290519081900360640190fd5b60038190556040805182815290517f5ed0ffa545a9eae0edd36b74378d16454cf385281383c7632ad5b2ebf3ab2b929181900360200190a150565b61077a611cc9565b6000546001600160a01b039081169116146107ca576040805162461bcd60e51b815260206004820181905260248201526000805160206123ee833981519152604482015290519081900360640190fd5b60026001541415610810576040805162461bcd60e51b815260206004820152601f60248201526000805160206123a8833981519152604482015290519081900360640190fd5b60045560018055565b60025481565b6001600160a01b038116600090815260106020526040812081908190815b81548110156108d257600082828154811061085457fe5b9060005260206000209060040201905080600001546000141561087757506108ca565b805461088a90879063ffffffff611ccd16565b955080600201544211156108b25780546108ab90869063ffffffff611ccd16565b94506108c8565b80546108c590859063ffffffff611ccd16565b93505b505b60010161083d565b50509193909250565b6108e3611cc9565b6000546001600160a01b03908116911614610933576040805162461bcd60e51b815260206004820181905260248201526000805160206123ee833981519152604482015290519081900360640190fd5b60028190556040805182815290517f91abcc2d6823e3a3f11d31b208dd3065d2c6a791f1c7c9fe96a42ce12897eac59181900360200190a150565b610976611cc9565b6000546001600160a01b039081169116146109c6576040805162461bcd60e51b815260206004820181905260248201526000805160206123ee833981519152604482015290519081900360640190fd5b60068290556007819055604080518381526020810183905281517f528d9479e9f9889a87a3c30c7f7ba537e5e59c4c85a37733b16e57c62df61302929181900390910190a15050565b60026001541415610a55576040805162461bcd60e51b815260206004820152601f60248201526000805160206123a8833981519152604482015290519081900360640190fd5b600260015580610aac576040805162461bcd60e51b815260206004820152601f60248201527f416d6f756e742073686f756c642062652067726561746f72207468616e203000604482015290519081900360640190fd5b610ab4611d22565b33600090815260116020908152604080832060109092528220909183815b8354811015610be8576000848281548110610ae957fe5b90600052602060002090600402019050806000015460001415610b0c5750610be0565b82610b175750610be8565b6000610b588260030154610b4c600b54610b406004548760000154611e0890919063ffffffff16565b9063ffffffff611e6b16565b9063ffffffff611ed216565b9050610b6a858263ffffffff611ccd16565b94504282600201541015610bb8578154841015610b9e578154610b93908563ffffffff611ed216565b825560009350610bb8565b8154610bb190859063ffffffff611ed216565b6000835593505b600b546004548354610bd59291610b40919063ffffffff611e0816565b826003018190555050505b600101610ad2565b508115610c7e5781610bf8611226565b1015610c48576040805162461bcd60e51b815260206004820152601a602482015279496e73756666696369656e742072657761726420746f6b656e7360301b604482015290519081900360640190fd5b610c523383611f22565b5081600d541115610c7857600d54610c70908363ffffffff611ed216565b600d55610c7e565b6000600d555b6000610c90868363ffffffff611ed216565b90508015610d6d5760075415610d14576000610cbd612710610b4060075485611e0890919063ffffffff16565b9050610cc76111f3565b6001600160a01b03166108fc829081150290604051600060405180830381858888f19350505050158015610cff573d6000803e3d6000fd5b50610d10828263ffffffff611ed216565b9150505b8454610d26908263ffffffff611ed216565b8555604051339082156108fc029083906000818181858888f19350505050158015610d55573d6000803e3d6000fd5b50600c54610d69908263ffffffff611ed216565b600c555b60408051878152905133917f884edad9ce6fa2440d8a54cc123490eb96d2768479d49ff9c7366125a9424364919081900360200190a250506001805550505050565b610db7611cc9565b6000546001600160a01b03908116911614610e07576040805162461bcd60e51b815260206004820181905260248201526000805160206123ee833981519152604482015290519081900360640190fd5b6001600160a01b038216610e4857604051339082156108fc029083906000818181858888f19350505050158015610e42573d6000803e3d6000fd5b50610ec4565b6040805163a9059cbb60e01b81523360048201526024810183905290516001600160a01b0384169163a9059cbb9160448083019260209291908290030181600087803b158015610e9757600080fd5b505af1158015610eab573d6000803e3d6000fd5b505050506040513d6020811015610ec157600080fd5b50505b604080516001600160a01b03841681526020810183905281517f74f5dcd55c394cb1c6d3b9da22c2464bcc46c38cc3865bd629ed75823249b40b929181900390910190a15050565b600a5481565b60095481565b60065481565b60026001541415610f64576040805162461bcd60e51b815260206004820152601f60248201526000805160206123a8833981519152604482015290519081900360640190fd5b6002600155610f71611cc9565b6000546001600160a01b03908116911614610fc1576040805162461bcd60e51b815260206004820181905260248201526000805160206123ee833981519152604482015290519081900360640190fd5b60008411611016576040805162461bcd60e51b815260206004820152601f60248201527f416d6f756e742073686f756c642062652067726561746f72207468616e203000604482015290519081900360640190fd5b6001600160a01b03851660009081526011602052604090208415611079578054611046908663ffffffff611ccd16565b815560018082015461105d9163ffffffff611ccd16565b6001820155600c54611075908663ffffffff611ccd16565b600c555b61108686868686866120bf565b6001600160a01b03861660009081526012602052604090205460ff166110e2576001600160a01b0386166000908152601260205260409020805460ff19166001908117909155600f546110de9163ffffffff611ccd16565b600f555b604080516001600160a01b038816815260208101879052808201869052606081018590526080810184905290517fc890600fcaa3d889eb011bb8a5418c4878658570b27143ba7d72475902b28d719181900360a00190a150506001805550505050565b61114d611cc9565b6000546001600160a01b0390811691161461119d576040805162461bcd60e51b815260206004820181905260248201526000805160206123ee833981519152604482015290519081900360640190fd5b600080546040516001600160a01b03909116907f8be0079c531659141344cd1fd0a4f28419497f9722a3daafe3b4186f6b6457e0908390a3600080546001600160a01b0319169055565b600c5481565b60035481565b6000546001600160a01b031690565b60045481565b60085460ff1681565b60126020526000908152604090205460ff1681565b600e54604080516370a0823160e01b815230600482015290516000926001600160a01b0316916370a08231916024808301926020929190829003018186803b15801561127157600080fd5b505afa158015611285573d6000803e3d6000fd5b505050506040513d602081101561129b57600080fd5b5051905090565b6112aa611cc9565b6000546001600160a01b039081169116146112fa576040805162461bcd60e51b815260206004820181905260248201526000805160206123ee833981519152604482015290519081900360640190fd5b60085460ff1661133f576040805162461bcd60e51b815260206004820152600b60248201526a135d5cdd081899481cd95d60aa1b604482015290519081900360640190fd5b81156113a557600954811161139b576040805162461bcd60e51b815260206004820152601860248201527f4e6577206c696d6974206d757374206265206869676865720000000000000000604482015290519081900360640190fd5b60098190556113b9565b6008805460ff191683151517905560006009555b60095460408051918252517f241f67ee5f41b7a5cabf911367329be7215900f602ebfc47f89dce2a6bcd847c9181900360200190a15050565b60055481565b60116020526000908152604090208054600182015460028301546003909301549192909184565b6010602052816000526040600020818154811061143857fe5b60009182526020909120600490910201805460018201546002830154600390930154919450925084565b600260015414156114a8576040805162461bcd60e51b815260206004820152601f60248201526000805160206123a8833981519152604482015290519081900360640190fd5b6002600155600a546114b957611612565b6114c1611d22565b33600090815260106020526040812090805b82548110156115795760008382815481106114ea57fe5b9060005260206000209060040201905080600001546000141561150d5750611571565b60006115368260030154610b4c600b54610b406004548760000154611e0890919063ffffffff16565b9050611548848263ffffffff611ccd16565b600b54600454845492965061156692610b409163ffffffff611e0816565b826003018190555050505b6001016114d3565b50801561160f5780611589611226565b10156115d9576040805162461bcd60e51b815260206004820152601a602482015279496e73756666696369656e742072657761726420746f6b656e7360301b604482015290519081900360640190fd5b6115e33382611f22565b5080600d54111561160957600d54611601908263ffffffff611ed216565b600d5561160f565b6000600d555b50505b60018055565b600f5481565b600b5481565b6002600154141561166a576040805162461bcd60e51b815260206004820152601f60248201526000805160206123a8833981519152604482015290519081900360640190fd5b600260015534806116c2576040805162461bcd60e51b815260206004820152601f60248201527f416d6f756e742073686f756c642062652067726561746f72207468616e203000604482015290519081900360640190fd5b6116ca611d22565b336000908152601160209081526040808320601090925282206008549192909160ff161561175b57600954835461170890869063ffffffff611ccd16565b111561175b576040805162461bcd60e51b815260206004820152601760248201527f5573657220616d6f756e742061626f7665206c696d6974000000000000000000604482015290519081900360640190fd5b60005b825481101561180457600083828154811061177557fe5b9060005260206000209060040201905080600001546000141561179857506117fc565b60006117c18260030154610b4c600b54610b406004548760000154611e0890919063ffffffff16565b90506117d3848263ffffffff611ccd16565b600b5460045484549296506117f192610b409163ffffffff611e0816565b826003018190555050505b60010161175e565b50801561189a5780611814611226565b1015611864576040805162461bcd60e51b815260206004820152601a602482015279496e73756666696369656e742072657761726420746f6b656e7360301b604482015290519081900360640190fd5b61186e3382611f22565b5080600d54111561189457600d5461188c908263ffffffff611ed216565b600d5561189a565b6000600d555b83156118e55782546118b2908563ffffffff611ccd16565b83556001808401546118c99163ffffffff611ccd16565b6001840155600c546118e1908563ffffffff611ccd16565b600c555b6006541561196857600061190a612710610b4060065488611e0890919063ffffffff16565b905080156119665761191a6111f3565b6001600160a01b03166108fc829081150290604051600060405180830381858888f19350505050158015611952573d6000803e3d6000fd5b50611963858263ffffffff611ed216565b94505b505b6119723385612229565b3360009081526012602052604090205460ff166119bc57336000908152601260205260409020805460ff19166001908117909155600f546119b89163ffffffff611ccd16565b600f555b60408051858152905133917fe1fffcc4923d04b559f4d29a8bfc6cda04eb5b0d3c460751c2402c5c5cc9109c919081900360200190a25050600180555050565b60075481565b611a0a611cc9565b6000546001600160a01b03908116911614611a5a576040805162461bcd60e51b815260206004820181905260248201526000805160206123ee833981519152604482015290519081900360640190fd5b6001600160a01b038116611a9f5760405162461bcd60e51b81526004018080602001828103825260268152602001806123c86026913960400191505060405180910390fd5b600080546040516001600160a01b03808516939216917f8be0079c531659141344cd1fd0a4f28419497f9722a3daafe3b4186f6b6457e091a3600080546001600160a01b0319166001600160a01b0392909216919091179055565b6000600a5460001415611b0f57506000611c3b565b6001600160a01b0382166000908152601060205260409020600c54611b38576000915050611c3b565b60045460055443118015611b4d5750600c5415155b15611bb6576000611b6960055443611ed290919063ffffffff16565b90506000611b8260035483611e0890919063ffffffff16565b9050611bb1611ba2600c54610b40600b5485611e0890919063ffffffff16565b6004549063ffffffff611ccd16565b925050505b6000805b8354811015611c35576000848281548110611bd157fe5b90600052602060002090600402019050806000015460001415611bf45750611c2d565b611c29611c1c8260030154610b4c600b54610b40898760000154611e0890919063ffffffff16565b849063ffffffff611ccd16565b9250505b600101611bba565b50925050505b919050565b600e546001600160a01b031681565b611c57611cc9565b6000546001600160a01b03908116911614611ca7576040805162461bcd60e51b815260206004820181905260248201526000805160206123ee833981519152604482015290519081900360640190fd5b600e80546001600160a01b0319166001600160a01b0392909216919091179055565b3390565b80820182811015611d1c576040805162461bcd60e51b815260206004820152601460248201527364732d6d6174682d6164642d6f766572666c6f7760601b604482015290519081900360640190fd5b92915050565b6005544311611d3057611e06565b600c54611d405743600555611e06565b6000611d5760055443611ed290919063ffffffff16565b90506000611d7060035483611e0890919063ffffffff16565b600e54604080516340c10f1960e01b81523060048201526024810184905290519293506001600160a01b03909116916340c10f199160448082019260009290919082900301818387803b158015611dc657600080fd5b505af1158015611dda573d6000803e3d6000fd5b50505050611dfc611ba2600c54610b40600b5485611e0890919063ffffffff16565b6004555050436005555b565b6000811580611e2357505080820282828281611e2057fe5b04145b611d1c576040805162461bcd60e51b815260206004820152601460248201527364732d6d6174682d6d756c2d6f766572666c6f7760601b604482015290519081900360640190fd5b6000808211611ec1576040805162461bcd60e51b815260206004820152601a60248201527f536166654d6174683a206469766973696f6e206279207a65726f000000000000604482015290519081900360640190fd5b818381611eca57fe5b049392505050565b80820382811115611d1c576040805162461bcd60e51b815260206004820152601560248201527464732d6d6174682d7375622d756e646572666c6f7760581b604482015290519081900360640190fd5b600e54604080516370a0823160e01b8152306004820152905160009283926001600160a01b03909116916370a0823191602480820192602092909190829003018186803b158015611f7257600080fd5b505afa158015611f86573d6000803e3d6000fd5b505050506040513d6020811015611f9c57600080fd5b505190508083111561203357600e546040805163a9059cbb60e01b81526001600160a01b038781166004830152602482018590529151919092169163a9059cbb9160448083019260209291908290030181600087803b158015611ffe57600080fd5b505af1158015612012573d6000803e3d6000fd5b505050506040513d602081101561202857600080fd5b50909150611d1c9050565b600e546040805163a9059cbb60e01b81526001600160a01b038781166004830152602482018790529151919092169163a9059cbb9160448083019260209291908290030181600087803b15801561208957600080fd5b505af115801561209d573d6000803e3d6000fd5b505050506040513d60208110156120b357600080fd5b50839250611d1c915050565b6001600160a01b0385166000908152601060205260408120600254909190612101906120f4906201518063ffffffff611e0816565b429063ffffffff611ccd16565b82549091506101008110612149576040805162461bcd60e51b815260206004820152600a6024820152694d6178207374616b657360b01b604482015290519081900360640190fd5b8254600101835560008390525b801580159061218457508183600183038154811061217057fe5b906000526020600020906004020160020154115b156121ed5782600182038154811061219857fe5b90600052602060002090600402018382815481106121b257fe5b600091825260209091208254600490920201908155600180830154908201556002808301549082015560039182015491015560001901612156565b60008382815481106121fb57fe5b6000918252602090912060049091020160018101979097555050505060028301919091559181556003015550565b6001600160a01b038216600090815260106020526040812060025490919061225e906120f4906201518063ffffffff611e0816565b825490915061010081106122a6576040805162461bcd60e51b815260206004820152600a6024820152694d6178207374616b657360b01b604482015290519081900360640190fd5b8254600101835560008390525b80158015906122e15750818360018303815481106122cd57fe5b906000526020600020906004020160020154115b1561234a578260018203815481106122f557fe5b906000526020600020906004020183828154811061230f57fe5b6000918252602090912082546004909202019081556001808301549082015560028083015490820155600391820154910155600019016122b3565b600083828154811061235857fe5b600091825260209091206002805460016004948502909301928301558101859055868155600b54915490925061239a9190610b4090889063ffffffff611e0816565b600390910155505050505056fe5265656e7472616e637947756172643a207265656e7472616e742063616c6c004f776e61626c653a206e6577206f776e657220697320746865207a65726f20616464726573734f776e61626c653a2063616c6c6572206973206e6f7420746865206f776e6572a2646970667358221220d5f73df87111f3c0df8eb2108146850f086fd12bbdef1ca39262ef3c131d253464736f6c63430006060033","opcodes":"PUSH1 0x80 PUSH1 0x40 MSTORE PUSH2 0x16D PUSH1 0x2 SSTORE PUSH10 0xD3C21BCECCEDA1000000 PUSH1 0xB SSTORE CALLVALUE DUP1 ISZERO PUSH3 0x25 JUMPI PUSH1 0x0 DUP1 REVERT JUMPDEST POP PUSH1 0x40 MLOAD PUSH3 0x25F8 CODESIZE SUB DUP1 PUSH3 0x25F8 DUP4 CODECOPY DUP2 DUP2 ADD PUSH1 0x40 MSTORE PUSH1 0xA0 DUP2 LT ISZERO PUSH3 0x4B JUMPI PUSH1 0x0 DUP1 REVERT JUMPDEST POP DUP1 MLOAD PUSH1 0x20 DUP3 ADD MLOAD PUSH1 0x40 DUP4 ADD MLOAD PUSH1 0x60 DUP5 ADD MLOAD PUSH1 0x80 SWAP1 SWAP5 ADD MLOAD SWAP3 SWAP4 SWAP2 SWAP3 SWAP1 SWAP2 SWAP1 PUSH1 0x0 PUSH3 0x7F PUSH1 0x1 PUSH1 0x1 PUSH1 0xE0 SHL SUB PUSH3 0x142 AND JUMP JUMPDEST PUSH1 0x0 DUP1 SLOAD PUSH1 0x1 PUSH1 0x1 PUSH1 0xA0 SHL SUB NOT AND PUSH1 0x1 PUSH1 0x1 PUSH1 0xA0 SHL SUB DUP4 AND SWAP1 DUP2 OR DUP3 SSTORE PUSH1 0x40 MLOAD SWAP3 SWAP4 POP SWAP2 PUSH32 0x8BE0079C531659141344CD1FD0A4F28419497F9722A3DAAFE3B4186F6B6457E0 SWAP1 DUP3 SWAP1 LOG3 POP PUSH1 0x1 DUP1 DUP2 SWAP1 SSTORE POP PUSH3 0xEB PUSH1 0x1 NUMBER PUSH3 0x146 PUSH1 0x20 SHL PUSH3 0x1CCD OR SWAP1 SWAP2 SWAP1 PUSH1 0x20 SHR JUMP JUMPDEST PUSH1 0xA DUP2 SWAP1 SSTORE PUSH1 0x5 SSTORE PUSH1 0x3 DUP6 SWAP1 SSTORE PUSH1 0x6 DUP5 SWAP1 SSTORE PUSH1 0x7 DUP4 SWAP1 SSTORE PUSH1 0xE DUP1 SLOAD PUSH1 0x1 PUSH1 0x1 PUSH1 0xA0 SHL SUB NOT AND PUSH1 0x1 PUSH1 0x1 PUSH1 0xA0 SHL SUB DUP4 AND OR SWAP1 SSTORE DUP2 ISZERO PUSH3 0x137 JUMPI PUSH1 0x8 DUP1 SLOAD PUSH1 0xFF NOT AND PUSH1 0x1 OR SWAP1 SSTORE PUSH1 0x9 DUP3 SWAP1 SSTORE JUMPDEST POP POP POP POP POP PUSH3 0x1A5 JUMP JUMPDEST CALLER SWAP1 JUMP JUMPDEST DUP1 DUP3 ADD DUP3 DUP2 LT ISZERO PUSH3 0x19F JUMPI PUSH1 0x40 DUP1 MLOAD PUSH3 0x461BCD PUSH1 0xE5 SHL DUP2 MSTORE PUSH1 0x20 PUSH1 0x4 DUP3 ADD MSTORE PUSH1 0x14 PUSH1 0x24 DUP3 ADD MSTORE PUSH32 0x64732D6D6174682D6164642D6F766572666C6F77000000000000000000000000 PUSH1 0x44 DUP3 ADD MSTORE SWAP1 MLOAD SWAP1 DUP2 SWAP1 SUB PUSH1 0x64 ADD SWAP1 REVERT JUMPDEST SWAP3 SWAP2 POP POP JUMP JUMPDEST PUSH2 0x2443 DUP1 PUSH3 0x1B5 PUSH1 0x0 CODECOPY PUSH1 0x0 RETURN INVALID PUSH1 0x80 PUSH1 0x40 MSTORE PUSH1 0x4 CALLDATASIZE LT PUSH2 0x1F2 JUMPI PUSH1 0x0 CALLDATALOAD PUSH1 0xE0 SHR DUP1 PUSH4 0x8F662915 GT PUSH2 0x10D JUMPI DUP1 PUSH4 0xB88A802F GT PUSH2 0xA0 JUMPI DUP1 PUSH4 0xE941FA78 GT PUSH2 0x6F JUMPI DUP1 PUSH4 0xE941FA78 EQ PUSH2 0x61C JUMPI DUP1 PUSH4 0xF2FDE38B EQ PUSH2 0x631 JUMPI DUP1 PUSH4 0xF40F0F52 EQ PUSH2 0x664 JUMPI DUP1 PUSH4 0xF7C618C1 EQ PUSH2 0x697 JUMPI DUP1 PUSH4 0xF8CF31CB EQ PUSH2 0x6AC JUMPI PUSH2 0x1F9 JUMP JUMPDEST DUP1 PUSH4 0xB88A802F EQ PUSH2 0x5D5 JUMPI DUP1 PUSH4 0xBFF1F9E1 EQ PUSH2 0x5EA JUMPI DUP1 PUSH4 0xCCD34CD5 EQ PUSH2 0x5FF JUMPI DUP1 PUSH4 0xD0E30DB0 EQ PUSH2 0x614 JUMPI PUSH2 0x1F9 JUMP JUMPDEST DUP1 PUSH4 0xA0B40905 GT PUSH2 0xDC JUMPI DUP1 PUSH4 0xA0B40905 EQ PUSH2 0x4FC JUMPI DUP1 PUSH4 0xA9F8D181 EQ PUSH2 0x52E JUMPI DUP1 PUSH4 0xACC3A939 EQ PUSH2 0x543 JUMPI DUP1 PUSH4 0xB5D5B5FA EQ PUSH2 0x59C JUMPI PUSH2 0x1F9 JUMP JUMPDEST DUP1 PUSH4 0x8F662915 EQ PUSH2 0x476 JUMPI DUP1 PUSH4 0x92E8990E EQ PUSH2 0x48B JUMPI DUP1 PUSH4 0x98807D84 EQ PUSH2 0x4B4 JUMPI DUP1 PUSH4 0x9F94E272 EQ PUSH2 0x4E7 JUMPI PUSH2 0x1F9 JUMP JUMPDEST DUP1 PUSH4 0x48CD4CB1 GT PUSH2 0x185 JUMPI DUP1 PUSH4 0x715018A6 GT PUSH2 0x154 JUMPI DUP1 PUSH4 0x715018A6 EQ PUSH2 0x406 JUMPI DUP1 PUSH4 0x817B1CD2 EQ PUSH2 0x41B JUMPI DUP1 PUSH4 0x8AE39CAC EQ PUSH2 0x430 JUMPI DUP1 PUSH4 0x8DA5CB5B EQ PUSH2 0x445 JUMPI PUSH2 0x1F9 JUMP JUMPDEST DUP1 PUSH4 0x48CD4CB1 EQ PUSH2 0x389 JUMPI DUP1 PUSH4 0x66FE9F8A EQ PUSH2 0x39E JUMPI DUP1 PUSH4 0x67A52793 EQ PUSH2 0x3B3 JUMPI DUP1 PUSH4 0x6D5E80F8 EQ PUSH2 0x3C8 JUMPI PUSH2 0x1F9 JUMP JUMPDEST DUP1 PUSH4 0x1B50AD09 GT PUSH2 0x1C1 JUMPI DUP1 PUSH4 0x1B50AD09 EQ PUSH2 0x2CC JUMPI DUP1 PUSH4 0x2740C197 EQ PUSH2 0x2F6 JUMPI DUP1 PUSH4 0x2E1A7D4D EQ PUSH2 0x326 JUMPI DUP1 PUSH4 0x3F138D4B EQ PUSH2 0x350 JUMPI PUSH2 0x1F9 JUMP JUMPDEST DUP1 PUSH4 0x1F8A976 EQ PUSH2 0x1FE JUMPI DUP1 PUSH4 0x75564DA EQ PUSH2 0x22A JUMPI DUP1 PUSH4 0xFB5A6B4 EQ PUSH2 0x254 JUMPI DUP1 PUSH4 0x1959A002 EQ PUSH2 0x27B JUMPI PUSH2 0x1F9 JUMP JUMPDEST CALLDATASIZE PUSH2 0x1F9 JUMPI STOP JUMPDEST PUSH1 0x0 DUP1 REVERT JUMPDEST CALLVALUE DUP1 ISZERO PUSH2 0x20A JUMPI PUSH1 0x0 DUP1 REVERT JUMPDEST POP PUSH2 0x228 PUSH1 0x4 DUP1 CALLDATASIZE SUB PUSH1 0x20 DUP2 LT ISZERO PUSH2 0x221 JUMPI PUSH1 0x0 DUP1 REVERT JUMPDEST POP CALLDATALOAD PUSH2 0x6DF JUMP JUMPDEST STOP JUMPDEST CALLVALUE DUP1 ISZERO PUSH2 0x236 JUMPI PUSH1 0x0 DUP1 REVERT JUMPDEST POP PUSH2 0x228 PUSH1 0x4 DUP1 CALLDATASIZE SUB PUSH1 0x20 DUP2 LT ISZERO PUSH2 0x24D JUMPI PUSH1 0x0 DUP1 REVERT JUMPDEST POP CALLDATALOAD PUSH2 0x772 JUMP JUMPDEST CALLVALUE DUP1 ISZERO PUSH2 0x260 JUMPI PUSH1 0x0 DUP1 REVERT JUMPDEST POP PUSH2 0x269 PUSH2 0x819 JUMP JUMPDEST PUSH1 0x40 DUP1 MLOAD SWAP2 DUP3 MSTORE MLOAD SWAP1 DUP2 SWAP1 SUB PUSH1 0x20 ADD SWAP1 RETURN JUMPDEST CALLVALUE DUP1 ISZERO PUSH2 0x287 JUMPI PUSH1 0x0 DUP1 REVERT JUMPDEST POP PUSH2 0x2AE PUSH1 0x4 DUP1 CALLDATASIZE SUB PUSH1 0x20 DUP2 LT ISZERO PUSH2 0x29E JUMPI PUSH1 0x0 DUP1 REVERT JUMPDEST POP CALLDATALOAD PUSH1 0x1 PUSH1 0x1 PUSH1 0xA0 SHL SUB AND PUSH2 0x81F JUMP JUMPDEST PUSH1 0x40 DUP1 MLOAD SWAP4 DUP5 MSTORE PUSH1 0x20 DUP5 ADD SWAP3 SWAP1 SWAP3 MSTORE DUP3 DUP3 ADD MSTORE MLOAD SWAP1 DUP2 SWAP1 SUB PUSH1 0x60 ADD SWAP1 RETURN JUMPDEST CALLVALUE DUP1 ISZERO PUSH2 0x2D8 JUMPI PUSH1 0x0 DUP1 REVERT JUMPDEST POP PUSH2 0x228 PUSH1 0x4 DUP1 CALLDATASIZE SUB PUSH1 0x20 DUP2 LT ISZERO PUSH2 0x2EF JUMPI PUSH1 0x0 DUP1 REVERT JUMPDEST POP CALLDATALOAD PUSH2 0x8DB JUMP JUMPDEST CALLVALUE DUP1 ISZERO PUSH2 0x302 JUMPI PUSH1 0x0 DUP1 REVERT JUMPDEST POP PUSH2 0x228 PUSH1 0x4 DUP1 CALLDATASIZE SUB PUSH1 0x40 DUP2 LT ISZERO PUSH2 0x319 JUMPI PUSH1 0x0 DUP1 REVERT JUMPDEST POP DUP1 CALLDATALOAD SWAP1 PUSH1 0x20 ADD CALLDATALOAD PUSH2 0x96E JUMP JUMPDEST CALLVALUE DUP1 ISZERO PUSH2 0x332 JUMPI PUSH1 0x0 DUP1 REVERT JUMPDEST POP PUSH2 0x228 PUSH1 0x4 DUP1 CALLDATASIZE SUB PUSH1 0x20 DUP2 LT ISZERO PUSH2 0x349 JUMPI PUSH1 0x0 DUP1 REVERT JUMPDEST POP CALLDATALOAD PUSH2 0xA0F JUMP JUMPDEST CALLVALUE DUP1 ISZERO PUSH2 0x35C JUMPI PUSH1 0x0 DUP1 REVERT JUMPDEST POP PUSH2 0x228 PUSH1 0x4 DUP1 CALLDATASIZE SUB PUSH1 0x40 DUP2 LT ISZERO PUSH2 0x373 JUMPI PUSH1 0x0 DUP1 REVERT JUMPDEST POP PUSH1 0x1 PUSH1 0x1 PUSH1 0xA0 SHL SUB DUP2 CALLDATALOAD AND SWAP1 PUSH1 0x20 ADD CALLDATALOAD PUSH2 0xDAF JUMP JUMPDEST CALLVALUE DUP1 ISZERO PUSH2 0x395 JUMPI PUSH1 0x0 DUP1 REVERT JUMPDEST POP PUSH2 0x269 PUSH2 0xF0C JUMP JUMPDEST CALLVALUE DUP1 ISZERO PUSH2 0x3AA JUMPI PUSH1 0x0 DUP1 REVERT JUMPDEST POP PUSH2 0x269 PUSH2 0xF12 JUMP JUMPDEST CALLVALUE DUP1 ISZERO PUSH2 0x3BF JUMPI PUSH1 0x0 DUP1 REVERT JUMPDEST POP PUSH2 0x269 PUSH2 0xF18 JUMP JUMPDEST PUSH2 0x228 PUSH1 0x4 DUP1 CALLDATASIZE SUB PUSH1 0xA0 DUP2 LT ISZERO PUSH2 0x3DE JUMPI PUSH1 0x0 DUP1 REVERT JUMPDEST POP PUSH1 0x1 PUSH1 0x1 PUSH1 0xA0 SHL SUB DUP2 CALLDATALOAD AND SWAP1 PUSH1 0x20 DUP2 ADD CALLDATALOAD SWAP1 PUSH1 0x40 DUP2 ADD CALLDATALOAD SWAP1 PUSH1 0x60 DUP2 ADD CALLDATALOAD SWAP1 PUSH1 0x80 ADD CALLDATALOAD PUSH2 0xF1E JUMP JUMPDEST CALLVALUE DUP1 ISZERO PUSH2 0x412 JUMPI PUSH1 0x0 DUP1 REVERT JUMPDEST POP PUSH2 0x228 PUSH2 0x1145 JUMP JUMPDEST CALLVALUE DUP1 ISZERO PUSH2 0x427 JUMPI PUSH1 0x0 DUP1 REVERT JUMPDEST POP PUSH2 0x269 PUSH2 0x11E7 JUMP JUMPDEST CALLVALUE DUP1 ISZERO PUSH2 0x43C JUMPI PUSH1 0x0 DUP1 REVERT JUMPDEST POP PUSH2 0x269 PUSH2 0x11ED JUMP JUMPDEST CALLVALUE DUP1 ISZERO PUSH2 0x451 JUMPI PUSH1 0x0 DUP1 REVERT JUMPDEST POP PUSH2 0x45A PUSH2 0x11F3 JUMP JUMPDEST PUSH1 0x40 DUP1 MLOAD PUSH1 0x1 PUSH1 0x1 PUSH1 0xA0 SHL SUB SWAP1 SWAP3 AND DUP3 MSTORE MLOAD SWAP1 DUP2 SWAP1 SUB PUSH1 0x20 ADD SWAP1 RETURN JUMPDEST CALLVALUE DUP1 ISZERO PUSH2 0x482 JUMPI PUSH1 0x0 DUP1 REVERT JUMPDEST POP PUSH2 0x269 PUSH2 0x1202 JUMP JUMPDEST CALLVALUE DUP1 ISZERO PUSH2 0x497 JUMPI PUSH1 0x0 DUP1 REVERT JUMPDEST POP PUSH2 0x4A0 PUSH2 0x1208 JUMP JUMPDEST PUSH1 0x40 DUP1 MLOAD SWAP2 ISZERO ISZERO DUP3 MSTORE MLOAD SWAP1 DUP2 SWAP1 SUB PUSH1 0x20 ADD SWAP1 RETURN JUMPDEST CALLVALUE DUP1 ISZERO PUSH2 0x4C0 JUMPI PUSH1 0x0 DUP1 REVERT JUMPDEST POP PUSH2 0x4A0 PUSH1 0x4 DUP1 CALLDATASIZE SUB PUSH1 0x20 DUP2 LT ISZERO PUSH2 0x4D7 JUMPI PUSH1 0x0 DUP1 REVERT JUMPDEST POP CALLDATALOAD PUSH1 0x1 PUSH1 0x1 PUSH1 0xA0 SHL SUB AND PUSH2 0x1211 JUMP JUMPDEST CALLVALUE DUP1 ISZERO PUSH2 0x4F3 JUMPI PUSH1 0x0 DUP1 REVERT JUMPDEST POP PUSH2 0x269 PUSH2 0x1226 JUMP JUMPDEST CALLVALUE DUP1 ISZERO PUSH2 0x508 JUMPI PUSH1 0x0 DUP1 REVERT JUMPDEST POP PUSH2 0x228 PUSH1 0x4 DUP1 CALLDATASIZE SUB PUSH1 0x40 DUP2 LT ISZERO PUSH2 0x51F JUMPI PUSH1 0x0 DUP1 REVERT JUMPDEST POP DUP1 CALLDATALOAD ISZERO ISZERO SWAP1 PUSH1 0x20 ADD CALLDATALOAD PUSH2 0x12A2 JUMP JUMPDEST CALLVALUE DUP1 ISZERO PUSH2 0x53A JUMPI PUSH1 0x0 DUP1 REVERT JUMPDEST POP PUSH2 0x269 PUSH2 0x13F2 JUMP JUMPDEST CALLVALUE DUP1 ISZERO PUSH2 0x54F JUMPI PUSH1 0x0 DUP1 REVERT JUMPDEST POP PUSH2 0x576 PUSH1 0x4 DUP1 CALLDATASIZE SUB PUSH1 0x20 DUP2 LT ISZERO PUSH2 0x566 JUMPI PUSH1 0x0 DUP1 REVERT JUMPDEST POP CALLDATALOAD PUSH1 0x1 PUSH1 0x1 PUSH1 0xA0 SHL SUB AND PUSH2 0x13F8 JUMP JUMPDEST PUSH1 0x40 DUP1 MLOAD SWAP5 DUP6 MSTORE PUSH1 0x20 DUP6 ADD SWAP4 SWAP1 SWAP4 MSTORE DUP4 DUP4 ADD SWAP2 SWAP1 SWAP2 MSTORE PUSH1 0x60 DUP4 ADD MSTORE MLOAD SWAP1 DUP2 SWAP1 SUB PUSH1 0x80 ADD SWAP1 RETURN JUMPDEST CALLVALUE DUP1 ISZERO PUSH2 0x5A8 JUMPI PUSH1 0x0 DUP1 REVERT JUMPDEST POP PUSH2 0x576 PUSH1 0x4 DUP1 CALLDATASIZE SUB PUSH1 0x40 DUP2 LT ISZERO PUSH2 0x5BF JUMPI PUSH1 0x0 DUP1 REVERT JUMPDEST POP PUSH1 0x1 PUSH1 0x1 PUSH1 0xA0 SHL SUB DUP2 CALLDATALOAD AND SWAP1 PUSH1 0x20 ADD CALLDATALOAD PUSH2 0x141F JUMP JUMPDEST CALLVALUE DUP1 ISZERO PUSH2 0x5E1 JUMPI PUSH1 0x0 DUP1 REVERT JUMPDEST POP PUSH2 0x228 PUSH2 0x1462 JUMP JUMPDEST CALLVALUE DUP1 ISZERO PUSH2 0x5F6 JUMPI PUSH1 0x0 DUP1 REVERT JUMPDEST POP PUSH2 0x269 PUSH2 0x1618 JUMP JUMPDEST CALLVALUE DUP1 ISZERO PUSH2 0x60B JUMPI PUSH1 0x0 DUP1 REVERT JUMPDEST POP PUSH2 0x269 PUSH2 0x161E JUMP JUMPDEST PUSH2 0x228 PUSH2 0x1624 JUMP JUMPDEST CALLVALUE DUP1 ISZERO PUSH2 0x628 JUMPI PUSH1 0x0 DUP1 REVERT JUMPDEST POP PUSH2 0x269 PUSH2 0x19FC JUMP JUMPDEST CALLVALUE DUP1 ISZERO PUSH2 0x63D JUMPI PUSH1 0x0 DUP1 REVERT JUMPDEST POP PUSH2 0x228 PUSH1 0x4 DUP1 CALLDATASIZE SUB PUSH1 0x20 DUP2 LT ISZERO PUSH2 0x654 JUMPI PUSH1 0x0 DUP1 REVERT JUMPDEST POP CALLDATALOAD PUSH1 0x1 PUSH1 0x1 PUSH1 0xA0 SHL SUB AND PUSH2 0x1A02 JUMP JUMPDEST CALLVALUE DUP1 ISZERO PUSH2 0x670 JUMPI PUSH1 0x0 DUP1 REVERT JUMPDEST POP PUSH2 0x269 PUSH1 0x4 DUP1 CALLDATASIZE SUB PUSH1 0x20 DUP2 LT ISZERO PUSH2 0x687 JUMPI PUSH1 0x0 DUP1 REVERT JUMPDEST POP CALLDATALOAD PUSH1 0x1 PUSH1 0x1 PUSH1 0xA0 SHL SUB AND PUSH2 0x1AFA JUMP JUMPDEST CALLVALUE DUP1 ISZERO PUSH2 0x6A3 JUMPI PUSH1 0x0 DUP1 REVERT JUMPDEST POP PUSH2 0x45A PUSH2 0x1C40 JUMP JUMPDEST CALLVALUE DUP1 ISZERO PUSH2 0x6B8 JUMPI PUSH1 0x0 DUP1 REVERT JUMPDEST POP PUSH2 0x228 PUSH1 0x4 DUP1 CALLDATASIZE SUB PUSH1 0x20 DUP2 LT ISZERO PUSH2 0x6CF JUMPI PUSH1 0x0 DUP1 REVERT JUMPDEST POP CALLDATALOAD PUSH1 0x1 PUSH1 0x1 PUSH1 0xA0 SHL SUB AND PUSH2 0x1C4F JUMP JUMPDEST PUSH2 0x6E7 PUSH2 0x1CC9 JUMP JUMPDEST PUSH1 0x0 SLOAD PUSH1 0x1 PUSH1 0x1 PUSH1 0xA0 SHL SUB SWAP1 DUP2 AND SWAP2 AND EQ PUSH2 0x737 JUMPI PUSH1 0x40 DUP1 MLOAD PUSH3 0x461BCD PUSH1 0xE5 SHL DUP2 MSTORE PUSH1 0x20 PUSH1 0x4 DUP3 ADD DUP2 SWAP1 MSTORE PUSH1 0x24 DUP3 ADD MSTORE PUSH1 0x0 DUP1 MLOAD PUSH1 0x20 PUSH2 0x23EE DUP4 CODECOPY DUP2 MLOAD SWAP2 MSTORE PUSH1 0x44 DUP3 ADD MSTORE SWAP1 MLOAD SWAP1 DUP2 SWAP1 SUB PUSH1 0x64 ADD SWAP1 REVERT JUMPDEST PUSH1 0x3 DUP2 SWAP1 SSTORE PUSH1 0x40 DUP1 MLOAD DUP3 DUP2 MSTORE SWAP1 MLOAD PUSH32 0x5ED0FFA545A9EAE0EDD36B74378D16454CF385281383C7632AD5B2EBF3AB2B92 SWAP2 DUP2 SWAP1 SUB PUSH1 0x20 ADD SWAP1 LOG1 POP JUMP JUMPDEST PUSH2 0x77A PUSH2 0x1CC9 JUMP JUMPDEST PUSH1 0x0 SLOAD PUSH1 0x1 PUSH1 0x1 PUSH1 0xA0 SHL SUB SWAP1 DUP2 AND SWAP2 AND EQ PUSH2 0x7CA JUMPI PUSH1 0x40 DUP1 MLOAD PUSH3 0x461BCD PUSH1 0xE5 SHL DUP2 MSTORE PUSH1 0x20 PUSH1 0x4 DUP3 ADD DUP2 SWAP1 MSTORE PUSH1 0x24 DUP3 ADD MSTORE PUSH1 0x0 DUP1 MLOAD PUSH1 0x20 PUSH2 0x23EE DUP4 CODECOPY DUP2 MLOAD SWAP2 MSTORE PUSH1 0x44 DUP3 ADD MSTORE SWAP1 MLOAD SWAP1 DUP2 SWAP1 SUB PUSH1 0x64 ADD SWAP1 REVERT JUMPDEST PUSH1 0x2 PUSH1 0x1 SLOAD EQ ISZERO PUSH2 0x810 JUMPI PUSH1 0x40 DUP1 MLOAD PUSH3 0x461BCD PUSH1 0xE5 SHL DUP2 MSTORE PUSH1 0x20 PUSH1 0x4 DUP3 ADD MSTORE PUSH1 0x1F PUSH1 0x24 DUP3 ADD MSTORE PUSH1 0x0 DUP1 MLOAD PUSH1 0x20 PUSH2 0x23A8 DUP4 CODECOPY DUP2 MLOAD SWAP2 MSTORE PUSH1 0x44 DUP3 ADD MSTORE SWAP1 MLOAD SWAP1 DUP2 SWAP1 SUB PUSH1 0x64 ADD SWAP1 REVERT JUMPDEST PUSH1 0x4 SSTORE PUSH1 0x1 DUP1 SSTORE JUMP JUMPDEST PUSH1 0x2 SLOAD DUP2 JUMP JUMPDEST PUSH1 0x1 PUSH1 0x1 PUSH1 0xA0 SHL SUB DUP2 AND PUSH1 0x0 SWAP1 DUP2 MSTORE PUSH1 0x10 PUSH1 0x20 MSTORE PUSH1 0x40 DUP2 KECCAK256 DUP2 SWAP1 DUP2 SWAP1 DUP2 JUMPDEST DUP2 SLOAD DUP2 LT ISZERO PUSH2 0x8D2 JUMPI PUSH1 0x0 DUP3 DUP3 DUP2 SLOAD DUP2 LT PUSH2 0x854 JUMPI INVALID JUMPDEST SWAP1 PUSH1 0x0 MSTORE PUSH1 0x20 PUSH1 0x0 KECCAK256 SWAP1 PUSH1 0x4 MUL ADD SWAP1 POP DUP1 PUSH1 0x0 ADD SLOAD PUSH1 0x0 EQ ISZERO PUSH2 0x877 JUMPI POP PUSH2 0x8CA JUMP JUMPDEST DUP1 SLOAD PUSH2 0x88A SWAP1 DUP8 SWAP1 PUSH4 0xFFFFFFFF PUSH2 0x1CCD AND JUMP JUMPDEST SWAP6 POP DUP1 PUSH1 0x2 ADD SLOAD TIMESTAMP GT ISZERO PUSH2 0x8B2 JUMPI DUP1 SLOAD PUSH2 0x8AB SWAP1 DUP7 SWAP1 PUSH4 0xFFFFFFFF PUSH2 0x1CCD AND JUMP JUMPDEST SWAP5 POP PUSH2 0x8C8 JUMP JUMPDEST DUP1 SLOAD PUSH2 0x8C5 SWAP1 DUP6 SWAP1 PUSH4 0xFFFFFFFF PUSH2 0x1CCD AND JUMP JUMPDEST SWAP4 POP JUMPDEST POP JUMPDEST PUSH1 0x1 ADD PUSH2 0x83D JUMP JUMPDEST POP POP SWAP2 SWAP4 SWAP1 SWAP3 POP JUMP JUMPDEST PUSH2 0x8E3 PUSH2 0x1CC9 JUMP JUMPDEST PUSH1 0x0 SLOAD PUSH1 0x1 PUSH1 0x1 PUSH1 0xA0 SHL SUB SWAP1 DUP2 AND SWAP2 AND EQ PUSH2 0x933 JUMPI PUSH1 0x40 DUP1 MLOAD PUSH3 0x461BCD PUSH1 0xE5 SHL DUP2 MSTORE PUSH1 0x20 PUSH1 0x4 DUP3 ADD DUP2 SWAP1 MSTORE PUSH1 0x24 DUP3 ADD MSTORE PUSH1 0x0 DUP1 MLOAD PUSH1 0x20 PUSH2 0x23EE DUP4 CODECOPY DUP2 MLOAD SWAP2 MSTORE PUSH1 0x44 DUP3 ADD MSTORE SWAP1 MLOAD SWAP1 DUP2 SWAP1 SUB PUSH1 0x64 ADD SWAP1 REVERT JUMPDEST PUSH1 0x2 DUP2 SWAP1 SSTORE PUSH1 0x40 DUP1 MLOAD DUP3 DUP2 MSTORE SWAP1 MLOAD PUSH32 0x91ABCC2D6823E3A3F11D31B208DD3065D2C6A791F1C7C9FE96A42CE12897EAC5 SWAP2 DUP2 SWAP1 SUB PUSH1 0x20 ADD SWAP1 LOG1 POP JUMP JUMPDEST PUSH2 0x976 PUSH2 0x1CC9 JUMP JUMPDEST PUSH1 0x0 SLOAD PUSH1 0x1 PUSH1 0x1 PUSH1 0xA0 SHL SUB SWAP1 DUP2 AND SWAP2 AND EQ PUSH2 0x9C6 JUMPI PUSH1 0x40 DUP1 MLOAD PUSH3 0x461BCD PUSH1 0xE5 SHL DUP2 MSTORE PUSH1 0x20 PUSH1 0x4 DUP3 ADD DUP2 SWAP1 MSTORE PUSH1 0x24 DUP3 ADD MSTORE PUSH1 0x0 DUP1 MLOAD PUSH1 0x20 PUSH2 0x23EE DUP4 CODECOPY DUP2 MLOAD SWAP2 MSTORE PUSH1 0x44 DUP3 ADD MSTORE SWAP1 MLOAD SWAP1 DUP2 SWAP1 SUB PUSH1 0x64 ADD SWAP1 REVERT JUMPDEST PUSH1 0x6 DUP3 SWAP1 SSTORE PUSH1 0x7 DUP2 SWAP1 SSTORE PUSH1 0x40 DUP1 MLOAD DUP4 DUP2 MSTORE PUSH1 0x20 DUP2 ADD DUP4 SWAP1 MSTORE DUP2 MLOAD PUSH32 0x528D9479E9F9889A87A3C30C7F7BA537E5E59C4C85A37733B16E57C62DF61302 SWAP3 SWAP2 DUP2 SWAP1 SUB SWAP1 SWAP2 ADD SWAP1 LOG1 POP POP JUMP JUMPDEST PUSH1 0x2 PUSH1 0x1 SLOAD EQ ISZERO PUSH2 0xA55 JUMPI PUSH1 0x40 DUP1 MLOAD PUSH3 0x461BCD PUSH1 0xE5 SHL DUP2 MSTORE PUSH1 0x20 PUSH1 0x4 DUP3 ADD MSTORE PUSH1 0x1F PUSH1 0x24 DUP3 ADD MSTORE PUSH1 0x0 DUP1 MLOAD PUSH1 0x20 PUSH2 0x23A8 DUP4 CODECOPY DUP2 MLOAD SWAP2 MSTORE PUSH1 0x44 DUP3 ADD MSTORE SWAP1 MLOAD SWAP1 DUP2 SWAP1 SUB PUSH1 0x64 ADD SWAP1 REVERT JUMPDEST PUSH1 0x2 PUSH1 0x1 SSTORE DUP1 PUSH2 0xAAC JUMPI PUSH1 0x40 DUP1 MLOAD PUSH3 0x461BCD PUSH1 0xE5 SHL DUP2 MSTORE PUSH1 0x20 PUSH1 0x4 DUP3 ADD MSTORE PUSH1 0x1F PUSH1 0x24 DUP3 ADD MSTORE PUSH32 0x416D6F756E742073686F756C642062652067726561746F72207468616E203000 PUSH1 0x44 DUP3 ADD MSTORE SWAP1 MLOAD SWAP1 DUP2 SWAP1 SUB PUSH1 0x64 ADD SWAP1 REVERT JUMPDEST PUSH2 0xAB4 PUSH2 0x1D22 JUMP JUMPDEST CALLER PUSH1 0x0 SWAP1 DUP2 MSTORE PUSH1 0x11 PUSH1 0x20 SWAP1 DUP2 MSTORE PUSH1 0x40 DUP1 DUP4 KECCAK256 PUSH1 0x10 SWAP1 SWAP3 MSTORE DUP3 KECCAK256 SWAP1 SWAP2 DUP4 DUP2 JUMPDEST DUP4 SLOAD DUP2 LT ISZERO PUSH2 0xBE8 JUMPI PUSH1 0x0 DUP5 DUP3 DUP2 SLOAD DUP2 LT PUSH2 0xAE9 JUMPI INVALID JUMPDEST SWAP1 PUSH1 0x0 MSTORE PUSH1 0x20 PUSH1 0x0 KECCAK256 SWAP1 PUSH1 0x4 MUL ADD SWAP1 POP DUP1 PUSH1 0x0 ADD SLOAD PUSH1 0x0 EQ ISZERO PUSH2 0xB0C JUMPI POP PUSH2 0xBE0 JUMP JUMPDEST DUP3 PUSH2 0xB17 JUMPI POP PUSH2 0xBE8 JUMP JUMPDEST PUSH1 0x0 PUSH2 0xB58 DUP3 PUSH1 0x3 ADD SLOAD PUSH2 0xB4C PUSH1 0xB SLOAD PUSH2 0xB40 PUSH1 0x4 SLOAD DUP8 PUSH1 0x0 ADD SLOAD PUSH2 0x1E08 SWAP1 SWAP2 SWAP1 PUSH4 0xFFFFFFFF AND JUMP JUMPDEST SWAP1 PUSH4 0xFFFFFFFF PUSH2 0x1E6B AND JUMP JUMPDEST SWAP1 PUSH4 0xFFFFFFFF PUSH2 0x1ED2 AND JUMP JUMPDEST SWAP1 POP PUSH2 0xB6A DUP6 DUP3 PUSH4 0xFFFFFFFF PUSH2 0x1CCD AND JUMP JUMPDEST SWAP5 POP TIMESTAMP DUP3 PUSH1 0x2 ADD SLOAD LT ISZERO PUSH2 0xBB8 JUMPI DUP2 SLOAD DUP5 LT ISZERO PUSH2 0xB9E JUMPI DUP2 SLOAD PUSH2 0xB93 SWAP1 DUP6 PUSH4 0xFFFFFFFF PUSH2 0x1ED2 AND JUMP JUMPDEST DUP3 SSTORE PUSH1 0x0 SWAP4 POP PUSH2 0xBB8 JUMP JUMPDEST DUP2 SLOAD PUSH2 0xBB1 SWAP1 DUP6 SWAP1 PUSH4 0xFFFFFFFF PUSH2 0x1ED2 AND JUMP JUMPDEST PUSH1 0x0 DUP4 SSTORE SWAP4 POP JUMPDEST PUSH1 0xB SLOAD PUSH1 0x4 SLOAD DUP4 SLOAD PUSH2 0xBD5 SWAP3 SWAP2 PUSH2 0xB40 SWAP2 SWAP1 PUSH4 0xFFFFFFFF PUSH2 0x1E08 AND JUMP JUMPDEST DUP3 PUSH1 0x3 ADD DUP2 SWAP1 SSTORE POP POP POP JUMPDEST PUSH1 0x1 ADD PUSH2 0xAD2 JUMP JUMPDEST POP DUP2 ISZERO PUSH2 0xC7E JUMPI DUP2 PUSH2 0xBF8 PUSH2 0x1226 JUMP JUMPDEST LT ISZERO PUSH2 0xC48 JUMPI PUSH1 0x40 DUP1 MLOAD PUSH3 0x461BCD PUSH1 0xE5 SHL DUP2 MSTORE PUSH1 0x20 PUSH1 0x4 DUP3 ADD MSTORE PUSH1 0x1A PUSH1 0x24 DUP3 ADD MSTORE PUSH26 0x496E73756666696369656E742072657761726420746F6B656E73 PUSH1 0x30 SHL PUSH1 0x44 DUP3 ADD MSTORE SWAP1 MLOAD SWAP1 DUP2 SWAP1 SUB PUSH1 0x64 ADD SWAP1 REVERT JUMPDEST PUSH2 0xC52 CALLER DUP4 PUSH2 0x1F22 JUMP JUMPDEST POP DUP2 PUSH1 0xD SLOAD GT ISZERO PUSH2 0xC78 JUMPI PUSH1 0xD SLOAD PUSH2 0xC70 SWAP1 DUP4 PUSH4 0xFFFFFFFF PUSH2 0x1ED2 AND JUMP JUMPDEST PUSH1 0xD SSTORE PUSH2 0xC7E JUMP JUMPDEST PUSH1 0x0 PUSH1 0xD SSTORE JUMPDEST PUSH1 0x0 PUSH2 0xC90 DUP7 DUP4 PUSH4 0xFFFFFFFF PUSH2 0x1ED2 AND JUMP JUMPDEST SWAP1 POP DUP1 ISZERO PUSH2 0xD6D JUMPI PUSH1 0x7 SLOAD ISZERO PUSH2 0xD14 JUMPI PUSH1 0x0 PUSH2 0xCBD PUSH2 0x2710 PUSH2 0xB40 PUSH1 0x7 SLOAD DUP6 PUSH2 0x1E08 SWAP1 SWAP2 SWAP1 PUSH4 0xFFFFFFFF AND JUMP JUMPDEST SWAP1 POP PUSH2 0xCC7 PUSH2 0x11F3 JUMP JUMPDEST PUSH1 0x1 PUSH1 0x1 PUSH1 0xA0 SHL SUB AND PUSH2 0x8FC DUP3 SWAP1 DUP2 ISZERO MUL SWAP1 PUSH1 0x40 MLOAD PUSH1 0x0 PUSH1 0x40 MLOAD DUP1 DUP4 SUB DUP2 DUP6 DUP9 DUP9 CALL SWAP4 POP POP POP POP ISZERO DUP1 ISZERO PUSH2 0xCFF JUMPI RETURNDATASIZE PUSH1 0x0 DUP1 RETURNDATACOPY RETURNDATASIZE PUSH1 0x0 REVERT JUMPDEST POP PUSH2 0xD10 DUP3 DUP3 PUSH4 0xFFFFFFFF PUSH2 0x1ED2 AND JUMP JUMPDEST SWAP2 POP POP JUMPDEST DUP5 SLOAD PUSH2 0xD26 SWAP1 DUP3 PUSH4 0xFFFFFFFF PUSH2 0x1ED2 AND JUMP JUMPDEST DUP6 SSTORE PUSH1 0x40 MLOAD CALLER SWAP1 DUP3 ISZERO PUSH2 0x8FC MUL SWAP1 DUP4 SWAP1 PUSH1 0x0 DUP2 DUP2 DUP2 DUP6 DUP9 DUP9 CALL SWAP4 POP POP POP POP ISZERO DUP1 ISZERO PUSH2 0xD55 JUMPI RETURNDATASIZE PUSH1 0x0 DUP1 RETURNDATACOPY RETURNDATASIZE PUSH1 0x0 REVERT JUMPDEST POP PUSH1 0xC SLOAD PUSH2 0xD69 SWAP1 DUP3 PUSH4 0xFFFFFFFF PUSH2 0x1ED2 AND JUMP JUMPDEST PUSH1 0xC SSTORE JUMPDEST PUSH1 0x40 DUP1 MLOAD DUP8 DUP2 MSTORE SWAP1 MLOAD CALLER SWAP2 PUSH32 0x884EDAD9CE6FA2440D8A54CC123490EB96D2768479D49FF9C7366125A9424364 SWAP2 SWAP1 DUP2 SWAP1 SUB PUSH1 0x20 ADD SWAP1 LOG2 POP POP PUSH1 0x1 DUP1 SSTORE POP POP POP POP JUMP JUMPDEST PUSH2 0xDB7 PUSH2 0x1CC9 JUMP JUMPDEST PUSH1 0x0 SLOAD PUSH1 0x1 PUSH1 0x1 PUSH1 0xA0 SHL SUB SWAP1 DUP2 AND SWAP2 AND EQ PUSH2 0xE07 JUMPI PUSH1 0x40 DUP1 MLOAD PUSH3 0x461BCD PUSH1 0xE5 SHL DUP2 MSTORE PUSH1 0x20 PUSH1 0x4 DUP3 ADD DUP2 SWAP1 MSTORE PUSH1 0x24 DUP3 ADD MSTORE PUSH1 0x0 DUP1 MLOAD PUSH1 0x20 PUSH2 0x23EE DUP4 CODECOPY DUP2 MLOAD SWAP2 MSTORE PUSH1 0x44 DUP3 ADD MSTORE SWAP1 MLOAD SWAP1 DUP2 SWAP1 SUB PUSH1 0x64 ADD SWAP1 REVERT JUMPDEST PUSH1 0x1 PUSH1 0x1 PUSH1 0xA0 SHL SUB DUP3 AND PUSH2 0xE48 JUMPI PUSH1 0x40 MLOAD CALLER SWAP1 DUP3 ISZERO PUSH2 0x8FC MUL SWAP1 DUP4 SWAP1 PUSH1 0x0 DUP2 DUP2 DUP2 DUP6 DUP9 DUP9 CALL SWAP4 POP POP POP POP ISZERO DUP1 ISZERO PUSH2 0xE42 JUMPI RETURNDATASIZE PUSH1 0x0 DUP1 RETURNDATACOPY RETURNDATASIZE PUSH1 0x0 REVERT JUMPDEST POP PUSH2 0xEC4 JUMP JUMPDEST PUSH1 0x40 DUP1 MLOAD PUSH4 0xA9059CBB PUSH1 0xE0 SHL DUP2 MSTORE CALLER PUSH1 0x4 DUP3 ADD MSTORE PUSH1 0x24 DUP2 ADD DUP4 SWAP1 MSTORE SWAP1 MLOAD PUSH1 0x1 PUSH1 0x1 PUSH1 0xA0 SHL SUB DUP5 AND SWAP2 PUSH4 0xA9059CBB SWAP2 PUSH1 0x44 DUP1 DUP4 ADD SWAP3 PUSH1 0x20 SWAP3 SWAP2 SWAP1 DUP3 SWAP1 SUB ADD DUP2 PUSH1 0x0 DUP8 DUP1 EXTCODESIZE ISZERO DUP1 ISZERO PUSH2 0xE97 JUMPI PUSH1 0x0 DUP1 REVERT JUMPDEST POP GAS CALL ISZERO DUP1 ISZERO PUSH2 0xEAB JUMPI RETURNDATASIZE PUSH1 0x0 DUP1 RETURNDATACOPY RETURNDATASIZE PUSH1 0x0 REVERT JUMPDEST POP POP POP POP PUSH1 0x40 MLOAD RETURNDATASIZE PUSH1 0x20 DUP2 LT ISZERO PUSH2 0xEC1 JUMPI PUSH1 0x0 DUP1 REVERT JUMPDEST POP POP JUMPDEST PUSH1 0x40 DUP1 MLOAD PUSH1 0x1 PUSH1 0x1 PUSH1 0xA0 SHL SUB DUP5 AND DUP2 MSTORE PUSH1 0x20 DUP2 ADD DUP4 SWAP1 MSTORE DUP2 MLOAD PUSH32 0x74F5DCD55C394CB1C6D3B9DA22C2464BCC46C38CC3865BD629ED75823249B40B SWAP3 SWAP2 DUP2 SWAP1 SUB SWAP1 SWAP2 ADD SWAP1 LOG1 POP POP JUMP JUMPDEST PUSH1 0xA SLOAD DUP2 JUMP JUMPDEST PUSH1 0x9 SLOAD DUP2 JUMP JUMPDEST PUSH1 0x6 SLOAD DUP2 JUMP JUMPDEST PUSH1 0x2 PUSH1 0x1 SLOAD EQ ISZERO PUSH2 0xF64 JUMPI PUSH1 0x40 DUP1 MLOAD PUSH3 0x461BCD PUSH1 0xE5 SHL DUP2 MSTORE PUSH1 0x20 PUSH1 0x4 DUP3 ADD MSTORE PUSH1 0x1F PUSH1 0x24 DUP3 ADD MSTORE PUSH1 0x0 DUP1 MLOAD PUSH1 0x20 PUSH2 0x23A8 DUP4 CODECOPY DUP2 MLOAD SWAP2 MSTORE PUSH1 0x44 DUP3 ADD MSTORE SWAP1 MLOAD SWAP1 DUP2 SWAP1 SUB PUSH1 0x64 ADD SWAP1 REVERT JUMPDEST PUSH1 0x2 PUSH1 0x1 SSTORE PUSH2 0xF71 PUSH2 0x1CC9 JUMP JUMPDEST PUSH1 0x0 SLOAD PUSH1 0x1 PUSH1 0x1 PUSH1 0xA0 SHL SUB SWAP1 DUP2 AND SWAP2 AND EQ PUSH2 0xFC1 JUMPI PUSH1 0x40 DUP1 MLOAD PUSH3 0x461BCD PUSH1 0xE5 SHL DUP2 MSTORE PUSH1 0x20 PUSH1 0x4 DUP3 ADD DUP2 SWAP1 MSTORE PUSH1 0x24 DUP3 ADD MSTORE PUSH1 0x0 DUP1 MLOAD PUSH1 0x20 PUSH2 0x23EE DUP4 CODECOPY DUP2 MLOAD SWAP2 MSTORE PUSH1 0x44 DUP3 ADD MSTORE SWAP1 MLOAD SWAP1 DUP2 SWAP1 SUB PUSH1 0x64 ADD SWAP1 REVERT JUMPDEST PUSH1 0x0 DUP5 GT PUSH2 0x1016 JUMPI PUSH1 0x40 DUP1 MLOAD PUSH3 0x461BCD PUSH1 0xE5 SHL DUP2 MSTORE PUSH1 0x20 PUSH1 0x4 DUP3 ADD MSTORE PUSH1 0x1F PUSH1 0x24 DUP3 ADD MSTORE PUSH32 0x416D6F756E742073686F756C642062652067726561746F72207468616E203000 PUSH1 0x44 DUP3 ADD MSTORE SWAP1 MLOAD SWAP1 DUP2 SWAP1 SUB PUSH1 0x64 ADD SWAP1 REVERT JUMPDEST PUSH1 0x1 PUSH1 0x1 PUSH1 0xA0 SHL SUB DUP6 AND PUSH1 0x0 SWAP1 DUP2 MSTORE PUSH1 0x11 PUSH1 0x20 MSTORE PUSH1 0x40 SWAP1 KECCAK256 DUP5 ISZERO PUSH2 0x1079 JUMPI DUP1 SLOAD PUSH2 0x1046 SWAP1 DUP7 PUSH4 0xFFFFFFFF PUSH2 0x1CCD AND JUMP JUMPDEST DUP2 SSTORE PUSH1 0x1 DUP1 DUP3 ADD SLOAD PUSH2 0x105D SWAP2 PUSH4 0xFFFFFFFF PUSH2 0x1CCD AND JUMP JUMPDEST PUSH1 0x1 DUP3 ADD SSTORE PUSH1 0xC SLOAD PUSH2 0x1075 SWAP1 DUP7 PUSH4 0xFFFFFFFF PUSH2 0x1CCD AND JUMP JUMPDEST PUSH1 0xC SSTORE JUMPDEST PUSH2 0x1086 DUP7 DUP7 DUP7 DUP7 DUP7 PUSH2 0x20BF JUMP JUMPDEST PUSH1 0x1 PUSH1 0x1 PUSH1 0xA0 SHL SUB DUP7 AND PUSH1 0x0 SWAP1 DUP2 MSTORE PUSH1 0x12 PUSH1 0x20 MSTORE PUSH1 0x40 SWAP1 KECCAK256 SLOAD PUSH1 0xFF AND PUSH2 0x10E2 JUMPI PUSH1 0x1 PUSH1 0x1 PUSH1 0xA0 SHL SUB DUP7 AND PUSH1 0x0 SWAP1 DUP2 MSTORE PUSH1 0x12 PUSH1 0x20 MSTORE PUSH1 0x40 SWAP1 KECCAK256 DUP1 SLOAD PUSH1 0xFF NOT AND PUSH1 0x1 SWAP1 DUP2 OR SWAP1 SWAP2 SSTORE PUSH1 0xF SLOAD PUSH2 0x10DE SWAP2 PUSH4 0xFFFFFFFF PUSH2 0x1CCD AND JUMP JUMPDEST PUSH1 0xF SSTORE JUMPDEST PUSH1 0x40 DUP1 MLOAD PUSH1 0x1 PUSH1 0x1 PUSH1 0xA0 SHL SUB DUP9 AND DUP2 MSTORE PUSH1 0x20 DUP2 ADD DUP8 SWAP1 MSTORE DUP1 DUP3 ADD DUP7 SWAP1 MSTORE PUSH1 0x60 DUP2 ADD DUP6 SWAP1 MSTORE PUSH1 0x80 DUP2 ADD DUP5 SWAP1 MSTORE SWAP1 MLOAD PUSH32 0xC890600FCAA3D889EB011BB8A5418C4878658570B27143BA7D72475902B28D71 SWAP2 DUP2 SWAP1 SUB PUSH1 0xA0 ADD SWAP1 LOG1 POP POP PUSH1 0x1 DUP1 SSTORE POP POP POP POP JUMP JUMPDEST PUSH2 0x114D PUSH2 0x1CC9 JUMP JUMPDEST PUSH1 0x0 SLOAD PUSH1 0x1 PUSH1 0x1 PUSH1 0xA0 SHL SUB SWAP1 DUP2 AND SWAP2 AND EQ PUSH2 0x119D JUMPI PUSH1 0x40 DUP1 MLOAD PUSH3 0x461BCD PUSH1 0xE5 SHL DUP2 MSTORE PUSH1 0x20 PUSH1 0x4 DUP3 ADD DUP2 SWAP1 MSTORE PUSH1 0x24 DUP3 ADD MSTORE PUSH1 0x0 DUP1 MLOAD PUSH1 0x20 PUSH2 0x23EE DUP4 CODECOPY DUP2 MLOAD SWAP2 MSTORE PUSH1 0x44 DUP3 ADD MSTORE SWAP1 MLOAD SWAP1 DUP2 SWAP1 SUB PUSH1 0x64 ADD SWAP1 REVERT JUMPDEST PUSH1 0x0 DUP1 SLOAD PUSH1 0x40 MLOAD PUSH1 0x1 PUSH1 0x1 PUSH1 0xA0 SHL SUB SWAP1 SWAP2 AND SWAP1 PUSH32 0x8BE0079C531659141344CD1FD0A4F28419497F9722A3DAAFE3B4186F6B6457E0 SWAP1 DUP4 SWAP1 LOG3 PUSH1 0x0 DUP1 SLOAD PUSH1 0x1 PUSH1 0x1 PUSH1 0xA0 SHL SUB NOT AND SWAP1 SSTORE JUMP JUMPDEST PUSH1 0xC SLOAD DUP2 JUMP JUMPDEST PUSH1 0x3 SLOAD DUP2 JUMP JUMPDEST PUSH1 0x0 SLOAD PUSH1 0x1 PUSH1 0x1 PUSH1 0xA0 SHL SUB AND SWAP1 JUMP JUMPDEST PUSH1 0x4 SLOAD DUP2 JUMP JUMPDEST PUSH1 0x8 SLOAD PUSH1 0xFF AND DUP2 JUMP JUMPDEST PUSH1 0x12 PUSH1 0x20 MSTORE PUSH1 0x0 SWAP1 DUP2 MSTORE PUSH1 0x40 SWAP1 KECCAK256 SLOAD PUSH1 0xFF AND DUP2 JUMP JUMPDEST PUSH1 0xE SLOAD PUSH1 0x40 DUP1 MLOAD PUSH4 0x70A08231 PUSH1 0xE0 SHL DUP2 MSTORE ADDRESS PUSH1 0x4 DUP3 ADD MSTORE SWAP1 MLOAD PUSH1 0x0 SWAP3 PUSH1 0x1 PUSH1 0x1 PUSH1 0xA0 SHL SUB AND SWAP2 PUSH4 0x70A08231 SWAP2 PUSH1 0x24 DUP1 DUP4 ADD SWAP3 PUSH1 0x20 SWAP3 SWAP2 SWAP1 DUP3 SWAP1 SUB ADD DUP2 DUP7 DUP1 EXTCODESIZE ISZERO DUP1 ISZERO PUSH2 0x1271 JUMPI PUSH1 0x0 DUP1 REVERT JUMPDEST POP GAS STATICCALL ISZERO DUP1 ISZERO PUSH2 0x1285 JUMPI RETURNDATASIZE PUSH1 0x0 DUP1 RETURNDATACOPY RETURNDATASIZE PUSH1 0x0 REVERT JUMPDEST POP POP POP POP PUSH1 0x40 MLOAD RETURNDATASIZE PUSH1 0x20 DUP2 LT ISZERO PUSH2 0x129B JUMPI PUSH1 0x0 DUP1 REVERT JUMPDEST POP MLOAD SWAP1 POP SWAP1 JUMP JUMPDEST PUSH2 0x12AA PUSH2 0x1CC9 JUMP JUMPDEST PUSH1 0x0 SLOAD PUSH1 0x1 PUSH1 0x1 PUSH1 0xA0 SHL SUB SWAP1 DUP2 AND SWAP2 AND EQ PUSH2 0x12FA JUMPI PUSH1 0x40 DUP1 MLOAD PUSH3 0x461BCD PUSH1 0xE5 SHL DUP2 MSTORE PUSH1 0x20 PUSH1 0x4 DUP3 ADD DUP2 SWAP1 MSTORE PUSH1 0x24 DUP3 ADD MSTORE PUSH1 0x0 DUP1 MLOAD PUSH1 0x20 PUSH2 0x23EE DUP4 CODECOPY DUP2 MLOAD SWAP2 MSTORE PUSH1 0x44 DUP3 ADD MSTORE SWAP1 MLOAD SWAP1 DUP2 SWAP1 SUB PUSH1 0x64 ADD SWAP1 REVERT JUMPDEST PUSH1 0x8 SLOAD PUSH1 0xFF AND PUSH2 0x133F JUMPI PUSH1 0x40 DUP1 MLOAD PUSH3 0x461BCD PUSH1 0xE5 SHL DUP2 MSTORE PUSH1 0x20 PUSH1 0x4 DUP3 ADD MSTORE PUSH1 0xB PUSH1 0x24 DUP3 ADD MSTORE PUSH11 0x135D5CDD081899481CD95D PUSH1 0xAA SHL PUSH1 0x44 DUP3 ADD MSTORE SWAP1 MLOAD SWAP1 DUP2 SWAP1 SUB PUSH1 0x64 ADD SWAP1 REVERT JUMPDEST DUP2 ISZERO PUSH2 0x13A5 JUMPI PUSH1 0x9 SLOAD DUP2 GT PUSH2 0x139B JUMPI PUSH1 0x40 DUP1 MLOAD PUSH3 0x461BCD PUSH1 0xE5 SHL DUP2 MSTORE PUSH1 0x20 PUSH1 0x4 DUP3 ADD MSTORE PUSH1 0x18 PUSH1 0x24 DUP3 ADD MSTORE PUSH32 0x4E6577206C696D6974206D757374206265206869676865720000000000000000 PUSH1 0x44 DUP3 ADD MSTORE SWAP1 MLOAD SWAP1 DUP2 SWAP1 SUB PUSH1 0x64 ADD SWAP1 REVERT JUMPDEST PUSH1 0x9 DUP2 SWAP1 SSTORE PUSH2 0x13B9 JUMP JUMPDEST PUSH1 0x8 DUP1 SLOAD PUSH1 0xFF NOT AND DUP4 ISZERO ISZERO OR SWAP1 SSTORE PUSH1 0x0 PUSH1 0x9 SSTORE JUMPDEST PUSH1 0x9 SLOAD PUSH1 0x40 DUP1 MLOAD SWAP2 DUP3 MSTORE MLOAD PUSH32 0x241F67EE5F41B7A5CABF911367329BE7215900F602EBFC47F89DCE2A6BCD847C SWAP2 DUP2 SWAP1 SUB PUSH1 0x20 ADD SWAP1 LOG1 POP POP JUMP JUMPDEST PUSH1 0x5 SLOAD DUP2 JUMP JUMPDEST PUSH1 0x11 PUSH1 0x20 MSTORE PUSH1 0x0 SWAP1 DUP2 MSTORE PUSH1 0x40 SWAP1 KECCAK256 DUP1 SLOAD PUSH1 0x1 DUP3 ADD SLOAD PUSH1 0x2 DUP4 ADD SLOAD PUSH1 0x3 SWAP1 SWAP4 ADD SLOAD SWAP2 SWAP3 SWAP1 SWAP2 DUP5 JUMP JUMPDEST PUSH1 0x10 PUSH1 0x20 MSTORE DUP2 PUSH1 0x0 MSTORE PUSH1 0x40 PUSH1 0x0 KECCAK256 DUP2 DUP2 SLOAD DUP2 LT PUSH2 0x1438 JUMPI INVALID JUMPDEST PUSH1 0x0 SWAP2 DUP3 MSTORE PUSH1 0x20 SWAP1 SWAP2 KECCAK256 PUSH1 0x4 SWAP1 SWAP2 MUL ADD DUP1 SLOAD PUSH1 0x1 DUP3 ADD SLOAD PUSH1 0x2 DUP4 ADD SLOAD PUSH1 0x3 SWAP1 SWAP4 ADD SLOAD SWAP2 SWAP5 POP SWAP3 POP DUP5 JUMP JUMPDEST PUSH1 0x2 PUSH1 0x1 SLOAD EQ ISZERO PUSH2 0x14A8 JUMPI PUSH1 0x40 DUP1 MLOAD PUSH3 0x461BCD PUSH1 0xE5 SHL DUP2 MSTORE PUSH1 0x20 PUSH1 0x4 DUP3 ADD MSTORE PUSH1 0x1F PUSH1 0x24 DUP3 ADD MSTORE PUSH1 0x0 DUP1 MLOAD PUSH1 0x20 PUSH2 0x23A8 DUP4 CODECOPY DUP2 MLOAD SWAP2 MSTORE PUSH1 0x44 DUP3 ADD MSTORE SWAP1 MLOAD SWAP1 DUP2 SWAP1 SUB PUSH1 0x64 ADD SWAP1 REVERT JUMPDEST PUSH1 0x2 PUSH1 0x1 SSTORE PUSH1 0xA SLOAD PUSH2 0x14B9 JUMPI PUSH2 0x1612 JUMP JUMPDEST PUSH2 0x14C1 PUSH2 0x1D22 JUMP JUMPDEST CALLER PUSH1 0x0 SWAP1 DUP2 MSTORE PUSH1 0x10 PUSH1 0x20 MSTORE PUSH1 0x40 DUP2 KECCAK256 SWAP1 DUP1 JUMPDEST DUP3 SLOAD DUP2 LT ISZERO PUSH2 0x1579 JUMPI PUSH1 0x0 DUP4 DUP3 DUP2 SLOAD DUP2 LT PUSH2 0x14EA JUMPI INVALID JUMPDEST SWAP1 PUSH1 0x0 MSTORE PUSH1 0x20 PUSH1 0x0 KECCAK256 SWAP1 PUSH1 0x4 MUL ADD SWAP1 POP DUP1 PUSH1 0x0 ADD SLOAD PUSH1 0x0 EQ ISZERO PUSH2 0x150D JUMPI POP PUSH2 0x1571 JUMP JUMPDEST PUSH1 0x0 PUSH2 0x1536 DUP3 PUSH1 0x3 ADD SLOAD PUSH2 0xB4C PUSH1 0xB SLOAD PUSH2 0xB40 PUSH1 0x4 SLOAD DUP8 PUSH1 0x0 ADD SLOAD PUSH2 0x1E08 SWAP1 SWAP2 SWAP1 PUSH4 0xFFFFFFFF AND JUMP JUMPDEST SWAP1 POP PUSH2 0x1548 DUP5 DUP3 PUSH4 0xFFFFFFFF PUSH2 0x1CCD AND JUMP JUMPDEST PUSH1 0xB SLOAD PUSH1 0x4 SLOAD DUP5 SLOAD SWAP3 SWAP7 POP PUSH2 0x1566 SWAP3 PUSH2 0xB40 SWAP2 PUSH4 0xFFFFFFFF PUSH2 0x1E08 AND JUMP JUMPDEST DUP3 PUSH1 0x3 ADD DUP2 SWAP1 SSTORE POP POP POP JUMPDEST PUSH1 0x1 ADD PUSH2 0x14D3 JUMP JUMPDEST POP DUP1 ISZERO PUSH2 0x160F JUMPI DUP1 PUSH2 0x1589 PUSH2 0x1226 JUMP JUMPDEST LT ISZERO PUSH2 0x15D9 JUMPI PUSH1 0x40 DUP1 MLOAD PUSH3 0x461BCD PUSH1 0xE5 SHL DUP2 MSTORE PUSH1 0x20 PUSH1 0x4 DUP3 ADD MSTORE PUSH1 0x1A PUSH1 0x24 DUP3 ADD MSTORE PUSH26 0x496E73756666696369656E742072657761726420746F6B656E73 PUSH1 0x30 SHL PUSH1 0x44 DUP3 ADD MSTORE SWAP1 MLOAD SWAP1 DUP2 SWAP1 SUB PUSH1 0x64 ADD SWAP1 REVERT JUMPDEST PUSH2 0x15E3 CALLER DUP3 PUSH2 0x1F22 JUMP JUMPDEST POP DUP1 PUSH1 0xD SLOAD GT ISZERO PUSH2 0x1609 JUMPI PUSH1 0xD SLOAD PUSH2 0x1601 SWAP1 DUP3 PUSH4 0xFFFFFFFF PUSH2 0x1ED2 AND JUMP JUMPDEST PUSH1 0xD SSTORE PUSH2 0x160F JUMP JUMPDEST PUSH1 0x0 PUSH1 0xD SSTORE JUMPDEST POP POP JUMPDEST PUSH1 0x1 DUP1 SSTORE JUMP JUMPDEST PUSH1 0xF SLOAD DUP2 JUMP JUMPDEST PUSH1 0xB SLOAD DUP2 JUMP JUMPDEST PUSH1 0x2 PUSH1 0x1 SLOAD EQ ISZERO PUSH2 0x166A JUMPI PUSH1 0x40 DUP1 MLOAD PUSH3 0x461BCD PUSH1 0xE5 SHL DUP2 MSTORE PUSH1 0x20 PUSH1 0x4 DUP3 ADD MSTORE PUSH1 0x1F PUSH1 0x24 DUP3 ADD MSTORE PUSH1 0x0 DUP1 MLOAD PUSH1 0x20 PUSH2 0x23A8 DUP4 CODECOPY DUP2 MLOAD SWAP2 MSTORE PUSH1 0x44 DUP3 ADD MSTORE SWAP1 MLOAD SWAP1 DUP2 SWAP1 SUB PUSH1 0x64 ADD SWAP1 REVERT JUMPDEST PUSH1 0x2 PUSH1 0x1 SSTORE CALLVALUE DUP1 PUSH2 0x16C2 JUMPI PUSH1 0x40 DUP1 MLOAD PUSH3 0x461BCD PUSH1 0xE5 SHL DUP2 MSTORE PUSH1 0x20 PUSH1 0x4 DUP3 ADD MSTORE PUSH1 0x1F PUSH1 0x24 DUP3 ADD MSTORE PUSH32 0x416D6F756E742073686F756C642062652067726561746F72207468616E203000 PUSH1 0x44 DUP3 ADD MSTORE SWAP1 MLOAD SWAP1 DUP2 SWAP1 SUB PUSH1 0x64 ADD SWAP1 REVERT JUMPDEST PUSH2 0x16CA PUSH2 0x1D22 JUMP JUMPDEST CALLER PUSH1 0x0 SWAP1 DUP2 MSTORE PUSH1 0x11 PUSH1 0x20 SWAP1 DUP2 MSTORE PUSH1 0x40 DUP1 DUP4 KECCAK256 PUSH1 0x10 SWAP1 SWAP3 MSTORE DUP3 KECCAK256 PUSH1 0x8 SLOAD SWAP2 SWAP3 SWAP1 SWAP2 PUSH1 0xFF AND ISZERO PUSH2 0x175B JUMPI PUSH1 0x9 SLOAD DUP4 SLOAD PUSH2 0x1708 SWAP1 DUP7 SWAP1 PUSH4 0xFFFFFFFF PUSH2 0x1CCD AND JUMP JUMPDEST GT ISZERO PUSH2 0x175B JUMPI PUSH1 0x40 DUP1 MLOAD PUSH3 0x461BCD PUSH1 0xE5 SHL DUP2 MSTORE PUSH1 0x20 PUSH1 0x4 DUP3 ADD MSTORE PUSH1 0x17 PUSH1 0x24 DUP3 ADD MSTORE PUSH32 0x5573657220616D6F756E742061626F7665206C696D6974000000000000000000 PUSH1 0x44 DUP3 ADD MSTORE SWAP1 MLOAD SWAP1 DUP2 SWAP1 SUB PUSH1 0x64 ADD SWAP1 REVERT JUMPDEST PUSH1 0x0 JUMPDEST DUP3 SLOAD DUP2 LT ISZERO PUSH2 0x1804 JUMPI PUSH1 0x0 DUP4 DUP3 DUP2 SLOAD DUP2 LT PUSH2 0x1775 JUMPI INVALID JUMPDEST SWAP1 PUSH1 0x0 MSTORE PUSH1 0x20 PUSH1 0x0 KECCAK256 SWAP1 PUSH1 0x4 MUL ADD SWAP1 POP DUP1 PUSH1 0x0 ADD SLOAD PUSH1 0x0 EQ ISZERO PUSH2 0x1798 JUMPI POP PUSH2 0x17FC JUMP JUMPDEST PUSH1 0x0 PUSH2 0x17C1 DUP3 PUSH1 0x3 ADD SLOAD PUSH2 0xB4C PUSH1 0xB SLOAD PUSH2 0xB40 PUSH1 0x4 SLOAD DUP8 PUSH1 0x0 ADD SLOAD PUSH2 0x1E08 SWAP1 SWAP2 SWAP1 PUSH4 0xFFFFFFFF AND JUMP JUMPDEST SWAP1 POP PUSH2 0x17D3 DUP5 DUP3 PUSH4 0xFFFFFFFF PUSH2 0x1CCD AND JUMP JUMPDEST PUSH1 0xB SLOAD PUSH1 0x4 SLOAD DUP5 SLOAD SWAP3 SWAP7 POP PUSH2 0x17F1 SWAP3 PUSH2 0xB40 SWAP2 PUSH4 0xFFFFFFFF PUSH2 0x1E08 AND JUMP JUMPDEST DUP3 PUSH1 0x3 ADD DUP2 SWAP1 SSTORE POP POP POP JUMPDEST PUSH1 0x1 ADD PUSH2 0x175E JUMP JUMPDEST POP DUP1 ISZERO PUSH2 0x189A JUMPI DUP1 PUSH2 0x1814 PUSH2 0x1226 JUMP JUMPDEST LT ISZERO PUSH2 0x1864 JUMPI PUSH1 0x40 DUP1 MLOAD PUSH3 0x461BCD PUSH1 0xE5 SHL DUP2 MSTORE PUSH1 0x20 PUSH1 0x4 DUP3 ADD MSTORE PUSH1 0x1A PUSH1 0x24 DUP3 ADD MSTORE PUSH26 0x496E73756666696369656E742072657761726420746F6B656E73 PUSH1 0x30 SHL PUSH1 0x44 DUP3 ADD MSTORE SWAP1 MLOAD SWAP1 DUP2 SWAP1 SUB PUSH1 0x64 ADD SWAP1 REVERT JUMPDEST PUSH2 0x186E CALLER DUP3 PUSH2 0x1F22 JUMP JUMPDEST POP DUP1 PUSH1 0xD SLOAD GT ISZERO PUSH2 0x1894 JUMPI PUSH1 0xD SLOAD PUSH2 0x188C SWAP1 DUP3 PUSH4 0xFFFFFFFF PUSH2 0x1ED2 AND JUMP JUMPDEST PUSH1 0xD SSTORE PUSH2 0x189A JUMP JUMPDEST PUSH1 0x0 PUSH1 0xD SSTORE JUMPDEST DUP4 ISZERO PUSH2 0x18E5 JUMPI DUP3 SLOAD PUSH2 0x18B2 SWAP1 DUP6 PUSH4 0xFFFFFFFF PUSH2 0x1CCD AND JUMP JUMPDEST DUP4 SSTORE PUSH1 0x1 DUP1 DUP5 ADD SLOAD PUSH2 0x18C9 SWAP2 PUSH4 0xFFFFFFFF PUSH2 0x1CCD AND JUMP JUMPDEST PUSH1 0x1 DUP5 ADD SSTORE PUSH1 0xC SLOAD PUSH2 0x18E1 SWAP1 DUP6 PUSH4 0xFFFFFFFF PUSH2 0x1CCD AND JUMP JUMPDEST PUSH1 0xC SSTORE JUMPDEST PUSH1 0x6 SLOAD ISZERO PUSH2 0x1968 JUMPI PUSH1 0x0 PUSH2 0x190A PUSH2 0x2710 PUSH2 0xB40 PUSH1 0x6 SLOAD DUP9 PUSH2 0x1E08 SWAP1 SWAP2 SWAP1 PUSH4 0xFFFFFFFF AND JUMP JUMPDEST SWAP1 POP DUP1 ISZERO PUSH2 0x1966 JUMPI PUSH2 0x191A PUSH2 0x11F3 JUMP JUMPDEST PUSH1 0x1 PUSH1 0x1 PUSH1 0xA0 SHL SUB AND PUSH2 0x8FC DUP3 SWAP1 DUP2 ISZERO MUL SWAP1 PUSH1 0x40 MLOAD PUSH1 0x0 PUSH1 0x40 MLOAD DUP1 DUP4 SUB DUP2 DUP6 DUP9 DUP9 CALL SWAP4 POP POP POP POP ISZERO DUP1 ISZERO PUSH2 0x1952 JUMPI RETURNDATASIZE PUSH1 0x0 DUP1 RETURNDATACOPY RETURNDATASIZE PUSH1 0x0 REVERT JUMPDEST POP PUSH2 0x1963 DUP6 DUP3 PUSH4 0xFFFFFFFF PUSH2 0x1ED2 AND JUMP JUMPDEST SWAP5 POP JUMPDEST POP JUMPDEST PUSH2 0x1972 CALLER DUP6 PUSH2 0x2229 JUMP JUMPDEST CALLER PUSH1 0x0 SWAP1 DUP2 MSTORE PUSH1 0x12 PUSH1 0x20 MSTORE PUSH1 0x40 SWAP1 KECCAK256 SLOAD PUSH1 0xFF AND PUSH2 0x19BC JUMPI CALLER PUSH1 0x0 SWAP1 DUP2 MSTORE PUSH1 0x12 PUSH1 0x20 MSTORE PUSH1 0x40 SWAP1 KECCAK256 DUP1 SLOAD PUSH1 0xFF NOT AND PUSH1 0x1 SWAP1 DUP2 OR SWAP1 SWAP2 SSTORE PUSH1 0xF SLOAD PUSH2 0x19B8 SWAP2 PUSH4 0xFFFFFFFF PUSH2 0x1CCD AND JUMP JUMPDEST PUSH1 0xF SSTORE JUMPDEST PUSH1 0x40 DUP1 MLOAD DUP6 DUP2 MSTORE SWAP1 MLOAD CALLER SWAP2 PUSH32 0xE1FFFCC4923D04B559F4D29A8BFC6CDA04EB5B0D3C460751C2402C5C5CC9109C SWAP2 SWAP1 DUP2 SWAP1 SUB PUSH1 0x20 ADD SWAP1 LOG2 POP POP PUSH1 0x1 DUP1 SSTORE POP POP JUMP JUMPDEST PUSH1 0x7 SLOAD DUP2 JUMP JUMPDEST PUSH2 0x1A0A PUSH2 0x1CC9 JUMP JUMPDEST PUSH1 0x0 SLOAD PUSH1 0x1 PUSH1 0x1 PUSH1 0xA0 SHL SUB SWAP1 DUP2 AND SWAP2 AND EQ PUSH2 0x1A5A JUMPI PUSH1 0x40 DUP1 MLOAD PUSH3 0x461BCD PUSH1 0xE5 SHL DUP2 MSTORE PUSH1 0x20 PUSH1 0x4 DUP3 ADD DUP2 SWAP1 MSTORE PUSH1 0x24 DUP3 ADD MSTORE PUSH1 0x0 DUP1 MLOAD PUSH1 0x20 PUSH2 0x23EE DUP4 CODECOPY DUP2 MLOAD SWAP2 MSTORE PUSH1 0x44 DUP3 ADD MSTORE SWAP1 MLOAD SWAP1 DUP2 SWAP1 SUB PUSH1 0x64 ADD SWAP1 REVERT JUMPDEST PUSH1 0x1 PUSH1 0x1 PUSH1 0xA0 SHL SUB DUP2 AND PUSH2 0x1A9F JUMPI PUSH1 0x40 MLOAD PUSH3 0x461BCD PUSH1 0xE5 SHL DUP2 MSTORE PUSH1 0x4 ADD DUP1 DUP1 PUSH1 0x20 ADD DUP3 DUP2 SUB DUP3 MSTORE PUSH1 0x26 DUP2 MSTORE PUSH1 0x20 ADD DUP1 PUSH2 0x23C8 PUSH1 0x26 SWAP2 CODECOPY PUSH1 0x40 ADD SWAP2 POP POP PUSH1 0x40 MLOAD DUP1 SWAP2 SUB SWAP1 REVERT JUMPDEST PUSH1 0x0 DUP1 SLOAD PUSH1 0x40 MLOAD PUSH1 0x1 PUSH1 0x1 PUSH1 0xA0 SHL SUB DUP1 DUP6 AND SWAP4 SWAP3 AND SWAP2 PUSH32 0x8BE0079C531659141344CD1FD0A4F28419497F9722A3DAAFE3B4186F6B6457E0 SWAP2 LOG3 PUSH1 0x0 DUP1 SLOAD PUSH1 0x1 PUSH1 0x1 PUSH1 0xA0 SHL SUB NOT AND PUSH1 0x1 PUSH1 0x1 PUSH1 0xA0 SHL SUB SWAP3 SWAP1 SWAP3 AND SWAP2 SWAP1 SWAP2 OR SWAP1 SSTORE JUMP JUMPDEST PUSH1 0x0 PUSH1 0xA SLOAD PUSH1 0x0 EQ ISZERO PUSH2 0x1B0F JUMPI POP PUSH1 0x0 PUSH2 0x1C3B JUMP JUMPDEST PUSH1 0x1 PUSH1 0x1 PUSH1 0xA0 SHL SUB DUP3 AND PUSH1 0x0 SWAP1 DUP2 MSTORE PUSH1 0x10 PUSH1 0x20 MSTORE PUSH1 0x40 SWAP1 KECCAK256 PUSH1 0xC SLOAD PUSH2 0x1B38 JUMPI PUSH1 0x0 SWAP2 POP POP PUSH2 0x1C3B JUMP JUMPDEST PUSH1 0x4 SLOAD PUSH1 0x5 SLOAD NUMBER GT DUP1 ISZERO PUSH2 0x1B4D JUMPI POP PUSH1 0xC SLOAD ISZERO ISZERO JUMPDEST ISZERO PUSH2 0x1BB6 JUMPI PUSH1 0x0 PUSH2 0x1B69 PUSH1 0x5 SLOAD NUMBER PUSH2 0x1ED2 SWAP1 SWAP2 SWAP1 PUSH4 0xFFFFFFFF AND JUMP JUMPDEST SWAP1 POP PUSH1 0x0 PUSH2 0x1B82 PUSH1 0x3 SLOAD DUP4 PUSH2 0x1E08 SWAP1 SWAP2 SWAP1 PUSH4 0xFFFFFFFF AND JUMP JUMPDEST SWAP1 POP PUSH2 0x1BB1 PUSH2 0x1BA2 PUSH1 0xC SLOAD PUSH2 0xB40 PUSH1 0xB SLOAD DUP6 PUSH2 0x1E08 SWAP1 SWAP2 SWAP1 PUSH4 0xFFFFFFFF AND JUMP JUMPDEST PUSH1 0x4 SLOAD SWAP1 PUSH4 0xFFFFFFFF PUSH2 0x1CCD AND JUMP JUMPDEST SWAP3 POP POP POP JUMPDEST PUSH1 0x0 DUP1 JUMPDEST DUP4 SLOAD DUP2 LT ISZERO PUSH2 0x1C35 JUMPI PUSH1 0x0 DUP5 DUP3 DUP2 SLOAD DUP2 LT PUSH2 0x1BD1 JUMPI INVALID JUMPDEST SWAP1 PUSH1 0x0 MSTORE PUSH1 0x20 PUSH1 0x0 KECCAK256 SWAP1 PUSH1 0x4 MUL ADD SWAP1 POP DUP1 PUSH1 0x0 ADD SLOAD PUSH1 0x0 EQ ISZERO PUSH2 0x1BF4 JUMPI POP PUSH2 0x1C2D JUMP JUMPDEST PUSH2 0x1C29 PUSH2 0x1C1C DUP3 PUSH1 0x3 ADD SLOAD PUSH2 0xB4C PUSH1 0xB SLOAD PUSH2 0xB40 DUP10 DUP8 PUSH1 0x0 ADD SLOAD PUSH2 0x1E08 SWAP1 SWAP2 SWAP1 PUSH4 0xFFFFFFFF AND JUMP JUMPDEST DUP5 SWAP1 PUSH4 0xFFFFFFFF PUSH2 0x1CCD AND JUMP JUMPDEST SWAP3 POP POP JUMPDEST PUSH1 0x1 ADD PUSH2 0x1BBA JUMP JUMPDEST POP SWAP3 POP POP POP JUMPDEST SWAP2 SWAP1 POP JUMP JUMPDEST PUSH1 0xE SLOAD PUSH1 0x1 PUSH1 0x1 PUSH1 0xA0 SHL SUB AND DUP2 JUMP JUMPDEST PUSH2 0x1C57 PUSH2 0x1CC9 JUMP JUMPDEST PUSH1 0x0 SLOAD PUSH1 0x1 PUSH1 0x1 PUSH1 0xA0 SHL SUB SWAP1 DUP2 AND SWAP2 AND EQ PUSH2 0x1CA7 JUMPI PUSH1 0x40 DUP1 MLOAD PUSH3 0x461BCD PUSH1 0xE5 SHL DUP2 MSTORE PUSH1 0x20 PUSH1 0x4 DUP3 ADD DUP2 SWAP1 MSTORE PUSH1 0x24 DUP3 ADD MSTORE PUSH1 0x0 DUP1 MLOAD PUSH1 0x20 PUSH2 0x23EE DUP4 CODECOPY DUP2 MLOAD SWAP2 MSTORE PUSH1 0x44 DUP3 ADD MSTORE SWAP1 MLOAD SWAP1 DUP2 SWAP1 SUB PUSH1 0x64 ADD SWAP1 REVERT JUMPDEST PUSH1 0xE DUP1 SLOAD PUSH1 0x1 PUSH1 0x1 PUSH1 0xA0 SHL SUB NOT AND PUSH1 0x1 PUSH1 0x1 PUSH1 0xA0 SHL SUB SWAP3 SWAP1 SWAP3 AND SWAP2 SWAP1 SWAP2 OR SWAP1 SSTORE JUMP JUMPDEST CALLER SWAP1 JUMP JUMPDEST DUP1 DUP3 ADD DUP3 DUP2 LT ISZERO PUSH2 0x1D1C JUMPI PUSH1 0x40 DUP1 MLOAD PUSH3 0x461BCD PUSH1 0xE5 SHL DUP2 MSTORE PUSH1 0x20 PUSH1 0x4 DUP3 ADD MSTORE PUSH1 0x14 PUSH1 0x24 DUP3 ADD MSTORE PUSH20 0x64732D6D6174682D6164642D6F766572666C6F77 PUSH1 0x60 SHL PUSH1 0x44 DUP3 ADD MSTORE SWAP1 MLOAD SWAP1 DUP2 SWAP1 SUB PUSH1 0x64 ADD SWAP1 REVERT JUMPDEST SWAP3 SWAP2 POP POP JUMP JUMPDEST PUSH1 0x5 SLOAD NUMBER GT PUSH2 0x1D30 JUMPI PUSH2 0x1E06 JUMP JUMPDEST PUSH1 0xC SLOAD PUSH2 0x1D40 JUMPI NUMBER PUSH1 0x5 SSTORE PUSH2 0x1E06 JUMP JUMPDEST PUSH1 0x0 PUSH2 0x1D57 PUSH1 0x5 SLOAD NUMBER PUSH2 0x1ED2 SWAP1 SWAP2 SWAP1 PUSH4 0xFFFFFFFF AND JUMP JUMPDEST SWAP1 POP PUSH1 0x0 PUSH2 0x1D70 PUSH1 0x3 SLOAD DUP4 PUSH2 0x1E08 SWAP1 SWAP2 SWAP1 PUSH4 0xFFFFFFFF AND JUMP JUMPDEST PUSH1 0xE SLOAD PUSH1 0x40 DUP1 MLOAD PUSH4 0x40C10F19 PUSH1 0xE0 SHL DUP2 MSTORE ADDRESS PUSH1 0x4 DUP3 ADD MSTORE PUSH1 0x24 DUP2 ADD DUP5 SWAP1 MSTORE SWAP1 MLOAD SWAP3 SWAP4 POP PUSH1 0x1 PUSH1 0x1 PUSH1 0xA0 SHL SUB SWAP1 SWAP2 AND SWAP2 PUSH4 0x40C10F19 SWAP2 PUSH1 0x44 DUP1 DUP3 ADD SWAP3 PUSH1 0x0 SWAP3 SWAP1 SWAP2 SWAP1 DUP3 SWAP1 SUB ADD DUP2 DUP4 DUP8 DUP1 EXTCODESIZE ISZERO DUP1 ISZERO PUSH2 0x1DC6 JUMPI PUSH1 0x0 DUP1 REVERT JUMPDEST POP GAS CALL ISZERO DUP1 ISZERO PUSH2 0x1DDA JUMPI RETURNDATASIZE PUSH1 0x0 DUP1 RETURNDATACOPY RETURNDATASIZE PUSH1 0x0 REVERT JUMPDEST POP POP POP POP PUSH2 0x1DFC PUSH2 0x1BA2 PUSH1 0xC SLOAD PUSH2 0xB40 PUSH1 0xB SLOAD DUP6 PUSH2 0x1E08 SWAP1 SWAP2 SWAP1 PUSH4 0xFFFFFFFF AND JUMP JUMPDEST PUSH1 0x4 SSTORE POP POP NUMBER PUSH1 0x5 SSTORE JUMPDEST JUMP JUMPDEST PUSH1 0x0 DUP2 ISZERO DUP1 PUSH2 0x1E23 JUMPI POP POP DUP1 DUP3 MUL DUP3 DUP3 DUP3 DUP2 PUSH2 0x1E20 JUMPI INVALID JUMPDEST DIV EQ JUMPDEST PUSH2 0x1D1C JUMPI PUSH1 0x40 DUP1 MLOAD PUSH3 0x461BCD PUSH1 0xE5 SHL DUP2 MSTORE PUSH1 0x20 PUSH1 0x4 DUP3 ADD MSTORE PUSH1 0x14 PUSH1 0x24 DUP3 ADD MSTORE PUSH20 0x64732D6D6174682D6D756C2D6F766572666C6F77 PUSH1 0x60 SHL PUSH1 0x44 DUP3 ADD MSTORE SWAP1 MLOAD SWAP1 DUP2 SWAP1 SUB PUSH1 0x64 ADD SWAP1 REVERT JUMPDEST PUSH1 0x0 DUP1 DUP3 GT PUSH2 0x1EC1 JUMPI PUSH1 0x40 DUP1 MLOAD PUSH3 0x461BCD PUSH1 0xE5 SHL DUP2 MSTORE PUSH1 0x20 PUSH1 0x4 DUP3 ADD MSTORE PUSH1 0x1A PUSH1 0x24 DUP3 ADD MSTORE PUSH32 0x536166654D6174683A206469766973696F6E206279207A65726F000000000000 PUSH1 0x44 DUP3 ADD MSTORE SWAP1 MLOAD SWAP1 DUP2 SWAP1 SUB PUSH1 0x64 ADD SWAP1 REVERT JUMPDEST DUP2 DUP4 DUP2 PUSH2 0x1ECA JUMPI INVALID JUMPDEST DIV SWAP4 SWAP3 POP POP POP JUMP JUMPDEST DUP1 DUP3 SUB DUP3 DUP2 GT ISZERO PUSH2 0x1D1C JUMPI PUSH1 0x40 DUP1 MLOAD PUSH3 0x461BCD PUSH1 0xE5 SHL DUP2 MSTORE PUSH1 0x20 PUSH1 0x4 DUP3 ADD MSTORE PUSH1 0x15 PUSH1 0x24 DUP3 ADD MSTORE PUSH21 0x64732D6D6174682D7375622D756E646572666C6F77 PUSH1 0x58 SHL PUSH1 0x44 DUP3 ADD MSTORE SWAP1 MLOAD SWAP1 DUP2 SWAP1 SUB PUSH1 0x64 ADD SWAP1 REVERT JUMPDEST PUSH1 0xE SLOAD PUSH1 0x40 DUP1 MLOAD PUSH4 0x70A08231 PUSH1 0xE0 SHL DUP2 MSTORE ADDRESS PUSH1 0x4 DUP3 ADD MSTORE SWAP1 MLOAD PUSH1 0x0 SWAP3 DUP4 SWAP3 PUSH1 0x1 PUSH1 0x1 PUSH1 0xA0 SHL SUB SWAP1 SWAP2 AND SWAP2 PUSH4 0x70A08231 SWAP2 PUSH1 0x24 DUP1 DUP3 ADD SWAP3 PUSH1 0x20 SWAP3 SWAP1 SWAP2 SWAP1 DUP3 SWAP1 SUB ADD DUP2 DUP7 DUP1 EXTCODESIZE ISZERO DUP1 ISZERO PUSH2 0x1F72 JUMPI PUSH1 0x0 DUP1 REVERT JUMPDEST POP GAS STATICCALL ISZERO DUP1 ISZERO PUSH2 0x1F86 JUMPI RETURNDATASIZE PUSH1 0x0 DUP1 RETURNDATACOPY RETURNDATASIZE PUSH1 0x0 REVERT JUMPDEST POP POP POP POP PUSH1 0x40 MLOAD RETURNDATASIZE PUSH1 0x20 DUP2 LT ISZERO PUSH2 0x1F9C JUMPI PUSH1 0x0 DUP1 REVERT JUMPDEST POP MLOAD SWAP1 POP DUP1 DUP4 GT ISZERO PUSH2 0x2033 JUMPI PUSH1 0xE SLOAD PUSH1 0x40 DUP1 MLOAD PUSH4 0xA9059CBB PUSH1 0xE0 SHL DUP2 MSTORE PUSH1 0x1 PUSH1 0x1 PUSH1 0xA0 SHL SUB DUP8 DUP2 AND PUSH1 0x4 DUP4 ADD MSTORE PUSH1 0x24 DUP3 ADD DUP6 SWAP1 MSTORE SWAP2 MLOAD SWAP2 SWAP1 SWAP3 AND SWAP2 PUSH4 0xA9059CBB SWAP2 PUSH1 0x44 DUP1 DUP4 ADD SWAP3 PUSH1 0x20 SWAP3 SWAP2 SWAP1 DUP3 SWAP1 SUB ADD DUP2 PUSH1 0x0 DUP8 DUP1 EXTCODESIZE ISZERO DUP1 ISZERO PUSH2 0x1FFE JUMPI PUSH1 0x0 DUP1 REVERT JUMPDEST POP GAS CALL ISZERO DUP1 ISZERO PUSH2 0x2012 JUMPI RETURNDATASIZE PUSH1 0x0 DUP1 RETURNDATACOPY RETURNDATASIZE PUSH1 0x0 REVERT JUMPDEST POP POP POP POP PUSH1 0x40 MLOAD RETURNDATASIZE PUSH1 0x20 DUP2 LT ISZERO PUSH2 0x2028 JUMPI PUSH1 0x0 DUP1 REVERT JUMPDEST POP SWAP1 SWAP2 POP PUSH2 0x1D1C SWAP1 POP JUMP JUMPDEST PUSH1 0xE SLOAD PUSH1 0x40 DUP1 MLOAD PUSH4 0xA9059CBB PUSH1 0xE0 SHL DUP2 MSTORE PUSH1 0x1 PUSH1 0x1 PUSH1 0xA0 SHL SUB DUP8 DUP2 AND PUSH1 0x4 DUP4 ADD MSTORE PUSH1 0x24 DUP3 ADD DUP8 SWAP1 MSTORE SWAP2 MLOAD SWAP2 SWAP1 SWAP3 AND SWAP2 PUSH4 0xA9059CBB SWAP2 PUSH1 0x44 DUP1 DUP4 ADD SWAP3 PUSH1 0x20 SWAP3 SWAP2 SWAP1 DUP3 SWAP1 SUB ADD DUP2 PUSH1 0x0 DUP8 DUP1 EXTCODESIZE ISZERO DUP1 ISZERO PUSH2 0x2089 JUMPI PUSH1 0x0 DUP1 REVERT JUMPDEST POP GAS CALL ISZERO DUP1 ISZERO PUSH2 0x209D JUMPI RETURNDATASIZE PUSH1 0x0 DUP1 RETURNDATACOPY RETURNDATASIZE PUSH1 0x0 REVERT JUMPDEST POP POP POP POP PUSH1 0x40 MLOAD RETURNDATASIZE PUSH1 0x20 DUP2 LT ISZERO PUSH2 0x20B3 JUMPI PUSH1 0x0 DUP1 REVERT JUMPDEST POP DUP4 SWAP3 POP PUSH2 0x1D1C SWAP2 POP POP JUMP JUMPDEST PUSH1 0x1 PUSH1 0x1 PUSH1 0xA0 SHL SUB DUP6 AND PUSH1 0x0 SWAP1 DUP2 MSTORE PUSH1 0x10 PUSH1 0x20 MSTORE PUSH1 0x40 DUP2 KECCAK256 PUSH1 0x2 SLOAD SWAP1 SWAP2 SWAP1 PUSH2 0x2101 SWAP1 PUSH2 0x20F4 SWAP1 PUSH3 0x15180 PUSH4 0xFFFFFFFF PUSH2 0x1E08 AND JUMP JUMPDEST TIMESTAMP SWAP1 PUSH4 0xFFFFFFFF PUSH2 0x1CCD AND JUMP JUMPDEST DUP3 SLOAD SWAP1 SWAP2 POP PUSH2 0x100 DUP2 LT PUSH2 0x2149 JUMPI PUSH1 0x40 DUP1 MLOAD PUSH3 0x461BCD PUSH1 0xE5 SHL DUP2 MSTORE PUSH1 0x20 PUSH1 0x4 DUP3 ADD MSTORE PUSH1 0xA PUSH1 0x24 DUP3 ADD MSTORE PUSH10 0x4D6178207374616B6573 PUSH1 0xB0 SHL PUSH1 0x44 DUP3 ADD MSTORE SWAP1 MLOAD SWAP1 DUP2 SWAP1 SUB PUSH1 0x64 ADD SWAP1 REVERT JUMPDEST DUP3 SLOAD PUSH1 0x1 ADD DUP4 SSTORE PUSH1 0x0 DUP4 SWAP1 MSTORE JUMPDEST DUP1 ISZERO DUP1 ISZERO SWAP1 PUSH2 0x2184 JUMPI POP DUP2 DUP4 PUSH1 0x1 DUP4 SUB DUP2 SLOAD DUP2 LT PUSH2 0x2170 JUMPI INVALID JUMPDEST SWAP1 PUSH1 0x0 MSTORE PUSH1 0x20 PUSH1 0x0 KECCAK256 SWAP1 PUSH1 0x4 MUL ADD PUSH1 0x2 ADD SLOAD GT JUMPDEST ISZERO PUSH2 0x21ED JUMPI DUP3 PUSH1 0x1 DUP3 SUB DUP2 SLOAD DUP2 LT PUSH2 0x2198 JUMPI INVALID JUMPDEST SWAP1 PUSH1 0x0 MSTORE PUSH1 0x20 PUSH1 0x0 KECCAK256 SWAP1 PUSH1 0x4 MUL ADD DUP4 DUP3 DUP2 SLOAD DUP2 LT PUSH2 0x21B2 JUMPI INVALID JUMPDEST PUSH1 0x0 SWAP2 DUP3 MSTORE PUSH1 0x20 SWAP1 SWAP2 KECCAK256 DUP3 SLOAD PUSH1 0x4 SWAP1 SWAP3 MUL ADD SWAP1 DUP2 SSTORE PUSH1 0x1 DUP1 DUP4 ADD SLOAD SWAP1 DUP3 ADD SSTORE PUSH1 0x2 DUP1 DUP4 ADD SLOAD SWAP1 DUP3 ADD SSTORE PUSH1 0x3 SWAP2 DUP3 ADD SLOAD SWAP2 ADD SSTORE PUSH1 0x0 NOT ADD PUSH2 0x2156 JUMP JUMPDEST PUSH1 0x0 DUP4 DUP3 DUP2 SLOAD DUP2 LT PUSH2 0x21FB JUMPI INVALID JUMPDEST PUSH1 0x0 SWAP2 DUP3 MSTORE PUSH1 0x20 SWAP1 SWAP2 KECCAK256 PUSH1 0x4 SWAP1 SWAP2 MUL ADD PUSH1 0x1 DUP2 ADD SWAP8 SWAP1 SWAP8 SSTORE POP POP POP POP PUSH1 0x2 DUP4 ADD SWAP2 SWAP1 SWAP2 SSTORE SWAP2 DUP2 SSTORE PUSH1 0x3 ADD SSTORE POP JUMP JUMPDEST PUSH1 0x1 PUSH1 0x1 PUSH1 0xA0 SHL SUB DUP3 AND PUSH1 0x0 SWAP1 DUP2 MSTORE PUSH1 0x10 PUSH1 0x20 MSTORE PUSH1 0x40 DUP2 KECCAK256 PUSH1 0x2 SLOAD SWAP1 SWAP2 SWAP1 PUSH2 0x225E SWAP1 PUSH2 0x20F4 SWAP1 PUSH3 0x15180 PUSH4 0xFFFFFFFF PUSH2 0x1E08 AND JUMP JUMPDEST DUP3 SLOAD SWAP1 SWAP2 POP PUSH2 0x100 DUP2 LT PUSH2 0x22A6 JUMPI PUSH1 0x40 DUP1 MLOAD PUSH3 0x461BCD PUSH1 0xE5 SHL DUP2 MSTORE PUSH1 0x20 PUSH1 0x4 DUP3 ADD MSTORE PUSH1 0xA PUSH1 0x24 DUP3 ADD MSTORE PUSH10 0x4D6178207374616B6573 PUSH1 0xB0 SHL PUSH1 0x44 DUP3 ADD MSTORE SWAP1 MLOAD SWAP1 DUP2 SWAP1 SUB PUSH1 0x64 ADD SWAP1 REVERT JUMPDEST DUP3 SLOAD PUSH1 0x1 ADD DUP4 SSTORE PUSH1 0x0 DUP4 SWAP1 MSTORE JUMPDEST DUP1 ISZERO DUP1 ISZERO SWAP1 PUSH2 0x22E1 JUMPI POP DUP2 DUP4 PUSH1 0x1 DUP4 SUB DUP2 SLOAD DUP2 LT PUSH2 0x22CD JUMPI INVALID JUMPDEST SWAP1 PUSH1 0x0 MSTORE PUSH1 0x20 PUSH1 0x0 KECCAK256 SWAP1 PUSH1 0x4 MUL ADD PUSH1 0x2 ADD SLOAD GT JUMPDEST ISZERO PUSH2 0x234A JUMPI DUP3 PUSH1 0x1 DUP3 SUB DUP2 SLOAD DUP2 LT PUSH2 0x22F5 JUMPI INVALID JUMPDEST SWAP1 PUSH1 0x0 MSTORE PUSH1 0x20 PUSH1 0x0 KECCAK256 SWAP1 PUSH1 0x4 MUL ADD DUP4 DUP3 DUP2 SLOAD DUP2 LT PUSH2 0x230F JUMPI INVALID JUMPDEST PUSH1 0x0 SWAP2 DUP3 MSTORE PUSH1 0x20 SWAP1 SWAP2 KECCAK256 DUP3 SLOAD PUSH1 0x4 SWAP1 SWAP3 MUL ADD SWAP1 DUP2 SSTORE PUSH1 0x1 DUP1 DUP4 ADD SLOAD SWAP1 DUP3 ADD SSTORE PUSH1 0x2 DUP1 DUP4 ADD SLOAD SWAP1 DUP3 ADD SSTORE PUSH1 0x3 SWAP2 DUP3 ADD SLOAD SWAP2 ADD SSTORE PUSH1 0x0 NOT ADD PUSH2 0x22B3 JUMP JUMPDEST PUSH1 0x0 DUP4 DUP3 DUP2 SLOAD DUP2 LT PUSH2 0x2358 JUMPI INVALID JUMPDEST PUSH1 0x0 SWAP2 DUP3 MSTORE PUSH1 0x20 SWAP1 SWAP2 KECCAK256 PUSH1 0x2 DUP1 SLOAD PUSH1 0x1 PUSH1 0x4 SWAP5 DUP6 MUL SWAP1 SWAP4 ADD SWAP3 DUP4 ADD SSTORE DUP2 ADD DUP6 SWAP1 SSTORE DUP7 DUP2 SSTORE PUSH1 0xB SLOAD SWAP2 SLOAD SWAP1 SWAP3 POP PUSH2 0x239A SWAP2 SWAP1 PUSH2 0xB40 SWAP1 DUP9 SWAP1 PUSH4 0xFFFFFFFF PUSH2 0x1E08 AND JUMP JUMPDEST PUSH1 0x3 SWAP1 SWAP2 ADD SSTORE POP POP POP POP POP JUMP INVALID MSTORE PUSH6 0x656E7472616E PUSH4 0x79477561 PUSH19 0x643A207265656E7472616E742063616C6C004F PUSH24 0x6E61626C653A206E6577206F776E65722069732074686520 PUSH27 0x65726F20616464726573734F776E61626C653A2063616C6C657220 PUSH10 0x73206E6F742074686520 PUSH16 0x776E6572A2646970667358221220D5F7 RETURNDATASIZE 0xF8 PUSH18 0x11F3C0DF8EB2108146850F086FD12BBDEF1C LOG3 SWAP3 PUSH3 0xEF3C13 SAR 0x25 CALLVALUE PUSH5 0x736F6C6343 STOP MOD MOD STOP CALLER "},"methodIdentifiers":{"PRECISION_FACTOR()":"ccd34cd5","accTokenPerShare()":"8f662915","availableRewardTokens()":"9f94e272","claimReward()":"b88a802f","deposit()":"d0e30db0","depositAdmin(address,uint256,uint256,uint256,uint256)":"6d5e80f8","depositFee()":"67a52793","duration()":"0fb5a6b4","hasUserLimit()":"92e8990e","lastRewardBlock()":"a9f8d181","owner()":"8da5cb5b","pendingReward(address)":"f40f0f52","poolLimitPerUser()":"66fe9f8a","recoverWrongTokens(address,uint256)":"3f138d4b","renounceOwnership()":"715018a6","rewardPerBlock()":"8ae39cac","rewardToken()":"f7c618c1","setAccTokenPerShare(uint256)":"075564da","staked(address)":"98807d84","startBlock()":"48cd4cb1","totalStaked()":"817b1cd2","totalUsers()":"bff1f9e1","transferOwnership(address)":"f2fde38b","updateDuration(uint256)":"1b50ad09","updateFee(uint256,uint256)":"2740c197","updatePoolLimitPerUser(bool,uint256)":"a0b40905","updateRewardPerBlock(uint256)":"01f8a976","updateRewardToken(address)":"f8cf31cb","userInfo(address)":"1959a002","userStaked(address)":"acc3a939","userStakes(address,uint256)":"b5d5b5fa","withdraw(uint256)":"2e1a7d4d","withdrawFee()":"e941fa78"}}}}}