{
  "_format": "hh-sol-artifact-1",
  "contractName": "Tether",
  "sourceName": "contracts/erc20.sol",
  "abi": [
    {
      "inputs": [
        {
          "internalType": "address",
          "name": "initialOwner",
          "type": "address"
        },
        {
          "internalType": "string",
          "name": "name",
          "type": "string"
        },
        {
          "internalType": "string",
          "name": "symbol",
          "type": "string"
        },
        {
          "internalType": "uint256",
          "name": "amount",
          "type": "uint256"
        },
        {
          "internalType": "uint8",
          "name": "customDecimals",
          "type": "uint8"
        }
      ],
      "stateMutability": "nonpayable",
      "type": "constructor"
    },
    {
      "inputs": [],
      "name": "ECDSAInvalidSignature",
      "type": "error"
    },
    {
      "inputs": [
        {
          "internalType": "uint256",
          "name": "length",
          "type": "uint256"
        }
      ],
      "name": "ECDSAInvalidSignatureLength",
      "type": "error"
    },
    {
      "inputs": [
        {
          "internalType": "bytes32",
          "name": "s",
          "type": "bytes32"
        }
      ],
      "name": "ECDSAInvalidSignatureS",
      "type": "error"
    },
    {
      "inputs": [
        {
          "internalType": "address",
          "name": "spender",
          "type": "address"
        },
        {
          "internalType": "uint256",
          "name": "allowance",
          "type": "uint256"
        },
        {
          "internalType": "uint256",
          "name": "needed",
          "type": "uint256"
        }
      ],
      "name": "ERC20InsufficientAllowance",
      "type": "error"
    },
    {
      "inputs": [
        {
          "internalType": "address",
          "name": "sender",
          "type": "address"
        },
        {
          "internalType": "uint256",
          "name": "balance",
          "type": "uint256"
        },
        {
          "internalType": "uint256",
          "name": "needed",
          "type": "uint256"
        }
      ],
      "name": "ERC20InsufficientBalance",
      "type": "error"
    },
    {
      "inputs": [
        {
          "internalType": "address",
          "name": "approver",
          "type": "address"
        }
      ],
      "name": "ERC20InvalidApprover",
      "type": "error"
    },
    {
      "inputs": [
        {
          "internalType": "address",
          "name": "receiver",
          "type": "address"
        }
      ],
      "name": "ERC20InvalidReceiver",
      "type": "error"
    },
    {
      "inputs": [
        {
          "internalType": "address",
          "name": "sender",
          "type": "address"
        }
      ],
      "name": "ERC20InvalidSender",
      "type": "error"
    },
    {
      "inputs": [
        {
          "internalType": "address",
          "name": "spender",
          "type": "address"
        }
      ],
      "name": "ERC20InvalidSpender",
      "type": "error"
    },
    {
      "inputs": [
        {
          "internalType": "uint256",
          "name": "deadline",
          "type": "uint256"
        }
      ],
      "name": "ERC2612ExpiredSignature",
      "type": "error"
    },
    {
      "inputs": [
        {
          "internalType": "address",
          "name": "signer",
          "type": "address"
        },
        {
          "internalType": "address",
          "name": "owner",
          "type": "address"
        }
      ],
      "name": "ERC2612InvalidSigner",
      "type": "error"
    },
    {
      "inputs": [],
      "name": "EnforcedPause",
      "type": "error"
    },
    {
      "inputs": [],
      "name": "ExpectedPause",
      "type": "error"
    },
    {
      "inputs": [
        {
          "internalType": "address",
          "name": "account",
          "type": "address"
        },
        {
          "internalType": "uint256",
          "name": "currentNonce",
          "type": "uint256"
        }
      ],
      "name": "InvalidAccountNonce",
      "type": "error"
    },
    {
      "inputs": [],
      "name": "InvalidShortString",
      "type": "error"
    },
    {
      "inputs": [
        {
          "internalType": "address",
          "name": "owner",
          "type": "address"
        }
      ],
      "name": "OwnableInvalidOwner",
      "type": "error"
    },
    {
      "inputs": [
        {
          "internalType": "address",
          "name": "account",
          "type": "address"
        }
      ],
      "name": "OwnableUnauthorizedAccount",
      "type": "error"
    },
    {
      "inputs": [
        {
          "internalType": "string",
          "name": "str",
          "type": "string"
        }
      ],
      "name": "StringTooLong",
      "type": "error"
    },
    {
      "anonymous": false,
      "inputs": [
        {
          "indexed": true,
          "internalType": "address",
          "name": "owner",
          "type": "address"
        },
        {
          "indexed": true,
          "internalType": "address",
          "name": "spender",
          "type": "address"
        },
        {
          "indexed": false,
          "internalType": "uint256",
          "name": "value",
          "type": "uint256"
        }
      ],
      "name": "Approval",
      "type": "event"
    },
    {
      "anonymous": false,
      "inputs": [],
      "name": "EIP712DomainChanged",
      "type": "event"
    },
    {
      "anonymous": false,
      "inputs": [
        {
          "indexed": true,
          "internalType": "address",
          "name": "previousOwner",
          "type": "address"
        },
        {
          "indexed": true,
          "internalType": "address",
          "name": "newOwner",
          "type": "address"
        }
      ],
      "name": "OwnershipTransferred",
      "type": "event"
    },
    {
      "anonymous": false,
      "inputs": [
        {
          "indexed": false,
          "internalType": "address",
          "name": "account",
          "type": "address"
        }
      ],
      "name": "Paused",
      "type": "event"
    },
    {
      "anonymous": false,
      "inputs": [
        {
          "indexed": true,
          "internalType": "address",
          "name": "from",
          "type": "address"
        },
        {
          "indexed": true,
          "internalType": "address",
          "name": "to",
          "type": "address"
        },
        {
          "indexed": false,
          "internalType": "uint256",
          "name": "value",
          "type": "uint256"
        }
      ],
      "name": "Transfer",
      "type": "event"
    },
    {
      "anonymous": false,
      "inputs": [
        {
          "indexed": false,
          "internalType": "address",
          "name": "account",
          "type": "address"
        }
      ],
      "name": "Unpaused",
      "type": "event"
    },
    {
      "inputs": [],
      "name": "DOMAIN_SEPARATOR",
      "outputs": [
        {
          "internalType": "bytes32",
          "name": "",
          "type": "bytes32"
        }
      ],
      "stateMutability": "view",
      "type": "function"
    },
    {
      "inputs": [
        {
          "internalType": "address",
          "name": "owner",
          "type": "address"
        },
        {
          "internalType": "address",
          "name": "spender",
          "type": "address"
        }
      ],
      "name": "allowance",
      "outputs": [
        {
          "internalType": "uint256",
          "name": "",
          "type": "uint256"
        }
      ],
      "stateMutability": "view",
      "type": "function"
    },
    {
      "inputs": [
        {
          "internalType": "address",
          "name": "spender",
          "type": "address"
        },
        {
          "internalType": "uint256",
          "name": "value",
          "type": "uint256"
        }
      ],
      "name": "approve",
      "outputs": [
        {
          "internalType": "bool",
          "name": "",
          "type": "bool"
        }
      ],
      "stateMutability": "nonpayable",
      "type": "function"
    },
    {
      "inputs": [
        {
          "internalType": "address",
          "name": "account",
          "type": "address"
        }
      ],
      "name": "balanceOf",
      "outputs": [
        {
          "internalType": "uint256",
          "name": "",
          "type": "uint256"
        }
      ],
      "stateMutability": "view",
      "type": "function"
    },
    {
      "inputs": [
        {
          "internalType": "uint256",
          "name": "value",
          "type": "uint256"
        }
      ],
      "name": "burn",
      "outputs": [],
      "stateMutability": "nonpayable",
      "type": "function"
    },
    {
      "inputs": [
        {
          "internalType": "address",
          "name": "account",
          "type": "address"
        },
        {
          "internalType": "uint256",
          "name": "value",
          "type": "uint256"
        }
      ],
      "name": "burnFrom",
      "outputs": [],
      "stateMutability": "nonpayable",
      "type": "function"
    },
    {
      "inputs": [],
      "name": "decimals",
      "outputs": [
        {
          "internalType": "uint8",
          "name": "",
          "type": "uint8"
        }
      ],
      "stateMutability": "view",
      "type": "function"
    },
    {
      "inputs": [],
      "name": "eip712Domain",
      "outputs": [
        {
          "internalType": "bytes1",
          "name": "fields",
          "type": "bytes1"
        },
        {
          "internalType": "string",
          "name": "name",
          "type": "string"
        },
        {
          "internalType": "string",
          "name": "version",
          "type": "string"
        },
        {
          "internalType": "uint256",
          "name": "chainId",
          "type": "uint256"
        },
        {
          "internalType": "address",
          "name": "verifyingContract",
          "type": "address"
        },
        {
          "internalType": "bytes32",
          "name": "salt",
          "type": "bytes32"
        },
        {
          "internalType": "uint256[]",
          "name": "extensions",
          "type": "uint256[]"
        }
      ],
      "stateMutability": "view",
      "type": "function"
    },
    {
      "inputs": [
        {
          "internalType": "address",
          "name": "to",
          "type": "address"
        },
        {
          "internalType": "uint256",
          "name": "amount",
          "type": "uint256"
        }
      ],
      "name": "mint",
      "outputs": [],
      "stateMutability": "nonpayable",
      "type": "function"
    },
    {
      "inputs": [],
      "name": "name",
      "outputs": [
        {
          "internalType": "string",
          "name": "",
          "type": "string"
        }
      ],
      "stateMutability": "view",
      "type": "function"
    },
    {
      "inputs": [
        {
          "internalType": "address",
          "name": "owner",
          "type": "address"
        }
      ],
      "name": "nonces",
      "outputs": [
        {
          "internalType": "uint256",
          "name": "",
          "type": "uint256"
        }
      ],
      "stateMutability": "view",
      "type": "function"
    },
    {
      "inputs": [],
      "name": "owner",
      "outputs": [
        {
          "internalType": "address",
          "name": "",
          "type": "address"
        }
      ],
      "stateMutability": "view",
      "type": "function"
    },
    {
      "inputs": [],
      "name": "pause",
      "outputs": [],
      "stateMutability": "nonpayable",
      "type": "function"
    },
    {
      "inputs": [],
      "name": "paused",
      "outputs": [
        {
          "internalType": "bool",
          "name": "",
          "type": "bool"
        }
      ],
      "stateMutability": "view",
      "type": "function"
    },
    {
      "inputs": [
        {
          "internalType": "address",
          "name": "owner",
          "type": "address"
        },
        {
          "internalType": "address",
          "name": "spender",
          "type": "address"
        },
        {
          "internalType": "uint256",
          "name": "value",
          "type": "uint256"
        },
        {
          "internalType": "uint256",
          "name": "deadline",
          "type": "uint256"
        },
        {
          "internalType": "uint8",
          "name": "v",
          "type": "uint8"
        },
        {
          "internalType": "bytes32",
          "name": "r",
          "type": "bytes32"
        },
        {
          "internalType": "bytes32",
          "name": "s",
          "type": "bytes32"
        }
      ],
      "name": "permit",
      "outputs": [],
      "stateMutability": "nonpayable",
      "type": "function"
    },
    {
      "inputs": [],
      "name": "renounceOwnership",
      "outputs": [],
      "stateMutability": "nonpayable",
      "type": "function"
    },
    {
      "inputs": [],
      "name": "symbol",
      "outputs": [
        {
          "internalType": "string",
          "name": "",
          "type": "string"
        }
      ],
      "stateMutability": "view",
      "type": "function"
    },
    {
      "inputs": [],
      "name": "totalSupply",
      "outputs": [
        {
          "internalType": "uint256",
          "name": "",
          "type": "uint256"
        }
      ],
      "stateMutability": "view",
      "type": "function"
    },
    {
      "inputs": [
        {
          "internalType": "address",
          "name": "to",
          "type": "address"
        },
        {
          "internalType": "uint256",
          "name": "value",
          "type": "uint256"
        }
      ],
      "name": "transfer",
      "outputs": [
        {
          "internalType": "bool",
          "name": "",
          "type": "bool"
        }
      ],
      "stateMutability": "nonpayable",
      "type": "function"
    },
    {
      "inputs": [
        {
          "internalType": "address",
          "name": "from",
          "type": "address"
        },
        {
          "internalType": "address",
          "name": "to",
          "type": "address"
        },
        {
          "internalType": "uint256",
          "name": "value",
          "type": "uint256"
        }
      ],
      "name": "transferFrom",
      "outputs": [
        {
          "internalType": "bool",
          "name": "",
          "type": "bool"
        }
      ],
      "stateMutability": "nonpayable",
      "type": "function"
    },
    {
      "inputs": [
        {
          "internalType": "address",
          "name": "newOwner",
          "type": "address"
        }
      ],
      "name": "transferOwnership",
      "outputs": [],
      "stateMutability": "nonpayable",
      "type": "function"
    },
    {
      "inputs": [],
      "name": "unpause",
      "outputs": [],
      "stateMutability": "nonpayable",
      "type": "function"
    }
  ],
  "bytecode": "0x6101806040523480156200001257600080fd5b5060405162001b3538038062001b35833981016040819052620000359162000577565b6040805180820190915260018152603160f81b6020820152849081908782876003620000628382620006b5565b506004620000718282620006b5565b50506005805460ff19169055506001600160a01b038116620000ae57604051631e4fbdf760e01b8152600060048201526024015b60405180910390fd5b620000b9816200019a565b50620000c7826006620001f4565b61012052620000d8816007620001f4565b61014052815160208084019190912060e052815190820120610100524660a0526200016660e05161010051604080517f8b73c3c69bb8fe3d512ecc4cf759cc79239f7b179b0ffacaa9a75d522b39400f60208201529081019290925260608201524660808201523060a082015260009060c00160405160208183030381529060405280519060200120905090565b60805250503060c0525060ff8116610160526200018433836200022d565b6200018f856200026b565b5050505050620007fd565b600580546001600160a01b03838116610100818102610100600160a81b031985161790945560405193909204169182907f8be0079c531659141344cd1fd0a4f28419497f9722a3daafe3b4186f6b6457e090600090a35050565b600060208351101562000214576200020c83620002af565b905062000227565b81620002218482620006b5565b5060ff90505b92915050565b6001600160a01b038216620002595760405163ec442f0560e01b815260006004820152602401620000a5565b6200026760008383620002f2565b5050565b6200027562000304565b6001600160a01b038116620002a157604051631e4fbdf760e01b815260006004820152602401620000a5565b620002ac816200019a565b50565b600080829050601f81511115620002dd578260405163305a27a960e01b8152600401620000a5919062000781565b8051620002ea82620007b6565b179392505050565b620002ff8383836200033b565b505050565b6005546001600160a01b03610100909104163314620003395760405163118cdaa760e01b8152336004820152602401620000a5565b565b6200034562000352565b620002ff83838362000377565b60055460ff1615620003395760405163d93c066560e01b815260040160405180910390fd5b6001600160a01b038316620003a65780600260008282546200039a9190620007db565b909155506200041a9050565b6001600160a01b03831660009081526020819052604090205481811015620003fb5760405163391434e360e21b81526001600160a01b03851660048201526024810182905260448101839052606401620000a5565b6001600160a01b03841660009081526020819052604090209082900390555b6001600160a01b038216620004385760028054829003905562000457565b6001600160a01b03821660009081526020819052604090208054820190555b816001600160a01b0316836001600160a01b03167fddf252ad1be2c89b69c2b068fc378daa952ba7f163c4a11628f55a4df523b3ef836040516200049d91815260200190565b60405180910390a3505050565b634e487b7160e01b600052604160045260246000fd5b60005b83811015620004dd578181015183820152602001620004c3565b50506000910152565b600082601f830112620004f857600080fd5b81516001600160401b0380821115620005155762000515620004aa565b604051601f8301601f19908116603f01168101908282118183101715620005405762000540620004aa565b816040528381528660208588010111156200055a57600080fd5b6200056d846020830160208901620004c0565b9695505050505050565b600080600080600060a086880312156200059057600080fd5b85516001600160a01b0381168114620005a857600080fd5b60208701519095506001600160401b0380821115620005c657600080fd5b620005d489838a01620004e6565b95506040880151915080821115620005eb57600080fd5b50620005fa88828901620004e6565b93505060608601519150608086015160ff811681146200061957600080fd5b809150509295509295909350565b600181811c908216806200063c57607f821691505b6020821081036200065d57634e487b7160e01b600052602260045260246000fd5b50919050565b601f821115620002ff57600081815260208120601f850160051c810160208610156200068c5750805b601f850160051c820191505b81811015620006ad5782815560010162000698565b505050505050565b81516001600160401b03811115620006d157620006d1620004aa565b620006e981620006e2845462000627565b8462000663565b602080601f831160018114620007215760008415620007085750858301515b600019600386901b1c1916600185901b178555620006ad565b600085815260208120601f198616915b82811015620007525788860151825594840194600190910190840162000731565b5085821015620007715787850151600019600388901b60f8161c191681555b5050505050600190811b01905550565b6020815260008251806020840152620007a2816040850160208701620004c0565b601f01601f19169190910160400192915050565b805160208083015191908110156200065d5760001960209190910360031b1b16919050565b808201808211156200022757634e487b7160e01b600052601160045260246000fd5b60805160a05160c05160e051610100516101205161014051610160516112d26200086360003960006101b401526000610a5a01526000610a2d0152600061084d0152600061082501526000610780015260006107aa015260006107d401526112d26000f3fe608060405234801561001057600080fd5b50600436106101425760003560e01c8063715018a6116100b85780638da5cb5b1161007c5780638da5cb5b1461029b57806395d89b41146102c4578063a9059cbb146102cc578063d505accf146102df578063dd62ed3e146102f2578063f2fde38b1461032b57600080fd5b8063715018a61461024a57806379cc6790146102525780637ecebe00146102655780638456cb591461027857806384b0196e1461028057600080fd5b80633644e5151161010a5780633644e515146101de5780633f4ba83a146101e657806340c10f19146101f057806342966c68146102035780635c975abb1461021657806370a082311461022157600080fd5b806306fdde0314610147578063095ea7b31461016557806318160ddd1461018857806323b872dd1461019a578063313ce567146101ad575b600080fd5b61014f61033e565b60405161015c919061101f565b60405180910390f35b610178610173366004611055565b6103d0565b604051901515815260200161015c565b6002545b60405190815260200161015c565b6101786101a836600461107f565b6103ea565b60405160ff7f000000000000000000000000000000000000000000000000000000000000000016815260200161015c565b61018c61040e565b6101ee61041d565b005b6101ee6101fe366004611055565b61042f565b6101ee6102113660046110bb565b610445565b60055460ff16610178565b61018c61022f3660046110d4565b6001600160a01b031660009081526020819052604090205490565b6101ee610452565b6101ee610260366004611055565b610464565b61018c6102733660046110d4565b610479565b6101ee610497565b6102886104a7565b60405161015c97969594939291906110ef565b60055461010090046001600160a01b03166040516001600160a01b03909116815260200161015c565b61014f6104ed565b6101786102da366004611055565b6104fc565b6101ee6102ed366004611185565b61050a565b61018c6103003660046111f8565b6001600160a01b03918216600090815260016020908152604080832093909416825291909152205490565b6101ee6103393660046110d4565b610649565b60606003805461034d9061122b565b80601f01602080910402602001604051908101604052809291908181526020018280546103799061122b565b80156103c65780601f1061039b576101008083540402835291602001916103c6565b820191906000526020600020905b8154815290600101906020018083116103a957829003601f168201915b5050505050905090565b6000336103de818585610684565b60019150505b92915050565b6000336103f8858285610696565b610403858585610714565b506001949350505050565b6000610418610773565b905090565b61042561089e565b61042d6108d1565b565b61043761089e565b6104418282610923565b5050565b61044f3382610959565b50565b61045a61089e565b61042d600061098f565b61046f823383610696565b6104418282610959565b6001600160a01b0381166000908152600860205260408120546103e4565b61049f61089e565b61042d6109e9565b6000606080600080600060606104bb610a26565b6104c3610a53565b60408051600080825260208201909252600f60f81b9b939a50919850469750309650945092509050565b60606004805461034d9061122b565b6000336103de818585610714565b834211156105335760405163313c898160e11b8152600481018590526024015b60405180910390fd5b60007f6e71edae12b1b97f4d1f60370fef10105fa2faae0126114a169c64845d6126c98888886105808c6001600160a01b0316600090815260086020526040902080546001810190915590565b6040805160208101969096526001600160a01b0394851690860152929091166060840152608083015260a082015260c0810186905260e00160405160208183030381529060405280519060200120905060006105db82610a80565b905060006105eb82878787610aad565b9050896001600160a01b0316816001600160a01b031614610632576040516325c0072360e11b81526001600160a01b0380831660048301528b16602482015260440161052a565b61063d8a8a8a610684565b50505050505050505050565b61065161089e565b6001600160a01b03811661067b57604051631e4fbdf760e01b81526000600482015260240161052a565b61044f8161098f565b6106918383836001610adb565b505050565b6001600160a01b03838116600090815260016020908152604080832093861683529290522054600019811461070e57818110156106ff57604051637dc7a0d960e11b81526001600160a01b0384166004820152602481018290526044810183905260640161052a565b61070e84848484036000610adb565b50505050565b6001600160a01b03831661073e57604051634b637e8f60e11b81526000600482015260240161052a565b6001600160a01b0382166107685760405163ec442f0560e01b81526000600482015260240161052a565b610691838383610bb0565b6000306001600160a01b037f0000000000000000000000000000000000000000000000000000000000000000161480156107cc57507f000000000000000000000000000000000000000000000000000000000000000046145b156107f657507f000000000000000000000000000000000000000000000000000000000000000090565b610418604080517f8b73c3c69bb8fe3d512ecc4cf759cc79239f7b179b0ffacaa9a75d522b39400f60208201527f0000000000000000000000000000000000000000000000000000000000000000918101919091527f000000000000000000000000000000000000000000000000000000000000000060608201524660808201523060a082015260009060c00160405160208183030381529060405280519060200120905090565b6005546001600160a01b0361010090910416331461042d5760405163118cdaa760e01b815233600482015260240161052a565b6108d9610bbb565b6005805460ff191690557f5db9ee0a495bf2e6ff9c91a7834c1ba4fdd244a5e8aa4e537bd38aeae4b073aa335b6040516001600160a01b03909116815260200160405180910390a1565b6001600160a01b03821661094d5760405163ec442f0560e01b81526000600482015260240161052a565b61044160008383610bb0565b6001600160a01b03821661098357604051634b637e8f60e11b81526000600482015260240161052a565b61044182600083610bb0565b600580546001600160a01b03838116610100818102610100600160a81b031985161790945560405193909204169182907f8be0079c531659141344cd1fd0a4f28419497f9722a3daafe3b4186f6b6457e090600090a35050565b6109f1610bde565b6005805460ff191660011790557f62e78cea01bee320cd4e420270b5ea74000d11b0c9f74754ebdbfc544b05a2586109063390565b60606104187f00000000000000000000000000000000000000000000000000000000000000006006610c02565b60606104187f00000000000000000000000000000000000000000000000000000000000000006007610c02565b60006103e4610a8d610773565b8360405161190160f01b8152600281019290925260228201526042902090565b600080600080610abf88888888610cad565b925092509250610acf8282610d7c565b50909695505050505050565b6001600160a01b038416610b055760405163e602df0560e01b81526000600482015260240161052a565b6001600160a01b038316610b2f57604051634a1406b160e11b81526000600482015260240161052a565b6001600160a01b038085166000908152600160209081526040808320938716835292905220829055801561070e57826001600160a01b0316846001600160a01b03167f8c5be1e5ebec7d5bd14f71427d1e84f3dd0314c0f7b2291e5b200ac8c7c3b92584604051610ba291815260200190565b60405180910390a350505050565b610691838383610e35565b60055460ff1661042d57604051638dfc202b60e01b815260040160405180910390fd5b60055460ff161561042d5760405163d93c066560e01b815260040160405180910390fd5b606060ff8314610c1c57610c1583610e48565b90506103e4565b818054610c289061122b565b80601f0160208091040260200160405190810160405280929190818152602001828054610c549061122b565b8015610ca15780601f10610c7657610100808354040283529160200191610ca1565b820191906000526020600020905b815481529060010190602001808311610c8457829003601f168201915b505050505090506103e4565b600080807f7fffffffffffffffffffffffffffffff5d576e7357a4501ddfe92f46681b20a0841115610ce85750600091506003905082610d72565b604080516000808252602082018084528a905260ff891692820192909252606081018790526080810186905260019060a0016020604051602081039080840390855afa158015610d3c573d6000803e3d6000fd5b5050604051601f1901519150506001600160a01b038116610d6857506000925060019150829050610d72565b9250600091508190505b9450945094915050565b6000826003811115610d9057610d90611265565b03610d99575050565b6001826003811115610dad57610dad611265565b03610dcb5760405163f645eedf60e01b815260040160405180910390fd5b6002826003811115610ddf57610ddf611265565b03610e005760405163fce698f760e01b81526004810182905260240161052a565b6003826003811115610e1457610e14611265565b03610441576040516335e2f38360e21b81526004810182905260240161052a565b610e3d610bde565b610691838383610e87565b60606000610e5583610fb1565b604080516020808252818301909252919250600091906020820181803683375050509182525060208101929092525090565b6001600160a01b038316610eb2578060026000828254610ea7919061127b565b90915550610f249050565b6001600160a01b03831660009081526020819052604090205481811015610f055760405163391434e360e21b81526001600160a01b0385166004820152602481018290526044810183905260640161052a565b6001600160a01b03841660009081526020819052604090209082900390555b6001600160a01b038216610f4057600280548290039055610f5f565b6001600160a01b03821660009081526020819052604090208054820190555b816001600160a01b0316836001600160a01b03167fddf252ad1be2c89b69c2b068fc378daa952ba7f163c4a11628f55a4df523b3ef83604051610fa491815260200190565b60405180910390a3505050565b600060ff8216601f8111156103e457604051632cd44ac360e21b815260040160405180910390fd5b6000815180845260005b81811015610fff57602081850181015186830182015201610fe3565b506000602082860101526020601f19601f83011685010191505092915050565b6020815260006110326020830184610fd9565b9392505050565b80356001600160a01b038116811461105057600080fd5b919050565b6000806040838503121561106857600080fd5b61107183611039565b946020939093013593505050565b60008060006060848603121561109457600080fd5b61109d84611039565b92506110ab60208501611039565b9150604084013590509250925092565b6000602082840312156110cd57600080fd5b5035919050565b6000602082840312156110e657600080fd5b61103282611039565b60ff60f81b881681526000602060e08184015261110f60e084018a610fd9565b8381036040850152611121818a610fd9565b606085018990526001600160a01b038816608086015260a0850187905284810360c0860152855180825283870192509083019060005b8181101561117357835183529284019291840191600101611157565b50909c9b505050505050505050505050565b600080600080600080600060e0888a0312156111a057600080fd5b6111a988611039565b96506111b760208901611039565b95506040880135945060608801359350608088013560ff811681146111db57600080fd5b9699959850939692959460a0840135945060c09093013592915050565b6000806040838503121561120b57600080fd5b61121483611039565b915061122260208401611039565b90509250929050565b600181811c9082168061123f57607f821691505b60208210810361125f57634e487b7160e01b600052602260045260246000fd5b50919050565b634e487b7160e01b600052602160045260246000fd5b808201808211156103e457634e487b7160e01b600052601160045260246000fdfea26469706673582212204609bc8373b7d556e11a7fedc46912c7d41ca53f247ab7c23d4f5e3cb63203c564736f6c63430008140033",
  "linkReferences": {},
  "deployedLinkReferences": {}
}