{
  "_format": "hh-sol-artifact-1",
  "contractName": "NFT",
  "sourceName": "contracts/pawsome.sol",
  "abi": [
    {
      "inputs": [],
      "stateMutability": "nonpayable",
      "type": "constructor"
    },
    {
      "anonymous": false,
      "inputs": [
        {
          "indexed": true,
          "internalType": "address",
          "name": "owner",
          "type": "address"
        },
        {
          "indexed": true,
          "internalType": "address",
          "name": "approved",
          "type": "address"
        },
        {
          "indexed": true,
          "internalType": "uint256",
          "name": "tokenId",
          "type": "uint256"
        }
      ],
      "name": "Approval",
      "type": "event"
    },
    {
      "anonymous": false,
      "inputs": [
        {
          "indexed": true,
          "internalType": "address",
          "name": "owner",
          "type": "address"
        },
        {
          "indexed": true,
          "internalType": "address",
          "name": "operator",
          "type": "address"
        },
        {
          "indexed": false,
          "internalType": "bool",
          "name": "approved",
          "type": "bool"
        }
      ],
      "name": "ApprovalForAll",
      "type": "event"
    },
    {
      "anonymous": false,
      "inputs": [
        {
          "indexed": true,
          "internalType": "address",
          "name": "previousOwner",
          "type": "address"
        },
        {
          "indexed": true,
          "internalType": "address",
          "name": "newOwner",
          "type": "address"
        }
      ],
      "name": "OwnershipTransferred",
      "type": "event"
    },
    {
      "anonymous": false,
      "inputs": [
        {
          "indexed": true,
          "internalType": "address",
          "name": "from",
          "type": "address"
        },
        {
          "indexed": true,
          "internalType": "address",
          "name": "to",
          "type": "address"
        },
        {
          "indexed": true,
          "internalType": "uint256",
          "name": "tokenId",
          "type": "uint256"
        }
      ],
      "name": "Transfer",
      "type": "event"
    },
    {
      "inputs": [],
      "name": "MAX_NFT_SUPPLY",
      "outputs": [
        {
          "internalType": "uint256",
          "name": "",
          "type": "uint256"
        }
      ],
      "stateMutability": "view",
      "type": "function"
    },
    {
      "inputs": [],
      "name": "MAX_NFT_WALLET",
      "outputs": [
        {
          "internalType": "uint256",
          "name": "",
          "type": "uint256"
        }
      ],
      "stateMutability": "view",
      "type": "function"
    },
    {
      "inputs": [],
      "name": "NFT_PRICE",
      "outputs": [
        {
          "internalType": "uint256",
          "name": "",
          "type": "uint256"
        }
      ],
      "stateMutability": "view",
      "type": "function"
    },
    {
      "inputs": [
        {
          "internalType": "address",
          "name": "to",
          "type": "address"
        },
        {
          "internalType": "uint256",
          "name": "tokenId",
          "type": "uint256"
        }
      ],
      "name": "approve",
      "outputs": [],
      "stateMutability": "nonpayable",
      "type": "function"
    },
    {
      "inputs": [
        {
          "internalType": "address",
          "name": "owner",
          "type": "address"
        }
      ],
      "name": "balanceOf",
      "outputs": [
        {
          "internalType": "uint256",
          "name": "",
          "type": "uint256"
        }
      ],
      "stateMutability": "view",
      "type": "function"
    },
    {
      "inputs": [],
      "name": "baseURI",
      "outputs": [
        {
          "internalType": "string",
          "name": "",
          "type": "string"
        }
      ],
      "stateMutability": "view",
      "type": "function"
    },
    {
      "inputs": [],
      "name": "flipSaleState",
      "outputs": [],
      "stateMutability": "nonpayable",
      "type": "function"
    },
    {
      "inputs": [
        {
          "internalType": "uint256",
          "name": "tokenId",
          "type": "uint256"
        }
      ],
      "name": "getApproved",
      "outputs": [
        {
          "internalType": "address",
          "name": "",
          "type": "address"
        }
      ],
      "stateMutability": "view",
      "type": "function"
    },
    {
      "inputs": [
        {
          "internalType": "uint256",
          "name": "_tokenId",
          "type": "uint256"
        }
      ],
      "name": "getMinterAddress",
      "outputs": [
        {
          "internalType": "address",
          "name": "",
          "type": "address"
        }
      ],
      "stateMutability": "view",
      "type": "function"
    },
    {
      "inputs": [
        {
          "internalType": "address",
          "name": "owner",
          "type": "address"
        },
        {
          "internalType": "address",
          "name": "operator",
          "type": "address"
        }
      ],
      "name": "isApprovedForAll",
      "outputs": [
        {
          "internalType": "bool",
          "name": "",
          "type": "bool"
        }
      ],
      "stateMutability": "view",
      "type": "function"
    },
    {
      "inputs": [
        {
          "internalType": "uint256",
          "name": "numberOfNFT",
          "type": "uint256"
        }
      ],
      "name": "mintNFT",
      "outputs": [],
      "stateMutability": "payable",
      "type": "function"
    },
    {
      "inputs": [
        {
          "internalType": "uint256",
          "name": "numberOfNFT",
          "type": "uint256"
        }
      ],
      "name": "mintNFTAdmin",
      "outputs": [],
      "stateMutability": "payable",
      "type": "function"
    },
    {
      "inputs": [
        {
          "internalType": "uint256",
          "name": "",
          "type": "uint256"
        }
      ],
      "name": "minter",
      "outputs": [
        {
          "internalType": "address",
          "name": "",
          "type": "address"
        }
      ],
      "stateMutability": "view",
      "type": "function"
    },
    {
      "inputs": [],
      "name": "name",
      "outputs": [
        {
          "internalType": "string",
          "name": "",
          "type": "string"
        }
      ],
      "stateMutability": "view",
      "type": "function"
    },
    {
      "inputs": [],
      "name": "owner",
      "outputs": [
        {
          "internalType": "address",
          "name": "",
          "type": "address"
        }
      ],
      "stateMutability": "view",
      "type": "function"
    },
    {
      "inputs": [
        {
          "internalType": "uint256",
          "name": "tokenId",
          "type": "uint256"
        }
      ],
      "name": "ownerOf",
      "outputs": [
        {
          "internalType": "address",
          "name": "",
          "type": "address"
        }
      ],
      "stateMutability": "view",
      "type": "function"
    },
    {
      "inputs": [],
      "name": "renounceOwnership",
      "outputs": [],
      "stateMutability": "nonpayable",
      "type": "function"
    },
    {
      "inputs": [
        {
          "internalType": "address",
          "name": "from",
          "type": "address"
        },
        {
          "internalType": "address",
          "name": "to",
          "type": "address"
        },
        {
          "internalType": "uint256",
          "name": "tokenId",
          "type": "uint256"
        }
      ],
      "name": "safeTransferFrom",
      "outputs": [],
      "stateMutability": "nonpayable",
      "type": "function"
    },
    {
      "inputs": [
        {
          "internalType": "address",
          "name": "from",
          "type": "address"
        },
        {
          "internalType": "address",
          "name": "to",
          "type": "address"
        },
        {
          "internalType": "uint256",
          "name": "tokenId",
          "type": "uint256"
        },
        {
          "internalType": "bytes",
          "name": "_data",
          "type": "bytes"
        }
      ],
      "name": "safeTransferFrom",
      "outputs": [],
      "stateMutability": "nonpayable",
      "type": "function"
    },
    {
      "inputs": [],
      "name": "saleIsActive",
      "outputs": [
        {
          "internalType": "bool",
          "name": "",
          "type": "bool"
        }
      ],
      "stateMutability": "view",
      "type": "function"
    },
    {
      "inputs": [
        {
          "internalType": "uint256",
          "name": "numberOfNFT",
          "type": "uint256"
        },
        {
          "internalType": "address",
          "name": "reciever",
          "type": "address"
        }
      ],
      "name": "sendNFTAdmin",
      "outputs": [],
      "stateMutability": "payable",
      "type": "function"
    },
    {
      "inputs": [
        {
          "internalType": "address",
          "name": "operator",
          "type": "address"
        },
        {
          "internalType": "bool",
          "name": "approved",
          "type": "bool"
        }
      ],
      "name": "setApprovalForAll",
      "outputs": [],
      "stateMutability": "nonpayable",
      "type": "function"
    },
    {
      "inputs": [
        {
          "internalType": "string",
          "name": "baseURI",
          "type": "string"
        }
      ],
      "name": "setBaseURI",
      "outputs": [],
      "stateMutability": "nonpayable",
      "type": "function"
    },
    {
      "inputs": [
        {
          "internalType": "uint256",
          "name": "_value",
          "type": "uint256"
        }
      ],
      "name": "setMAX_NFT_WALLET",
      "outputs": [],
      "stateMutability": "nonpayable",
      "type": "function"
    },
    {
      "inputs": [
        {
          "internalType": "uint256",
          "name": "_value",
          "type": "uint256"
        }
      ],
      "name": "setNFT_PRICE",
      "outputs": [],
      "stateMutability": "nonpayable",
      "type": "function"
    },
    {
      "inputs": [
        {
          "internalType": "bytes4",
          "name": "interfaceId",
          "type": "bytes4"
        }
      ],
      "name": "supportsInterface",
      "outputs": [
        {
          "internalType": "bool",
          "name": "",
          "type": "bool"
        }
      ],
      "stateMutability": "view",
      "type": "function"
    },
    {
      "inputs": [],
      "name": "symbol",
      "outputs": [
        {
          "internalType": "string",
          "name": "",
          "type": "string"
        }
      ],
      "stateMutability": "view",
      "type": "function"
    },
    {
      "inputs": [
        {
          "internalType": "uint256",
          "name": "index",
          "type": "uint256"
        }
      ],
      "name": "tokenByIndex",
      "outputs": [
        {
          "internalType": "uint256",
          "name": "",
          "type": "uint256"
        }
      ],
      "stateMutability": "view",
      "type": "function"
    },
    {
      "inputs": [
        {
          "internalType": "address",
          "name": "owner",
          "type": "address"
        },
        {
          "internalType": "uint256",
          "name": "index",
          "type": "uint256"
        }
      ],
      "name": "tokenOfOwnerByIndex",
      "outputs": [
        {
          "internalType": "uint256",
          "name": "",
          "type": "uint256"
        }
      ],
      "stateMutability": "view",
      "type": "function"
    },
    {
      "inputs": [
        {
          "internalType": "uint256",
          "name": "tokenId",
          "type": "uint256"
        }
      ],
      "name": "tokenURI",
      "outputs": [
        {
          "internalType": "string",
          "name": "",
          "type": "string"
        }
      ],
      "stateMutability": "view",
      "type": "function"
    },
    {
      "inputs": [],
      "name": "totalSupply",
      "outputs": [
        {
          "internalType": "uint256",
          "name": "",
          "type": "uint256"
        }
      ],
      "stateMutability": "view",
      "type": "function"
    },
    {
      "inputs": [
        {
          "internalType": "address",
          "name": "from",
          "type": "address"
        },
        {
          "internalType": "address",
          "name": "to",
          "type": "address"
        },
        {
          "internalType": "uint256",
          "name": "tokenId",
          "type": "uint256"
        }
      ],
      "name": "transferFrom",
      "outputs": [],
      "stateMutability": "nonpayable",
      "type": "function"
    },
    {
      "inputs": [
        {
          "internalType": "address",
          "name": "newOwner",
          "type": "address"
        }
      ],
      "name": "transferOwnership",
      "outputs": [],
      "stateMutability": "nonpayable",
      "type": "function"
    },
    {
      "inputs": [],
      "name": "withdraw",
      "outputs": [],
      "stateMutability": "nonpayable",
      "type": "function"
    }
  ],
  "bytecode": "0x6080604052612710600b819055600c5566038d7ea4c68000600d556000600f556010805460ff191660011790553480156200003957600080fd5b50604080518082018252600e81526d486f765220486f6f6c6967616e7360901b602080830191909152825180840190935260038352621213d360ea1b90830152906200008c6301ffc9a760e01b62000151565b8151620000a1906006906020850190620001da565b508051620000b7906007906020840190620001da565b50620000ca6380ac58cd60e01b62000151565b620000dc635b5e139f60e01b62000151565b620000ee63780e9d6360e01b62000151565b5060009050620000fd620001d6565b600a80546001600160a01b0319166001600160a01b038316908117909155604051919250906000907f8be0079c531659141344cd1fd0a4f28419497f9722a3daafe3b4186f6b6457e0908290a35062000276565b6001600160e01b03198082161415620001b1576040805162461bcd60e51b815260206004820152601c60248201527f4552433136353a20696e76616c696420696e7465726661636520696400000000604482015290519081900360640190fd5b6001600160e01b0319166000908152602081905260409020805460ff19166001179055565b3390565b828054600181600116156101000203166002900490600052602060002090601f016020900481019282601f106200021d57805160ff19168380011785556200024d565b828001600101855582156200024d579182015b828111156200024d57825182559160200191906001019062000230565b506200025b9291506200025f565b5090565b5b808211156200025b576000815560010162000260565b612a3b80620002866000396000f3fe6080604052600436106101f95760003560e01c806370a082311161010d578063a22cb465116100a0578063c87b56dd1161006f578063c87b56dd14610835578063d08b11e31461085f578063e985e9c514610874578063eb8d2444146108af578063f2fde38b146108c4576101f9565b8063a22cb465146106e8578063ac8d856c14610723578063b5077f441461074d578063b88d4fde14610762576101f9565b80638b1c87e4116100dc5780638b1c87e4146106845780638da5cb5b146106a157806392642744146106b657806395d89b41146106d3576101f9565b806370a08231146105e6578063715018a6146106195780637869f32c1461062e57806378ae665014610658576101f9565b80633ccfd60b11610190578063562781481161015f578063562781481461053e5780636352211e146105685780636632472914610592578063676dd563146105bc5780636c0360eb146105d1576101f9565b80633ccfd60b1461040957806342842e0e1461041e5780634f6ccce71461046157806355f804b31461048b576101f9565b806318160ddd116101cc57806318160ddd1461035157806323b872dd146103785780632f745c59146103bb57806334918dfd146103f4576101f9565b806301ffc9a7146101fe57806306fdde0314610246578063081812fc146102d0578063095ea7b314610316575b600080fd5b34801561020a57600080fd5b506102326004803603602081101561022157600080fd5b50356001600160e01b0319166108f7565b604080519115158252519081900360200190f35b34801561025257600080fd5b5061025b61091a565b6040805160208082528351818301528351919283929083019185019080838360005b8381101561029557818101518382015260200161027d565b50505050905090810190601f1680156102c25780820380516001836020036101000a031916815260200191505b509250505060405180910390f35b3480156102dc57600080fd5b506102fa600480360360208110156102f357600080fd5b50356109b0565b604080516001600160a01b039092168252519081900360200190f35b34801561032257600080fd5b5061034f6004803603604081101561033957600080fd5b506001600160a01b038135169060200135610a12565b005b34801561035d57600080fd5b50610366610aed565b60408051918252519081900360200190f35b34801561038457600080fd5b5061034f6004803603606081101561039b57600080fd5b506001600160a01b03813581169160208101359091169060400135610afe565b3480156103c757600080fd5b50610366600480360360408110156103de57600080fd5b506001600160a01b038135169060200135610b55565b34801561040057600080fd5b5061034f610b80565b34801561041557600080fd5b5061034f610bf6565b34801561042a57600080fd5b5061034f6004803603606081101561044157600080fd5b506001600160a01b03813581169160208101359091169060400135610c8b565b34801561046d57600080fd5b506103666004803603602081101561048457600080fd5b5035610ca6565b34801561049757600080fd5b5061034f600480360360208110156104ae57600080fd5b8101906020810181356401000000008111156104c957600080fd5b8201836020820111156104db57600080fd5b803590602001918460018302840111640100000000831117156104fd57600080fd5b91908080601f016020809104026020016040519081016040528093929190818152602001838380828437600092019190915250929550610cbc945050505050565b34801561054a57600080fd5b5061034f6004803603602081101561056157600080fd5b5035610d2a565b34801561057457600080fd5b506102fa6004803603602081101561058b57600080fd5b5035610d91565b34801561059e57600080fd5b5061034f600480360360208110156105b557600080fd5b5035610db9565b3480156105c857600080fd5b50610366610e20565b3480156105dd57600080fd5b5061025b610e26565b3480156105f257600080fd5b506103666004803603602081101561060957600080fd5b50356001600160a01b0316610e87565b34801561062557600080fd5b5061034f610eef565b34801561063a57600080fd5b506102fa6004803603602081101561065157600080fd5b5035610f9b565b61034f6004803603604081101561066e57600080fd5b50803590602001356001600160a01b0316610fb6565b61034f6004803603602081101561069a57600080fd5b5035611114565b3480156106ad57600080fd5b506102fa611260565b61034f600480360360208110156106cc57600080fd5b503561126f565b3480156106df57600080fd5b5061025b611407565b3480156106f457600080fd5b5061034f6004803603604081101561070b57600080fd5b506001600160a01b0381351690602001351515611468565b34801561072f57600080fd5b506102fa6004803603602081101561074657600080fd5b503561156d565b34801561075957600080fd5b50610366611588565b34801561076e57600080fd5b5061034f6004803603608081101561078557600080fd5b6001600160a01b038235811692602081013590911691604082013591908101906080810160608201356401000000008111156107c057600080fd5b8201836020820111156107d257600080fd5b803590602001918460018302840111640100000000831117156107f457600080fd5b91908080601f01602080910402602001604051908101604052809392919081815260200183838082843760009201919091525092955061158e945050505050565b34801561084157600080fd5b5061025b6004803603602081101561085857600080fd5b50356115ec565b34801561086b57600080fd5b5061036661186f565b34801561088057600080fd5b506102326004803603604081101561089757600080fd5b506001600160a01b0381358116916020013516611875565b3480156108bb57600080fd5b506102326118a3565b3480156108d057600080fd5b5061034f600480360360208110156108e757600080fd5b50356001600160a01b03166118ac565b6001600160e01b0319811660009081526020819052604090205460ff165b919050565b60068054604080516020601f60026000196101006001881615020190951694909404938401819004810282018101909252828152606093909290918301828280156109a65780601f1061097b576101008083540402835291602001916109a6565b820191906000526020600020905b81548152906001019060200180831161098957829003601f168201915b5050505050905090565b60006109bb826119af565b6109f65760405162461bcd60e51b815260040180806020018281038252602c8152602001806128e9602c913960400191505060405180910390fd5b506000908152600460205260409020546001600160a01b031690565b6000610a1d82610d91565b9050806001600160a01b0316836001600160a01b03161415610a705760405162461bcd60e51b815260040180806020018281038252602181526020018061298d6021913960400191505060405180910390fd5b806001600160a01b0316610a826119bc565b6001600160a01b03161480610aa35750610aa381610a9e6119bc565b611875565b610ade5760405162461bcd60e51b815260040180806020018281038252603881526020018061281b6038913960400191505060405180910390fd5b610ae883836119c0565b505050565b6000610af96002611a2e565b905090565b610b0f610b096119bc565b82611a39565b610b4a5760405162461bcd60e51b81526004018080602001828103825260318152602001806129ae6031913960400191505060405180910390fd5b610ae8838383611add565b6001600160a01b0382166000908152600160205260408120610b779083611c29565b90505b92915050565b610b886119bc565b6001600160a01b0316610b99611260565b6001600160a01b031614610be2576040805162461bcd60e51b81526020600482018190526024820152600080516020612915833981519152604482015290519081900360640190fd5b6010805460ff19811660ff90911615179055565b610bfe6119bc565b6001600160a01b0316610c0f611260565b6001600160a01b031614610c58576040805162461bcd60e51b81526020600482018190526024820152600080516020612915833981519152604482015290519081900360640190fd5b6040514790339082156108fc029083906000818181858888f19350505050158015610c87573d6000803e3d6000fd5b5050565b610ae88383836040518060200160405280600081525061158e565b600080610cb4600284611c35565b509392505050565b610cc46119bc565b6001600160a01b0316610cd5611260565b6001600160a01b031614610d1e576040805162461bcd60e51b81526020600482018190526024820152600080516020612915833981519152604482015290519081900360640190fd5b610d2781611c51565b50565b610d326119bc565b6001600160a01b0316610d43611260565b6001600160a01b031614610d8c576040805162461bcd60e51b81526020600482018190526024820152600080516020612915833981519152604482015290519081900360640190fd5b600d55565b6000610b7a8260405180606001604052806029815260200161287d6029913960029190611c64565b610dc16119bc565b6001600160a01b0316610dd2611260565b6001600160a01b031614610e1b576040805162461bcd60e51b81526020600482018190526024820152600080516020612915833981519152604482015290519081900360640190fd5b600c55565b600d5481565b60098054604080516020601f60026000196101006001881615020190951694909404938401819004810282018101909252828152606093909290918301828280156109a65780601f1061097b576101008083540402835291602001916109a6565b60006001600160a01b038216610ece5760405162461bcd60e51b815260040180806020018281038252602a815260200180612853602a913960400191505060405180910390fd5b6001600160a01b0382166000908152600160205260409020610b7a90611a2e565b610ef76119bc565b6001600160a01b0316610f08611260565b6001600160a01b031614610f51576040805162461bcd60e51b81526020600482018190526024820152600080516020612915833981519152604482015290519081900360640190fd5b600a546040516000916001600160a01b0316907f8be0079c531659141344cd1fd0a4f28419497f9722a3daafe3b4186f6b6457e0908390a3600a80546001600160a01b0319169055565b6000908152600e60205260409020546001600160a01b031690565b610fbe6119bc565b6001600160a01b0316610fcf611260565b6001600160a01b031614611018576040805162461bcd60e51b81526020600482018190526024820152600080516020612915833981519152604482015290519081900360640190fd5b60105460ff1661106f576040805162461bcd60e51b815260206004820181905260248201527f53616c65206d7573742062652061637469766520746f206d696e74204e465473604482015290519081900360640190fd5b600b546110848361107e610aed565b90611c7b565b11156110c15760405162461bcd60e51b815260040180806020018281038252602881526020018061277d6028913960400191505060405180910390fd5b60005b82811015610ae8576110d93383600f54610c8b565b600f80546000908152600e6020526040902080546001600160a01b0319166001600160a01b03851617905580546001908101909155016110c4565b61111c6119bc565b6001600160a01b031661112d611260565b6001600160a01b031614611176576040805162461bcd60e51b81526020600482018190526024820152600080516020612915833981519152604482015290519081900360640190fd5b60105460ff166111cd576040805162461bcd60e51b815260206004820181905260248201527f53616c65206d7573742062652061637469766520746f206d696e74204e465473604482015290519081900360640190fd5b600b546111dc8261107e610aed565b11156112195760405162461bcd60e51b815260040180806020018281038252602881526020018061277d6028913960400191505060405180910390fd5b60005b81811015610c8757600061122e610aed565b905061123a3382611cd5565b6000908152600e6020526040902080546001600160a01b0319163317905560010161121c565b600a546001600160a01b031690565b60105460ff166112c6576040805162461bcd60e51b815260206004820181905260248201527f53616c65206d7573742062652061637469766520746f206d696e74204e465473604482015290519081900360640190fd5b600b546112d58261107e610aed565b11156113125760405162461bcd60e51b815260040180806020018281038252602881526020018061277d6028913960400191505060405180910390fd5b600c546113228261107e33610e87565b111561135f5760405162461bcd60e51b81526004018080602001828103825260278152602001806129df6027913960400191505060405180910390fd5b600d54349061136e9083611cef565b146113c0576040805162461bcd60e51b815260206004820152601960248201527f56616c75652073656e74206973206e6f7420636f727265637400000000000000604482015290519081900360640190fd5b60005b81811015610c875760006113d5610aed565b90506113e13382611cd5565b6000908152600e6020526040902080546001600160a01b031916331790556001016113c3565b60078054604080516020601f60026000196101006001881615020190951694909404938401819004810282018101909252828152606093909290918301828280156109a65780601f1061097b576101008083540402835291602001916109a6565b6114706119bc565b6001600160a01b0316826001600160a01b031614156114d6576040805162461bcd60e51b815260206004820152601960248201527f4552433732313a20617070726f766520746f2063616c6c657200000000000000604482015290519081900360640190fd5b80600560006114e36119bc565b6001600160a01b03908116825260208083019390935260409182016000908120918716808252919093529120805460ff1916921515929092179091556115276119bc565b6001600160a01b03167f17307eab39ab6107e8899845ad3d59bd9653f200f220920489ca2b5937696c318360405180821515815260200191505060405180910390a35050565b600e602052600090815260409020546001600160a01b031681565b600b5481565b61159f6115996119bc565b83611a39565b6115da5760405162461bcd60e51b81526004018080602001828103825260318152602001806129ae6031913960400191505060405180910390fd5b6115e684848484611d48565b50505050565b60606115f7826119af565b6116325760405162461bcd60e51b815260040180806020018281038252602f81526020018061295e602f913960400191505060405180910390fd5b60008281526008602090815260409182902080548351601f60026000196101006001861615020190931692909204918201849004840281018401909452808452606093928301828280156116c75780601f1061169c576101008083540402835291602001916116c7565b820191906000526020600020905b8154815290600101906020018083116116aa57829003601f168201915b5050505050905060606116d8610e26565b90508051600014156116ec57509050610915565b8151156117ad5780826040516020018083805190602001908083835b602083106117275780518252601f199092019160209182019101611708565b51815160209384036101000a600019018019909216911617905285519190930192850191508083835b6020831061176f5780518252601f199092019160209182019101611750565b6001836020036101000a0380198251168184511680821785525050505050509050019250505060405160208183030381529060405292505050610915565b806117b785611d9a565b6040516020018083805190602001908083835b602083106117e95780518252601f1990920191602091820191016117ca565b51815160209384036101000a600019018019909216911617905285519190930192850191508083835b602083106118315780518252601f199092019160209182019101611812565b6001836020036101000a0380198251168184511680821785525050505050509050019250505060405160208183030381529060405292505050919050565b600c5481565b6001600160a01b03918216600090815260056020908152604080832093909416825291909152205460ff1690565b60105460ff1681565b6118b46119bc565b6001600160a01b03166118c5611260565b6001600160a01b03161461190e576040805162461bcd60e51b81526020600482018190526024820152600080516020612915833981519152604482015290519081900360640190fd5b6001600160a01b0381166119535760405162461bcd60e51b81526004018080602001828103825260268152602001806127a56026913960400191505060405180910390fd5b600a546040516001600160a01b038084169216907f8be0079c531659141344cd1fd0a4f28419497f9722a3daafe3b4186f6b6457e090600090a3600a80546001600160a01b0319166001600160a01b0392909216919091179055565b6000610b7a600283611e75565b3390565b600081815260046020526040902080546001600160a01b0319166001600160a01b03841690811790915581906119f582610d91565b6001600160a01b03167f8c5be1e5ebec7d5bd14f71427d1e84f3dd0314c0f7b2291e5b200ac8c7c3b92560405160405180910390a45050565b6000610b7a82611e81565b6000611a44826119af565b611a7f5760405162461bcd60e51b815260040180806020018281038252602c8152602001806127ef602c913960400191505060405180910390fd5b6000611a8a83610d91565b9050806001600160a01b0316846001600160a01b03161480611ac55750836001600160a01b0316611aba846109b0565b6001600160a01b0316145b80611ad55750611ad58185611875565b949350505050565b826001600160a01b0316611af082610d91565b6001600160a01b031614611b355760405162461bcd60e51b81526004018080602001828103825260298152602001806129356029913960400191505060405180910390fd5b6001600160a01b038216611b7a5760405162461bcd60e51b81526004018080602001828103825260248152602001806127cb6024913960400191505060405180910390fd5b611b85838383610ae8565b611b906000826119c0565b6001600160a01b0383166000908152600160205260409020611bb29082611e85565b506001600160a01b0382166000908152600160205260409020611bd59082611e91565b50611be260028284611e9d565b5080826001600160a01b0316846001600160a01b03167fddf252ad1be2c89b69c2b068fc378daa952ba7f163c4a11628f55a4df523b3ef60405160405180910390a4505050565b6000610b778383611eb3565b6000808080611c448686611f17565b9097909650945050505050565b8051610c87906009906020840190612695565b6000611c71848484611f92565b90505b9392505050565b600082820183811015610b77576040805162461bcd60e51b815260206004820152601b60248201527f536166654d6174683a206164646974696f6e206f766572666c6f770000000000604482015290519081900360640190fd5b610c8782826040518060200160405280600081525061205c565b600082611cfe57506000610b7a565b82820282848281611d0b57fe5b0414610b775760405162461bcd60e51b81526004018080602001828103825260218152602001806128c86021913960400191505060405180910390fd5b611d53848484611add565b611d5f848484846120ae565b6115e65760405162461bcd60e51b815260040180806020018281038252603281526020018061274b6032913960400191505060405180910390fd5b606081611dbf57506040805180820190915260018152600360fc1b6020820152610915565b8160005b8115611dd757600101600a82049150611dc3565b60608167ffffffffffffffff81118015611df057600080fd5b506040519080825280601f01601f191660200182016040528015611e1b576020820181803683370190505b50859350905060001982015b8315611e6c57600a840660300160f81b82828060019003935081518110611e4a57fe5b60200101906001600160f81b031916908160001a905350600a84049350611e27565b50949350505050565b6000610b778383612216565b5490565b6000610b77838361222e565b6000610b7783836122f4565b6000611c7184846001600160a01b03851661233e565b81546000908210611ef55760405162461bcd60e51b81526004018080602001828103825260228152602001806127296022913960400191505060405180910390fd5b826000018281548110611f0457fe5b9060005260206000200154905092915050565b815460009081908310611f5b5760405162461bcd60e51b81526004018080602001828103825260228152602001806128a66022913960400191505060405180910390fd5b6000846000018481548110611f6c57fe5b906000526020600020906002020190508060000154816001015492509250509250929050565b6000828152600184016020526040812054828161202d5760405162461bcd60e51b81526004018080602001828103825283818151815260200191508051906020019080838360005b83811015611ff2578181015183820152602001611fda565b50505050905090810190601f16801561201f5780820380516001836020036101000a031916815260200191505b509250505060405180910390fd5b5084600001600182038154811061204057fe5b9060005260206000209060020201600101549150509392505050565b61206683836123d5565b61207360008484846120ae565b610ae85760405162461bcd60e51b815260040180806020018281038252603281526020018061274b6032913960400191505060405180910390fd5b60006120c2846001600160a01b0316612503565b6120ce57506001611ad5565b60606121dc630a85bd0160e11b6120e36119bc565b88878760405160240180856001600160a01b03168152602001846001600160a01b0316815260200183815260200180602001828103825283818151815260200191508051906020019080838360005b8381101561214a578181015183820152602001612132565b50505050905090810190601f1680156121775780820380516001836020036101000a031916815260200191505b5095505050505050604051602081830303815290604052906001600160e01b0319166020820180516001600160e01b03838183161783525050505060405180606001604052806032815260200161274b603291396001600160a01b0388169190612509565b905060008180602001905160208110156121f557600080fd5b50516001600160e01b031916630a85bd0160e11b1492505050949350505050565b60009081526001919091016020526040902054151590565b600081815260018301602052604081205480156122ea578354600019808301919081019060009087908390811061226157fe5b906000526020600020015490508087600001848154811061227e57fe5b6000918252602080832090910192909255828152600189810190925260409020908401905586548790806122ae57fe5b60019003818190600052602060002001600090559055866001016000878152602001908152602001600020600090556001945050505050610b7a565b6000915050610b7a565b60006123008383612216565b61233657508154600181810184556000848152602080822090930184905584548482528286019093526040902091909155610b7a565b506000610b7a565b6000828152600184016020526040812054806123a3575050604080518082018252838152602080820184815286546001818101895560008981528481209551600290930290950191825591519082015586548684528188019092529290912055611c74565b828560000160018303815481106123b657fe5b9060005260206000209060020201600101819055506000915050611c74565b6001600160a01b038216612430576040805162461bcd60e51b815260206004820181905260248201527f4552433732313a206d696e7420746f20746865207a65726f2061646472657373604482015290519081900360640190fd5b612439816119af565b1561248b576040805162461bcd60e51b815260206004820152601c60248201527f4552433732313a20746f6b656e20616c7265616479206d696e74656400000000604482015290519081900360640190fd5b61249760008383610ae8565b6001600160a01b03821660009081526001602052604090206124b99082611e91565b506124c660028284611e9d565b5060405181906001600160a01b038416906000907fddf252ad1be2c89b69c2b068fc378daa952ba7f163c4a11628f55a4df523b3ef908290a45050565b3b151590565b6060611c7184846000858561251d85612503565b61256e576040805162461bcd60e51b815260206004820152601d60248201527f416464726573733a2063616c6c20746f206e6f6e2d636f6e7472616374000000604482015290519081900360640190fd5b60006060866001600160a01b031685876040518082805190602001908083835b602083106125ad5780518252601f19909201916020918201910161258e565b6001836020036101000a03801982511681845116808217855250505050505090500191505060006040518083038185875af1925050503d806000811461260f576040519150601f19603f3d011682016040523d82523d6000602084013e612614565b606091505b509150915061262482828661262f565b979650505050505050565b6060831561263e575081611c74565b82511561264e5782518084602001fd5b60405162461bcd60e51b8152602060048201818152845160248401528451859391928392604401919085019080838360008315611ff2578181015183820152602001611fda565b828054600181600116156101000203166002900490600052602060002090601f016020900481019282601f106126d657805160ff1916838001178555612703565b82800160010185558215612703579182015b828111156127035782518255916020019190600101906126e8565b5061270f929150612713565b5090565b5b8082111561270f576000815560010161271456fe456e756d657261626c655365743a20696e646578206f7574206f6620626f756e64734552433732313a207472616e7366657220746f206e6f6e20455243373231526563656976657220696d706c656d656e746572507572636861736520776f756c6420657863656564206d617820737570706c79206f66204e4654734f776e61626c653a206e6577206f776e657220697320746865207a65726f20616464726573734552433732313a207472616e7366657220746f20746865207a65726f20616464726573734552433732313a206f70657261746f7220717565727920666f72206e6f6e6578697374656e7420746f6b656e4552433732313a20617070726f76652063616c6c6572206973206e6f74206f776e6572206e6f7220617070726f76656420666f7220616c6c4552433732313a2062616c616e636520717565727920666f7220746865207a65726f20616464726573734552433732313a206f776e657220717565727920666f72206e6f6e6578697374656e7420746f6b656e456e756d657261626c654d61703a20696e646578206f7574206f6620626f756e6473536166654d6174683a206d756c7469706c69636174696f6e206f766572666c6f774552433732313a20617070726f76656420717565727920666f72206e6f6e6578697374656e7420746f6b656e4f776e61626c653a2063616c6c6572206973206e6f7420746865206f776e65724552433732313a207472616e73666572206f6620746f6b656e2074686174206973206e6f74206f776e4552433732314d657461646174613a2055524920717565727920666f72206e6f6e6578697374656e7420746f6b656e4552433732313a20617070726f76616c20746f2063757272656e74206f776e65724552433732313a207472616e736665722063616c6c6572206973206e6f74206f776e6572206e6f7220617070726f76656450757263686173652065786365656473206d617820616c6c6f776564207065722077616c6c6574a26469706673582212207905ce07105aa9aa13ee4e9b4d7b7e49b41f56648b89e936ef41315dc93a150a64736f6c63430007000033",
  "linkReferences": {},
  "deployedLinkReferences": {}
}