{
  "_format": "hh-sol-artifact-1",
  "contractName": "OpenMarketplace",
  "sourceName": "contracts/marketplace.sol",
  "abi": [
    {
      "inputs": [],
      "stateMutability": "nonpayable",
      "type": "constructor"
    },
    {
      "anonymous": false,
      "inputs": [
        {
          "indexed": false,
          "internalType": "bytes32",
          "name": "id",
          "type": "bytes32"
        }
      ],
      "name": "BidAccepted",
      "type": "event"
    },
    {
      "anonymous": false,
      "inputs": [
        {
          "indexed": false,
          "internalType": "bytes32",
          "name": "id",
          "type": "bytes32"
        }
      ],
      "name": "BidCancelled",
      "type": "event"
    },
    {
      "anonymous": false,
      "inputs": [
        {
          "indexed": false,
          "internalType": "bytes32",
          "name": "id",
          "type": "bytes32"
        },
        {
          "indexed": true,
          "internalType": "address",
          "name": "nftAddress",
          "type": "address"
        },
        {
          "indexed": true,
          "internalType": "uint256",
          "name": "assetId",
          "type": "uint256"
        },
        {
          "indexed": true,
          "internalType": "address",
          "name": "bidder",
          "type": "address"
        },
        {
          "indexed": false,
          "internalType": "uint256",
          "name": "priceInWei",
          "type": "uint256"
        },
        {
          "indexed": false,
          "internalType": "uint256",
          "name": "expiresAt",
          "type": "uint256"
        }
      ],
      "name": "BidCreated",
      "type": "event"
    },
    {
      "anonymous": false,
      "inputs": [
        {
          "indexed": false,
          "internalType": "uint256",
          "name": "cutPerMillion",
          "type": "uint256"
        }
      ],
      "name": "ChangedFeePerMillion",
      "type": "event"
    },
    {
      "anonymous": false,
      "inputs": [
        {
          "indexed": false,
          "internalType": "bytes32",
          "name": "id",
          "type": "bytes32"
        }
      ],
      "name": "OrderCancelled",
      "type": "event"
    },
    {
      "anonymous": false,
      "inputs": [
        {
          "indexed": false,
          "internalType": "bytes32",
          "name": "id",
          "type": "bytes32"
        },
        {
          "indexed": true,
          "internalType": "address",
          "name": "seller",
          "type": "address"
        },
        {
          "indexed": true,
          "internalType": "address",
          "name": "nftAddress",
          "type": "address"
        },
        {
          "indexed": true,
          "internalType": "uint256",
          "name": "assetId",
          "type": "uint256"
        },
        {
          "indexed": false,
          "internalType": "uint256",
          "name": "priceInWei",
          "type": "uint256"
        },
        {
          "indexed": false,
          "internalType": "uint256",
          "name": "expiresAt",
          "type": "uint256"
        },
        {
          "indexed": false,
          "internalType": "address",
          "name": "currency",
          "type": "address"
        }
      ],
      "name": "OrderCreated",
      "type": "event"
    },
    {
      "anonymous": false,
      "inputs": [
        {
          "indexed": false,
          "internalType": "bytes32",
          "name": "id",
          "type": "bytes32"
        },
        {
          "indexed": true,
          "internalType": "address",
          "name": "buyer",
          "type": "address"
        },
        {
          "indexed": false,
          "internalType": "uint256",
          "name": "priceInWei",
          "type": "uint256"
        }
      ],
      "name": "OrderSuccessful",
      "type": "event"
    },
    {
      "anonymous": false,
      "inputs": [
        {
          "indexed": false,
          "internalType": "bytes32",
          "name": "id",
          "type": "bytes32"
        },
        {
          "indexed": false,
          "internalType": "uint256",
          "name": "priceInWei",
          "type": "uint256"
        },
        {
          "indexed": false,
          "internalType": "uint256",
          "name": "expiresAt",
          "type": "uint256"
        }
      ],
      "name": "OrderUpdated",
      "type": "event"
    },
    {
      "anonymous": false,
      "inputs": [
        {
          "indexed": true,
          "internalType": "address",
          "name": "previousOwner",
          "type": "address"
        },
        {
          "indexed": true,
          "internalType": "address",
          "name": "newOwner",
          "type": "address"
        }
      ],
      "name": "OwnershipTransferred",
      "type": "event"
    },
    {
      "anonymous": false,
      "inputs": [
        {
          "indexed": false,
          "internalType": "address",
          "name": "account",
          "type": "address"
        }
      ],
      "name": "Paused",
      "type": "event"
    },
    {
      "anonymous": false,
      "inputs": [
        {
          "indexed": false,
          "internalType": "address",
          "name": "account",
          "type": "address"
        }
      ],
      "name": "Unpaused",
      "type": "event"
    },
    {
      "inputs": [],
      "name": "MARKETPLACE_ETHER",
      "outputs": [
        {
          "internalType": "address",
          "name": "",
          "type": "address"
        }
      ],
      "stateMutability": "view",
      "type": "function"
    },
    {
      "inputs": [
        {
          "internalType": "address",
          "name": "_nftAddress",
          "type": "address"
        },
        {
          "internalType": "uint256",
          "name": "_assetId",
          "type": "uint256"
        },
        {
          "internalType": "uint256",
          "name": "_priceInWei",
          "type": "uint256"
        }
      ],
      "name": "acceptBid",
      "outputs": [],
      "stateMutability": "nonpayable",
      "type": "function"
    },
    {
      "inputs": [
        {
          "internalType": "address",
          "name": "",
          "type": "address"
        }
      ],
      "name": "acceptedCurrencies",
      "outputs": [
        {
          "internalType": "bool",
          "name": "",
          "type": "bool"
        }
      ],
      "stateMutability": "view",
      "type": "function"
    },
    {
      "inputs": [
        {
          "internalType": "address",
          "name": "_nftAddress",
          "type": "address"
        },
        {
          "internalType": "uint256",
          "name": "_nftId",
          "type": "uint256"
        },
        {
          "internalType": "address",
          "name": "_creator",
          "type": "address"
        }
      ],
      "name": "addNFT",
      "outputs": [],
      "stateMutability": "nonpayable",
      "type": "function"
    },
    {
      "inputs": [
        {
          "internalType": "address",
          "name": "",
          "type": "address"
        },
        {
          "internalType": "uint256",
          "name": "",
          "type": "uint256"
        }
      ],
      "name": "bidByOrderId",
      "outputs": [
        {
          "internalType": "bytes32",
          "name": "id",
          "type": "bytes32"
        },
        {
          "internalType": "address",
          "name": "bidder",
          "type": "address"
        },
        {
          "internalType": "uint256",
          "name": "price",
          "type": "uint256"
        },
        {
          "internalType": "uint256",
          "name": "expiresAt",
          "type": "uint256"
        }
      ],
      "stateMutability": "view",
      "type": "function"
    },
    {
      "inputs": [
        {
          "internalType": "address",
          "name": "_nftAddress",
          "type": "address"
        },
        {
          "internalType": "uint256",
          "name": "_assetId",
          "type": "uint256"
        }
      ],
      "name": "cancelBid",
      "outputs": [],
      "stateMutability": "nonpayable",
      "type": "function"
    },
    {
      "inputs": [
        {
          "internalType": "address",
          "name": "_nftAddress",
          "type": "address"
        },
        {
          "internalType": "uint256",
          "name": "_assetId",
          "type": "uint256"
        }
      ],
      "name": "cancelOrder",
      "outputs": [],
      "stateMutability": "nonpayable",
      "type": "function"
    },
    {
      "inputs": [
        {
          "internalType": "address",
          "name": "_nftAddress",
          "type": "address"
        },
        {
          "internalType": "uint256",
          "name": "_assetId",
          "type": "uint256"
        },
        {
          "internalType": "uint256",
          "name": "_priceInWei",
          "type": "uint256"
        },
        {
          "internalType": "uint256",
          "name": "_royalty",
          "type": "uint256"
        },
        {
          "internalType": "uint256",
          "name": "_expiresAt",
          "type": "uint256"
        },
        {
          "internalType": "address",
          "name": "_currency",
          "type": "address"
        }
      ],
      "name": "createOrder",
      "outputs": [],
      "stateMutability": "nonpayable",
      "type": "function"
    },
    {
      "inputs": [
        {
          "internalType": "address",
          "name": "_nftAddress",
          "type": "address"
        },
        {
          "internalType": "uint256",
          "name": "_assetId",
          "type": "uint256"
        },
        {
          "internalType": "uint256",
          "name": "_priceInWei",
          "type": "uint256"
        },
        {
          "internalType": "uint256",
          "name": "_royalty",
          "type": "uint256"
        },
        {
          "internalType": "uint256",
          "name": "_expiresAt",
          "type": "uint256"
        },
        {
          "internalType": "address",
          "name": "_currency",
          "type": "address"
        },
        {
          "internalType": "address",
          "name": "_actualOwner",
          "type": "address"
        }
      ],
      "name": "createOrderAdmin",
      "outputs": [],
      "stateMutability": "nonpayable",
      "type": "function"
    },
    {
      "inputs": [],
      "name": "cutPerMillion",
      "outputs": [
        {
          "internalType": "uint256",
          "name": "",
          "type": "uint256"
        }
      ],
      "stateMutability": "view",
      "type": "function"
    },
    {
      "inputs": [
        {
          "internalType": "address",
          "name": "_nftAddresss",
          "type": "address"
        },
        {
          "internalType": "uint256",
          "name": "_assetId",
          "type": "uint256"
        }
      ],
      "name": "getTokenMinterTesting",
      "outputs": [
        {
          "internalType": "address",
          "name": "",
          "type": "address"
        }
      ],
      "stateMutability": "view",
      "type": "function"
    },
    {
      "inputs": [],
      "name": "maxCutPerMillion",
      "outputs": [
        {
          "internalType": "uint256",
          "name": "",
          "type": "uint256"
        }
      ],
      "stateMutability": "view",
      "type": "function"
    },
    {
      "inputs": [
        {
          "internalType": "address",
          "name": "",
          "type": "address"
        },
        {
          "internalType": "address",
          "name": "",
          "type": "address"
        },
        {
          "internalType": "uint256",
          "name": "",
          "type": "uint256"
        },
        {
          "internalType": "bytes",
          "name": "",
          "type": "bytes"
        }
      ],
      "name": "onERC721Received",
      "outputs": [
        {
          "internalType": "bytes4",
          "name": "",
          "type": "bytes4"
        }
      ],
      "stateMutability": "nonpayable",
      "type": "function"
    },
    {
      "inputs": [
        {
          "internalType": "address",
          "name": "",
          "type": "address"
        },
        {
          "internalType": "uint256",
          "name": "",
          "type": "uint256"
        }
      ],
      "name": "orderByAssetId",
      "outputs": [
        {
          "internalType": "bytes32",
          "name": "id",
          "type": "bytes32"
        },
        {
          "internalType": "address",
          "name": "seller",
          "type": "address"
        },
        {
          "internalType": "address",
          "name": "nftAddress",
          "type": "address"
        },
        {
          "internalType": "uint256",
          "name": "price",
          "type": "uint256"
        },
        {
          "internalType": "uint256",
          "name": "royalty",
          "type": "uint256"
        },
        {
          "internalType": "uint256",
          "name": "expiresAt",
          "type": "uint256"
        },
        {
          "internalType": "address",
          "name": "currency",
          "type": "address"
        }
      ],
      "stateMutability": "view",
      "type": "function"
    },
    {
      "inputs": [],
      "name": "owner",
      "outputs": [
        {
          "internalType": "address",
          "name": "",
          "type": "address"
        }
      ],
      "stateMutability": "view",
      "type": "function"
    },
    {
      "inputs": [],
      "name": "paused",
      "outputs": [
        {
          "internalType": "bool",
          "name": "",
          "type": "bool"
        }
      ],
      "stateMutability": "view",
      "type": "function"
    },
    {
      "inputs": [],
      "name": "renounceOwnership",
      "outputs": [],
      "stateMutability": "nonpayable",
      "type": "function"
    },
    {
      "inputs": [
        {
          "internalType": "address",
          "name": "_nftAddress",
          "type": "address"
        },
        {
          "internalType": "uint256",
          "name": "_assetId",
          "type": "uint256"
        },
        {
          "internalType": "uint256",
          "name": "_priceInWei",
          "type": "uint256"
        }
      ],
      "name": "safeExecuteOrder",
      "outputs": [],
      "stateMutability": "payable",
      "type": "function"
    },
    {
      "inputs": [
        {
          "internalType": "address",
          "name": "_nftAddress",
          "type": "address"
        },
        {
          "internalType": "uint256",
          "name": "_assetId",
          "type": "uint256"
        },
        {
          "internalType": "uint256",
          "name": "_priceInWei",
          "type": "uint256"
        },
        {
          "internalType": "uint256",
          "name": "_expiresAt",
          "type": "uint256"
        }
      ],
      "name": "safePlaceBid",
      "outputs": [],
      "stateMutability": "payable",
      "type": "function"
    },
    {
      "inputs": [
        {
          "internalType": "address",
          "name": "_nftAddress",
          "type": "address"
        },
        {
          "internalType": "uint256",
          "name": "_assetId",
          "type": "uint256"
        },
        {
          "internalType": "uint256",
          "name": "_priceInWei",
          "type": "uint256"
        },
        {
          "internalType": "uint256",
          "name": "_expiresAt",
          "type": "uint256"
        },
        {
          "internalType": "address",
          "name": "_actualBidder",
          "type": "address"
        }
      ],
      "name": "safePlaceBidAdmin",
      "outputs": [],
      "stateMutability": "payable",
      "type": "function"
    },
    {
      "inputs": [
        {
          "internalType": "address",
          "name": "_token",
          "type": "address"
        },
        {
          "internalType": "bool",
          "name": "_status",
          "type": "bool"
        }
      ],
      "name": "setCurrency",
      "outputs": [],
      "stateMutability": "nonpayable",
      "type": "function"
    },
    {
      "inputs": [
        {
          "internalType": "uint256",
          "name": "_cutPerMillion",
          "type": "uint256"
        }
      ],
      "name": "setOwnerCutPerMillion",
      "outputs": [],
      "stateMutability": "nonpayable",
      "type": "function"
    },
    {
      "inputs": [
        {
          "internalType": "bool",
          "name": "_setPaused",
          "type": "bool"
        }
      ],
      "name": "setPaused",
      "outputs": [],
      "stateMutability": "nonpayable",
      "type": "function"
    },
    {
      "inputs": [
        {
          "internalType": "address",
          "name": "newOwner",
          "type": "address"
        }
      ],
      "name": "transferOwnership",
      "outputs": [],
      "stateMutability": "nonpayable",
      "type": "function"
    },
    {
      "inputs": [
        {
          "internalType": "address",
          "name": "_nftAddress",
          "type": "address"
        },
        {
          "internalType": "uint256",
          "name": "_assetId",
          "type": "uint256"
        },
        {
          "internalType": "uint256",
          "name": "_priceInWei",
          "type": "uint256"
        },
        {
          "internalType": "uint256",
          "name": "_expiresAt",
          "type": "uint256"
        }
      ],
      "name": "updateOrder",
      "outputs": [],
      "stateMutability": "nonpayable",
      "type": "function"
    }
  ],
  "bytecode": "0x60806040523480156200001157600080fd5b5060006200001e620000cb565b600080546001600160a01b0319166001600160a01b0383169081178255604051929350917f8be0079c531659141344cd1fd0a4f28419497f9722a3daafe3b4186f6b6457e0908290a3506000805460ff60a01b191681556001600281905573eeeeeeeeeeeeeeeeeeeeeeeeeeeeeeeeeeeeeeee90915260066020527fa2e5aefc6e2cbe2917a296f0fd89c5f915c487c803db1d98eccb43f14012d711805460ff19169091179055620000cf565b3390565b613ee680620000df6000396000f3fe6080604052600436106101665760003560e01c8063715018a6116100d1578063d2730b441161008a578063e904305111610064578063e90430511461070b578063f2e2e2aa1461074d578063f2fde38b14610780578063fcedebd2146107b357610166565b8063d2730b44146105f0578063e13a40f01461064d578063e61f38511461068c57610166565b8063715018a6146104b05780638da5cb5b146104c55780639e36d04f146104f6578063c555e0501461052f578063cd08bfe114610544578063cf7ce01f146105ab57610166565b80633ac44917116101235780633ac44917146103565780634fe8419d146103915780635c975abb146103e4578063673c85531461040d5780636a206137146104345780636fea620e1461046d57610166565b8063150b7a021461016b57806316c38b3c1461025b57806319dad16d146102895780631d22da91146102b357806338940b5b146102eb57806339b6b1e51461031d575b600080fd5b34801561017757600080fd5b5061023e6004803603608081101561018e57600080fd5b6001600160a01b038235811692602081013590911691604082013591908101906080810160608201356401000000008111156101c957600080fd5b8201836020820111156101db57600080fd5b803590602001918460018302840111640100000000831117156101fd57600080fd5b91908080601f0160208091040260200160405190810160405280939291908181526020018383808284376000920191909152509295506107c8945050505050565b604080516001600160e01b03199092168252519081900360200190f35b34801561026757600080fd5b506102876004803603602081101561027e57600080fd5b503515156107d9565b005b34801561029557600080fd5b50610287600480360360208110156102ac57600080fd5b503561084e565b610287600480360360808110156102c957600080fd5b506001600160a01b038135169060208101359060408101359060600135610923565b6102876004803603606081101561030157600080fd5b506001600160a01b038135169060208101359060400135610a30565b34801561032957600080fd5b506102876004803603604081101561034057600080fd5b506001600160a01b038135169060200135610ffa565b34801561036257600080fd5b506102876004803603604081101561037957600080fd5b506001600160a01b038135169060200135151561113f565b34801561039d57600080fd5b50610287600480360360c08110156103b457600080fd5b506001600160a01b03813581169160208101359160408201359160608101359160808201359160a001351661120f565b3480156103f057600080fd5b506103f9611277565b604080519115158252519081900360200190f35b34801561041957600080fd5b50610422611287565b60408051918252519081900360200190f35b34801561044057600080fd5b506102876004803603604081101561045757600080fd5b506001600160a01b03813516906020013561128d565b34801561047957600080fd5b506102876004803603606081101561049057600080fd5b506001600160a01b0381358116916020810135916040909101351661146a565b3480156104bc57600080fd5b50610287611616565b3480156104d157600080fd5b506104da6116b8565b604080516001600160a01b039092168252519081900360200190f35b34801561050257600080fd5b506104da6004803603604081101561051957600080fd5b506001600160a01b0381351690602001356116c7565b34801561053b57600080fd5b50610422611744565b34801561055057600080fd5b5061057d6004803603604081101561056757600080fd5b506001600160a01b03813516906020013561174b565b604080519485526001600160a01b039093166020850152838301919091526060830152519081900360800190f35b3480156105b757600080fd5b50610287600480360360808110156105ce57600080fd5b506001600160a01b038135169060208101359060408101359060600135611787565b3480156105fc57600080fd5b50610287600480360360e081101561061357600080fd5b506001600160a01b03813581169160208101359160408201359160608101359160808201359160a081013582169160c090910135166119e6565b34801561065957600080fd5b506102876004803603606081101561067057600080fd5b506001600160a01b038135169060208101359060400135611a47565b34801561069857600080fd5b506106c5600480360360408110156106af57600080fd5b506001600160a01b038135169060200135612028565b604080519788526001600160a01b039687166020890152948616878601526060870193909352608086019190915260a085015290911660c0830152519081900360e00190f35b610287600480360360a081101561072157600080fd5b506001600160a01b0381358116916020810135916040820135916060810135916080909101351661207d565b34801561075957600080fd5b506103f96004803603602081101561077057600080fd5b50356001600160a01b03166121e5565b34801561078c57600080fd5b50610287600480360360208110156107a357600080fd5b50356001600160a01b03166121fa565b3480156107bf57600080fd5b506104da6122f2565b630a85bd0160e11b5b949350505050565b6107e1612304565b6000546001600160a01b03908116911614610831576040805162461bcd60e51b81526020600482018190526024820152600080516020613ddc833981519152604482015290519081900360640190fd5b806108435761083e612308565b61084b565b61084b6123b0565b50565b610856612304565b6000546001600160a01b039081169116146108a6576040805162461bcd60e51b81526020600482018190526024820152600080516020613ddc833981519152604482015290519081900360640190fd5b62030d408111156108e85760405162461bcd60e51b8152600401808060200182810382526036815260200180613e7b6036913960400191505060405180910390fd5b60018190556040805182815290517fdb629698afb23c88e17ec4d29f97b3907c3e1fbfd116fa15f97569c7c16b3e4d9181900360200190a150565b600054600160a01b900460ff1615610975576040805162461bcd60e51b815260206004820152601060248201526f14185d5cd8589b194e881c185d5cd95960821b604482015290519081900360640190fd5b6002805414156109cc576040805162461bcd60e51b815260206004820152601f60248201527f5265656e7472616e637947756172643a207265656e7472616e742063616c6c00604482015290519081900360640190fd5b600280556109d8613bfd565b6109e2858561243e565b60c08101519091506001600160a01b0316600080516020613dbc83398151915214610a1857610a138585858561256b565b610a24565b610a248585348561256b565b50506001600255505050565b600054600160a01b900460ff1615610a82576040805162461bcd60e51b815260206004820152601060248201526f14185d5cd8589b194e881c185d5cd95960821b604482015290519081900360640190fd5b610a8a613bfd565b610a94848461243e565b60208101519091506001600160a01b0316331415610af9576040805162461bcd60e51b815260206004820181905260248201527f4d61726b6574706c6163653a20756e617574686f72697a65642073656e646572604482015290519081900360640190fd5b60c08101516001600160a01b0316600080516020613dbc83398151915214610b785781816060015114610b73576040805162461bcd60e51b815260206004820152601a60248201527f4d61726b6574706c6163653a20696e76616c6964207072696365000000000000604482015290519081900360640190fd5b610bd0565b34816060015114610bd0576040805162461bcd60e51b815260206004820152601a60248201527f4d61726b6574706c6163653a20696e76616c6964207072696365000000000000604482015290519081900360640190fd5b60015460009015610c8f57610c01620f4240610bfb600154856060015161291290919063ffffffff16565b90612972565b60c08301519091506001600160a01b0316600080516020613dbc83398151915214610c4d57610c4833610c326116b8565b60c08501516001600160a01b03169190846129b4565b610c8f565b610c556116b8565b6001600160a01b03166108fc829081150290604051600060405180830381858888f19350505050158015610c8d573d6000803e3d6000fd5b505b60008260800151600014610ea557610cbe612710610bfb8560800151866060015161291290919063ffffffff16565b9050336001600160a01b031683604001516001600160a01b031663d0e4f396876040518263ffffffff1660e01b81526004018082815260200191505060206040518083038186803b158015610d1257600080fd5b505afa158015610d26573d6000803e3d6000fd5b505050506040513d6020811015610d3c57600080fd5b50516001600160a01b0316141580610d7e57506040808401516001600160a01b0390811660009081526004602090815283822089835290529190912054163314155b15610ea5576040808401516001600160a01b03908116600090815260046020908152838220898352905291909120541680610e2a5783604001516001600160a01b031663d0e4f396876040518263ffffffff1660e01b81526004018082815260200191505060206040518083038186803b158015610dfb57600080fd5b505afa158015610e0f573d6000803e3d6000fd5b505050506040513d6020811015610e2557600080fd5b505190505b60c08401516001600160a01b0316600080516020613dbc83398151915214610e6b5760c0840151610e66906001600160a01b03163383856129b4565b610ea3565b6040516001600160a01b0382169083156108fc029084906000818181858888f19350505050158015610ea1573d6000803e3d6000fd5b505b505b60c08301516001600160a01b0316600080516020613dbc83398151915214610f0c57610f07338460200151610ef184610eeb878960600151612a0e90919063ffffffff16565b90612a0e565b60c08701516001600160a01b03169291906129b4565b610f62565b82602001516001600160a01b03166108fc610f3883610eeb868860600151612a0e90919063ffffffff16565b6040518115909202916000818181858888f19350505050158015610f60573d6000803e3d6000fd5b505b610f6a613c39565b506001600160a01b0380871660009081526005602090815260408083208984528252918290208251608081018452815480825260018301549095169281019290925260028101549282019290925260039091015460608201529015610fe257610fe28160000151888884602001518560400151612a50565b8351610ff19033898989612b5b565b50505050505050565b600054600160a01b900460ff161561104c576040805162461bcd60e51b815260206004820152601060248201526f14185d5cd8589b194e881c185d5cd95960821b604482015290519081900360640190fd5b611054613c39565b506001600160a01b038083166000908152600560209081526040808320858452825291829020825160808101845281548152600182015490941691840182905260028101549284019290925260039091015460608301523314806110d057506110bb6116b8565b6001600160a01b0316336001600160a01b0316145b611121576040805162461bcd60e51b815260206004820181905260248201527f4d61726b6574706c6163653a20556e617574686f72697a65642073656e646572604482015290519081900360640190fd5b61113a8160000151848484602001518560400151612a50565b505050565b611147612304565b6000546001600160a01b03908116911614611197576040805162461bcd60e51b81526020600482018190526024820152600080516020613ddc833981519152604482015290519081900360640190fd5b6111a9826001600160a01b0316612c72565b6111e45760405162461bcd60e51b8152600401808060200182810382526036815260200180613c616036913960400191505060405180910390fd5b6001600160a01b03919091166000908152600660205260409020805460ff1916911515919091179055565b600054600160a01b900460ff1615611261576040805162461bcd60e51b815260206004820152601060248201526f14185d5cd8589b194e881c185d5cd95960821b604482015290519081900360640190fd5b61126f868686868686612cab565b505050505050565b600054600160a01b900460ff1690565b60015481565b600054600160a01b900460ff16156112df576040805162461bcd60e51b815260206004820152601060248201526f14185d5cd8589b194e881c185d5cd95960821b604482015290519081900360640190fd5b6112e7613bfd565b506001600160a01b038083166000908152600360208181526040808420868552825292839020835160e0810185528154815260018201548616928101839052600282015486169481019490945291820154606084015260048201546080840152600582015460a084015260069091015490921660c08201529033148061138557506113706116b8565b6001600160a01b0316336001600160a01b0316145b6113d6576040805162461bcd60e51b815260206004820181905260248201527f4d61726b6574706c6163653a20756e617574686f72697a65642073656e646572604482015290519081900360640190fd5b6113de613c39565b506001600160a01b0380841660009081526005602090815260408083208684528252918290208251608081018452815480825260018301549095169281019290925260028101549282019290925260039091015460608201529015611456576114568160000151858584602001518560400151612a50565b81516114649085853361307d565b50505050565b611472612304565b6000546001600160a01b039081169116146114c2576040805162461bcd60e51b81526020600482018190526024820152600080516020613ddc833981519152604482015290519081900360640190fd5b6001600160a01b038316611513576040805162461bcd60e51b8152602060048201526013602482015272496e76616c6964204e4654204164647265737360681b604482015290519081900360640190fd5b6001600160a01b03811661156e576040805162461bcd60e51b815260206004820152601760248201527f496e76616c69642043726561746f722041646472657373000000000000000000604482015290519081900360640190fd5b6001600160a01b03838116600090815260046020908152604080832086845290915290205416156115db576040805162461bcd60e51b81526020600482015260126024820152714e465420616c72656164792065786973747360701b604482015290519081900360640190fd5b6001600160a01b0392831660009081526004602090815260408083209483529390529190912080546001600160a01b03191691909216179055565b61161e612304565b6000546001600160a01b0390811691161461166e576040805162461bcd60e51b81526020600482018190526024820152600080516020613ddc833981519152604482015290519081900360640190fd5b600080546040516001600160a01b03909116907f8be0079c531659141344cd1fd0a4f28419497f9722a3daafe3b4186f6b6457e0908390a3600080546001600160a01b0319169055565b6000546001600160a01b031690565b600080836001600160a01b031663d0e4f396846040518263ffffffff1660e01b81526004018082815260200191505060206040518083038186803b15801561170e57600080fd5b505afa158015611722573d6000803e3d6000fd5b505050506040513d602081101561173857600080fd5b50519150505b92915050565b62030d4081565b6005602090815260009283526040808420909152908252902080546001820154600283015460039093015491926001600160a01b039091169184565b600054600160a01b900460ff16156117d9576040805162461bcd60e51b815260206004820152601060248201526f14185d5cd8589b194e881c185d5cd95960821b604482015290519081900360640190fd5b6001600160a01b03841660009081526003602090815260408083208684529091529020805461184f576040805162461bcd60e51b815260206004820181905260248201527f4d61726b6574706c6163653a206173736574206e6f74207075626c6973686564604482015290519081900360640190fd5b60018101546001600160a01b031633146118b0576040805162461bcd60e51b815260206004820152601f60248201527f4d61726b6574706c6163653a2073656e646572206e6f7420616c6c6f77656400604482015290519081900360640190fd5b4281600501541015611909576040805162461bcd60e51b815260206004820152601a60248201527f4d61726b6574706c6163653a206f726465722065787069726564000000000000604482015290519081900360640190fd5b600083116119485760405162461bcd60e51b815260040180806020018281038252602a815260200180613d00602a913960400191505060405180910390fd5b61195342603c613181565b82116119905760405162461bcd60e51b8152600401808060200182810382526043815260200180613cbd6043913960600191505060405180910390fd5b600381018390556005810182905580546040805191825260208201859052818101849052517f37de993802f8ab9c75f6d7d3065ba8ab95ce30051219b14251415925e68e0a489181900360600190a15050505050565b600054600160a01b900460ff1615611a38576040805162461bcd60e51b815260206004820152601060248201526f14185d5cd8589b194e881c185d5cd95960821b604482015290519081900360640190fd5b610ff1878787878787876131db565b600054600160a01b900460ff1615611a99576040805162461bcd60e51b815260206004820152601060248201526f14185d5cd8589b194e881c185d5cd95960821b604482015290519081900360640190fd5b611aa1613bfd565b611aab848461243e565b60208101519091506001600160a01b03163314611b0f576040805162461bcd60e51b815260206004820181905260248201527f4d61726b6574706c6163653a20756e617574686f72697a65642073656e646572604482015290519081900360640190fd5b611b17613c39565b506001600160a01b03808516600090815260056020908152604080832087845282529182902082516080810184528154815260018201549094169184019190915260028101549183018290526003015460608301528314611bbf576040805162461bcd60e51b815260206004820152601e60248201527f4d61726b6574706c6163653a20696e76616c6964206269642070726963650000604482015290519081900360640190fd5b4281606001511015611c18576040805162461bcd60e51b815260206004820152601c60248201527f4d61726b6574706c6163653a2074686520626964206578706972656400000000604482015290519081900360640190fd5b6001600160a01b038516600090815260056020908152604080832087845282528083208381556001810180546001600160a01b031916905560028101849055600301929092558251825190815291517ff8c7d5572fa269efc040934ae7553d57f8906bffd616254bef0b94e2b569e4169281900390910190a160015460009015611d4857611cbc620f4240610bfb600154856040015161291290919063ffffffff16565b60c08401519091506001600160a01b0316600080516020613dbc83398151915214611d0657611d01611cec6116b8565b60c08501516001600160a01b031690836134df565b611d48565b611d0e6116b8565b6001600160a01b03166108fc829081150290604051600060405180830381858888f19350505050158015611d46573d6000803e3d6000fd5b505b60008360800151600014611f5e57611d77612710610bfb8660800151866040015161291290919063ffffffff16565b9050336001600160a01b031684604001516001600160a01b031663d0e4f396886040518263ffffffff1660e01b81526004018082815260200191505060206040518083038186803b158015611dcb57600080fd5b505afa158015611ddf573d6000803e3d6000fd5b505050506040513d6020811015611df557600080fd5b50516001600160a01b0316141580611e3757506040808501516001600160a01b039081166000908152600460209081528382208a835290529190912054163314155b15611f5e576040808501516001600160a01b039081166000908152600460209081528382208a8352905291909120541680611ee35784604001516001600160a01b031663d0e4f396886040518263ffffffff1660e01b81526004018082815260200191505060206040518083038186803b158015611eb457600080fd5b505afa158015611ec8573d6000803e3d6000fd5b505050506040513d6020811015611ede57600080fd5b505190505b60c08501516001600160a01b0316600080516020613dbc83398151915214611f245760c0850151611f1f906001600160a01b03163383856129b4565b611f5c565b6040516001600160a01b0382169083156108fc029084906000818181858888f19350505050158015611f5a573d6000803e3d6000fd5b505b505b60c08401516001600160a01b0316600080516020613dbc83398151915214611fbd57611fb88460200151611fa383610eeb868860400151612a0e90919063ffffffff16565b60c08701516001600160a01b031691906134df565b612013565b83602001516001600160a01b03166108fc611fe983610eeb868860400151612a0e90919063ffffffff16565b6040518115909202916000818181858888f19350505050158015612011573d6000803e3d6000fd5b505b610ff184600001518460200151898989612b5b565b60036020818152600093845260408085209091529183529120805460018201546002830154938301546004840154600585015460069095015493956001600160a01b0393841695908416949293919290911687565b600054600160a01b900460ff16156120cf576040805162461bcd60e51b815260206004820152601060248201526f14185d5cd8589b194e881c185d5cd95960821b604482015290519081900360640190fd5b600280541415612126576040805162461bcd60e51b815260206004820152601f60248201527f5265656e7472616e637947756172643a207265656e7472616e742063616c6c00604482015290519081900360640190fd5b60028055612132612304565b6000546001600160a01b03908116911614612182576040805162461bcd60e51b81526020600482018190526024820152600080516020613ddc833981519152604482015290519081900360640190fd5b61218a613bfd565b612194868661243e565b60c08101519091506001600160a01b0316600080516020613dbc833981519152146121cb576121c68686868686613531565b6121d8565b6121d88686348686613531565b5050600160025550505050565b60066020526000908152604090205460ff1681565b612202612304565b6000546001600160a01b03908116911614612252576040805162461bcd60e51b81526020600482018190526024820152600080516020613ddc833981519152604482015290519081900360640190fd5b6001600160a01b0381166122975760405162461bcd60e51b8152600401808060200182810382526026815260200180613c976026913960400191505060405180910390fd5b600080546040516001600160a01b03808516939216917f8be0079c531659141344cd1fd0a4f28419497f9722a3daafe3b4186f6b6457e091a3600080546001600160a01b0319166001600160a01b0392909216919091179055565b600080516020613dbc83398151915281565b3390565b600054600160a01b900460ff1661235d576040805162461bcd60e51b815260206004820152601460248201527314185d5cd8589b194e881b9bdd081c185d5cd95960621b604482015290519081900360640190fd5b6000805460ff60a01b191690557f5db9ee0a495bf2e6ff9c91a7834c1ba4fdd244a5e8aa4e537bd38aeae4b073aa612393612304565b604080516001600160a01b039092168252519081900360200190a1565b600054600160a01b900460ff1615612402576040805162461bcd60e51b815260206004820152601060248201526f14185d5cd8589b194e881c185d5cd95960821b604482015290519081900360640190fd5b6000805460ff60a01b1916600160a01b1790557f62e78cea01bee320cd4e420270b5ea74000d11b0c9f74754ebdbfc544b05a258612393612304565b612446613bfd565b506001600160a01b038083166000908152600360208181526040808420868552825292839020835160e08101855281548082526001830154871693820193909352600282015486169481019490945291820154606084015260048201546080840152600582015460a084015260069091015490921660c082015290612512576040805162461bcd60e51b815260206004820181905260248201527f4d61726b6574706c6163653a206173736574206e6f74207075626c6973686564604482015290519081900360640190fd5b428160a00151101561173e576040805162461bcd60e51b815260206004820152601a60248201527f4d61726b6574706c6163653a206f726465722065787069726564000000000000604482015290519081900360640190fd5b612573613bfd565b61257d858561243e565b90508060a00151821115612593578060a0015191505b61259b613c39565b506001600160a01b03808616600090815260056020908152604080832088845282529182902082516080810184528154808252600183015490951692810192909252600281015492820192909252600390910154606082015290156126ad574281606001511061264c57806040015184116126475760405162461bcd60e51b8152600401808060200182810382526035815260200180613e1c6035913960400191505060405180910390fd5b61268f565b6000841161268f576040805162461bcd60e51b815260206004820152601e6024820152600080516020613dfc833981519152604482015290519081900360640190fd5b6126a88160000151878784602001518560400151612a50565b6126f0565b600084116126f0576040805162461bcd60e51b815260206004820152601e6024820152600080516020613dfc833981519152604482015290519081900360640190fd5b8160c001516001600160a01b0316600080516020613dbc8339815191526001600160a01b0316146127a45760c0820151604080516323b872dd60e01b81523360048201523060248201526044810187905290516001600160a01b03909216916323b872dd916064808201926020929091908290030181600087803b15801561277757600080fd5b505af115801561278b573d6000803e3d6000fd5b505050506040513d60208110156127a157600080fd5b50505b600042338460000151878760405160200180868152602001856001600160a01b031660601b8152601401848152602001838152602001828152602001955050505050506040516020818303038152906040528051906020012090506040518060800160405280828152602001336001600160a01b031681526020018681526020018581525060056000896001600160a01b03166001600160a01b0316815260200190815260200160002060008881526020019081526020016000206000820151816000015560208201518160010160006101000a8154816001600160a01b0302191690836001600160a01b031602179055506040820151816002015560608201518160030155905050336001600160a01b031686886001600160a01b03167fae7b5aee7763f3e7771076de8f7b61accb70ad42245fee23308e19c8bcd518e484898960405180848152602001838152602001828152602001935050505060405180910390a450505050505050565b6000826129215750600061173e565b8282028284828161292e57fe5b041461296b5760405162461bcd60e51b8152600401808060200182810382526021815260200180613d6d6021913960400191505060405180910390fd5b9392505050565b600061296b83836040518060400160405280601a81526020017f536166654d6174683a206469766973696f6e206279207a65726f0000000000008152506138d9565b604080516001600160a01b0380861660248301528416604482015260648082018490528251808303909101815260849091019091526020810180516001600160e01b03166323b872dd60e01b17905261146490859061397b565b600061296b83836040518060400160405280601e81526020017f536166654d6174683a207375627472616374696f6e206f766572666c6f770000815250613a2c565b6001600160a01b038416600090815260056020908152604080832086845290915281208181556001810180546001600160a01b03191690556002810182905560030155612a9b613bfd565b612aa5858561243e565b60c08101519091506001600160a01b0316600080516020613dbc83398151915214612ae85760c0810151612ae3906001600160a01b031684846134df565b612b20565b6040516001600160a01b0384169083156108fc029084906000818181858888f19350505050158015612b1e573d6000803e3d6000fd5b505b6040805187815290517fb56dc4096011ba5fd2e46e5c3e7b04dec423b5e7b5fce9a17a419d77c832177c9181900360200190a1505050505050565b6001600160a01b0380841660008181526003602081815260408084208885529091528083208381556001810180546001600160a01b031990811690915560028201805482169055928101849055600480820185905560058201859055600690910180549093169092558051632142170760e11b81523092810192909252938816602482015260448101869052925191926342842e0e926064808301939282900301818387803b158015612c0d57600080fd5b505af1158015612c21573d6000803e3d6000fd5b5050604080518881526020810185905281516001600160a01b03891694507f012d66d656f295c1a84576b9b7f0a83474ed09578e80f7f1a715fb958e1d546393509081900390910190a25050505050565b6000813f7fc5d2460186f7233c927e7db2dcc703c0e500b653ca82273b7bfad8045d85a4708181148015906107d1575050151592915050565b6001600160a01b038116600090815260066020526040902054869060ff16612d045760405162461bcd60e51b815260040180806020018281038252602e815260200180613d8e602e913960400191505060405180910390fd5b6000816001600160a01b0316636352211e886040518263ffffffff1660e01b81526004018082815260200191505060206040518083038186803b158015612d4a57600080fd5b505afa158015612d5e573d6000803e3d6000fd5b505050506040513d6020811015612d7457600080fd5b5051905085612db45760405162461bcd60e51b815260040180806020018281038252602a815260200180613d00602a913960400191505060405180910390fd5b612dbf42603c613181565b8411612dfc5760405162461bcd60e51b8152600401808060200182810382526043815260200180613d2a6043913960600191505060405180910390fd5b60408051632142170760e11b81526001600160a01b038381166004830152306024830152604482018a90529151918416916342842e0e9160648082019260009290919082900301818387803b158015612e5457600080fd5b505af1158015612e68573d6000803e3d6000fd5b50505050600042828a8a8a60405160200180868152602001856001600160a01b031660601b8152601401846001600160a01b031660601b8152601401838152602001828152602001955050505050506040516020818303038152906040528051906020012090506040518060e00160405280828152602001836001600160a01b031681526020018a6001600160a01b03168152602001888152602001878152602001868152602001856001600160a01b0316815250600360008b6001600160a01b03166001600160a01b0316815260200190815260200160002060008a81526020019081526020016000206000820151816000015560208201518160010160006101000a8154816001600160a01b0302191690836001600160a01b0316021790555060408201518160020160006101000a8154816001600160a01b0302191690836001600160a01b03160217905550606082015181600301556080820151816004015560a0820151816005015560c08201518160060160006101000a8154816001600160a01b0302191690836001600160a01b0316021790555090505087896001600160a01b0316836001600160a01b03167f9a4f4319c9a094a854f1cdf9560bae580d461a7e2901efd754f67df8a28a600a848b8a8a60405180858152602001848152602001838152602001826001600160a01b0316815260200194505050505060405180910390a4505050505050505050565b6001600160a01b0380841660008181526003602081815260408084208885529091528083208381556001810180546001600160a01b031990811690915560028201805482169055928101849055600480820185905560058201859055600690910180549093169092558051632142170760e11b81523092810192909252938516602482015260448101869052925191926342842e0e926064808301939282900301818387803b15801561312f57600080fd5b505af1158015613143573d6000803e3d6000fd5b50506040805187815290517f5152abf959f6564662358c2e52b702259b78bac5ee7842a0f01937e670efcc7d9350908190036020019150a150505050565b60008282018381101561296b576040805162461bcd60e51b815260206004820152601b60248201527f536166654d6174683a206164646974696f6e206f766572666c6f770000000000604482015290519081900360640190fd5b8681866132195760405162461bcd60e51b815260040180806020018281038252602a815260200180613d00602a913960400191505060405180910390fd5b61322442603c613181565b85116132615760405162461bcd60e51b8152600401808060200182810382526043815260200180613d2a6043913960600191505060405180910390fd5b60408051632142170760e11b8152336004820152306024820152604481018a905290516001600160a01b038416916342842e0e91606480830192600092919082900301818387803b1580156132b557600080fd5b505af11580156132c9573d6000803e3d6000fd5b50505050600042828b8b8b60405160200180868152602001856001600160a01b031660601b8152601401846001600160a01b031660601b8152601401838152602001828152602001955050505050506040516020818303038152906040528051906020012090506040518060e00160405280828152602001836001600160a01b031681526020018b6001600160a01b03168152602001898152602001888152602001878152602001866001600160a01b0316815250600360008c6001600160a01b03166001600160a01b0316815260200190815260200160002060008b81526020019081526020016000206000820151816000015560208201518160010160006101000a8154816001600160a01b0302191690836001600160a01b0316021790555060408201518160020160006101000a8154816001600160a01b0302191690836001600160a01b03160217905550606082015181600301556080820151816004015560a0820151816005015560c08201518160060160006101000a8154816001600160a01b0302191690836001600160a01b03160217905550905050888a6001600160a01b0316836001600160a01b03167f9a4f4319c9a094a854f1cdf9560bae580d461a7e2901efd754f67df8a28a600a848c8b8b60405180858152602001848152602001838152602001826001600160a01b0316815260200194505050505060405180910390a450505050505050505050565b604080516001600160a01b038416602482015260448082018490528251808303909101815260649091019091526020810180516001600160e01b031663a9059cbb60e01b17905261113a90849061397b565b613539613bfd565b613543868661243e565b90508060a00151831115613559578060a0015192505b613561613c39565b506001600160a01b03808716600090815260056020908152604080832089845282529182902082516080810184528154808252600183015490951692810192909252600281015492820192909252600390910154606082015290156136735742816060015110613612578060400151851161360d5760405162461bcd60e51b8152600401808060200182810382526035815260200180613e1c6035913960400191505060405180910390fd5b613655565b60008511613655576040805162461bcd60e51b815260206004820152601e6024820152600080516020613dfc833981519152604482015290519081900360640190fd5b61366e8160000151888884602001518560400151612a50565b6136b6565b600085116136b6576040805162461bcd60e51b815260206004820152601e6024820152600080516020613dfc833981519152604482015290519081900360640190fd5b8160c001516001600160a01b0316600080516020613dbc8339815191526001600160a01b03161461376a5760c0820151604080516323b872dd60e01b81523360048201523060248201526044810188905290516001600160a01b03909216916323b872dd916064808201926020929091908290030181600087803b15801561373d57600080fd5b505af1158015613751573d6000803e3d6000fd5b505050506040513d602081101561376757600080fd5b50505b600042848460000151888860405160200180868152602001856001600160a01b031660601b8152601401848152602001838152602001828152602001955050505050506040516020818303038152906040528051906020012090506040518060800160405280828152602001856001600160a01b0316815260200187815260200186815250600560008a6001600160a01b03166001600160a01b0316815260200190815260200160002060008981526020019081526020016000206000820151816000015560208201518160010160006101000a8154816001600160a01b0302191690836001600160a01b031602179055506040820151816002015560608201518160030155905050836001600160a01b031687896001600160a01b03167fae7b5aee7763f3e7771076de8f7b61accb70ad42245fee23308e19c8bcd518e4848a8a60405180848152602001838152602001828152602001935050505060405180910390a45050505050505050565b600081836139655760405162461bcd60e51b81526004018080602001828103825283818151815260200191508051906020019080838360005b8381101561392a578181015183820152602001613912565b50505050905090810190601f1680156139575780820380516001836020036101000a031916815260200191505b509250505060405180910390fd5b50600083858161397157fe5b0495945050505050565b60606139d0826040518060400160405280602081526020017f5361666545524332303a206c6f772d6c6576656c2063616c6c206661696c6564815250856001600160a01b0316613a869092919063ffffffff16565b80519091501561113a578080602001905160208110156139ef57600080fd5b505161113a5760405162461bcd60e51b815260040180806020018281038252602a815260200180613e51602a913960400191505060405180910390fd5b60008184841115613a7e5760405162461bcd60e51b815260206004820181815283516024840152835190928392604490910191908501908083836000831561392a578181015183820152602001613912565b505050900390565b60606107d184846000856060613a9b85612c72565b613aec576040805162461bcd60e51b815260206004820152601d60248201527f416464726573733a2063616c6c20746f206e6f6e2d636f6e7472616374000000604482015290519081900360640190fd5b60006060866001600160a01b031685876040518082805190602001908083835b60208310613b2b5780518252601f199092019160209182019101613b0c565b6001836020036101000a03801982511681845116808217855250505050505090500191505060006040518083038185875af1925050503d8060008114613b8d576040519150601f19603f3d011682016040523d82523d6000602084013e613b92565b606091505b50915091508115613ba65791506107d19050565b805115613bb65780518082602001fd5b60405162461bcd60e51b815260206004820181815286516024840152865187939192839260440191908501908083836000831561392a578181015183820152602001613912565b6040805160e081018252600080825260208201819052918101829052606081018290526080810182905260a0810182905260c081019190915290565b6040805160808101825260008082526020820181905291810182905260608101919091529056fe54686520616363657074656420746f6b656e2061646472657373206d7573742062652061206465706c6f79656420636f6e74726163744f776e61626c653a206e6577206f776e657220697320746865207a65726f20616464726573734d61726b6574706c6163653a204578706972652074696d652073686f756c64206265206d6f7265207468616e2031206d696e75746520696e20746865206675747572654d61726b6574706c6163653a2050726963652073686f756c6420626520626967676572207468616e20304d61726b6574706c6163653a205075626c69636174696f6e2073686f756c64206265206d6f7265207468616e2031206d696e75746520696e2074686520667574757265536166654d6174683a206d756c7469706c69636174696f6e206f766572666c6f774d61726b6574706c6163653a20556e61636365707461626c65206d61726b6574706c6163652063757272656e6379000000000000000000000000eeeeeeeeeeeeeeeeeeeeeeeeeeeeeeeeeeeeeeee4f776e61626c653a2063616c6c6572206973206e6f7420746865206f776e65724d61726b6574706c6163653a206269642073686f756c64206265203e203000004d61726b6574706c6163653a206269642070726963652073686f756c6420626520686967686572207468616e206c617374206269645361666545524332303a204552433230206f7065726174696f6e20646964206e6f742073756363656564546865206f776e6572206375742073686f756c64206265206265747765656e203020616e64206d61784375745065724d696c6c696f6ea2646970667358221220367c315e46f4fd5e89a557bf5625d37f9c1cd3ca17555ecfeb1b48cbb2e9dad664736f6c634300060c0033",
  "linkReferences": {},
  "deployedLinkReferences": {}
}