{
  "_format": "hh-sol-artifact-1",
  "contractName": "QIDexStaking",
  "sourceName": "contracts/staking.sol",
  "abi": [
    {
      "inputs": [
        {
          "internalType": "uint256",
          "name": "_rewardPerBlock",
          "type": "uint256"
        },
        {
          "internalType": "uint256",
          "name": "_depositFee",
          "type": "uint256"
        },
        {
          "internalType": "uint256",
          "name": "_withdrawFee",
          "type": "uint256"
        },
        {
          "internalType": "uint256",
          "name": "_poolLimitPerUser",
          "type": "uint256"
        },
        {
          "internalType": "address",
          "name": "_rewardToken",
          "type": "address"
        }
      ],
      "stateMutability": "nonpayable",
      "type": "constructor"
    },
    {
      "anonymous": false,
      "inputs": [
        {
          "indexed": false,
          "internalType": "address",
          "name": "tokenRecovered",
          "type": "address"
        },
        {
          "indexed": false,
          "internalType": "uint256",
          "name": "amount",
          "type": "uint256"
        }
      ],
      "name": "AdminTokenRecovered",
      "type": "event"
    },
    {
      "anonymous": false,
      "inputs": [
        {
          "indexed": true,
          "internalType": "address",
          "name": "user",
          "type": "address"
        },
        {
          "indexed": false,
          "internalType": "uint256",
          "name": "amount",
          "type": "uint256"
        }
      ],
      "name": "Deposit",
      "type": "event"
    },
    {
      "anonymous": false,
      "inputs": [
        {
          "indexed": false,
          "internalType": "address",
          "name": "_actualStaker",
          "type": "address"
        },
        {
          "indexed": false,
          "internalType": "uint256",
          "name": "_amount",
          "type": "uint256"
        },
        {
          "indexed": false,
          "internalType": "uint256",
          "name": "_duration",
          "type": "uint256"
        },
        {
          "indexed": false,
          "internalType": "uint256",
          "name": "_end",
          "type": "uint256"
        },
        {
          "indexed": false,
          "internalType": "uint256",
          "name": "_rewardDebt",
          "type": "uint256"
        }
      ],
      "name": "DepositAdmin",
      "type": "event"
    },
    {
      "anonymous": false,
      "inputs": [
        {
          "indexed": false,
          "internalType": "uint256",
          "name": "_duration",
          "type": "uint256"
        }
      ],
      "name": "DurationUpdated",
      "type": "event"
    },
    {
      "anonymous": false,
      "inputs": [
        {
          "indexed": false,
          "internalType": "uint256",
          "name": "_depositFee",
          "type": "uint256"
        },
        {
          "indexed": false,
          "internalType": "uint256",
          "name": "_withdrawFee",
          "type": "uint256"
        }
      ],
      "name": "FeeUpdated",
      "type": "event"
    },
    {
      "anonymous": false,
      "inputs": [
        {
          "indexed": false,
          "internalType": "uint256",
          "name": "poolLimitPerUser",
          "type": "uint256"
        }
      ],
      "name": "NewPoolLimit",
      "type": "event"
    },
    {
      "anonymous": false,
      "inputs": [
        {
          "indexed": true,
          "internalType": "address",
          "name": "previousOwner",
          "type": "address"
        },
        {
          "indexed": true,
          "internalType": "address",
          "name": "newOwner",
          "type": "address"
        }
      ],
      "name": "OwnershipTransferred",
      "type": "event"
    },
    {
      "anonymous": false,
      "inputs": [
        {
          "indexed": false,
          "internalType": "uint256",
          "name": "_rewardPerBlock",
          "type": "uint256"
        }
      ],
      "name": "RewardPerBlockUpdated",
      "type": "event"
    },
    {
      "anonymous": false,
      "inputs": [
        {
          "indexed": true,
          "internalType": "address",
          "name": "user",
          "type": "address"
        },
        {
          "indexed": false,
          "internalType": "uint256",
          "name": "amount",
          "type": "uint256"
        }
      ],
      "name": "Withdraw",
      "type": "event"
    },
    {
      "inputs": [],
      "name": "PRECISION_FACTOR",
      "outputs": [
        {
          "internalType": "uint256",
          "name": "",
          "type": "uint256"
        }
      ],
      "stateMutability": "view",
      "type": "function"
    },
    {
      "inputs": [],
      "name": "accTokenPerShare",
      "outputs": [
        {
          "internalType": "uint256",
          "name": "",
          "type": "uint256"
        }
      ],
      "stateMutability": "view",
      "type": "function"
    },
    {
      "inputs": [],
      "name": "availableRewardTokens",
      "outputs": [
        {
          "internalType": "uint256",
          "name": "",
          "type": "uint256"
        }
      ],
      "stateMutability": "view",
      "type": "function"
    },
    {
      "inputs": [],
      "name": "claimReward",
      "outputs": [],
      "stateMutability": "nonpayable",
      "type": "function"
    },
    {
      "inputs": [],
      "name": "deposit",
      "outputs": [],
      "stateMutability": "payable",
      "type": "function"
    },
    {
      "inputs": [
        {
          "internalType": "address",
          "name": "_actualStaker",
          "type": "address"
        },
        {
          "internalType": "uint256",
          "name": "_amount",
          "type": "uint256"
        },
        {
          "internalType": "uint256",
          "name": "_duration",
          "type": "uint256"
        },
        {
          "internalType": "uint256",
          "name": "_end",
          "type": "uint256"
        },
        {
          "internalType": "uint256",
          "name": "_rewardDebt",
          "type": "uint256"
        }
      ],
      "name": "depositAdmin",
      "outputs": [],
      "stateMutability": "payable",
      "type": "function"
    },
    {
      "inputs": [],
      "name": "depositFee",
      "outputs": [
        {
          "internalType": "uint256",
          "name": "",
          "type": "uint256"
        }
      ],
      "stateMutability": "view",
      "type": "function"
    },
    {
      "inputs": [],
      "name": "duration",
      "outputs": [
        {
          "internalType": "uint256",
          "name": "",
          "type": "uint256"
        }
      ],
      "stateMutability": "view",
      "type": "function"
    },
    {
      "inputs": [],
      "name": "hasUserLimit",
      "outputs": [
        {
          "internalType": "bool",
          "name": "",
          "type": "bool"
        }
      ],
      "stateMutability": "view",
      "type": "function"
    },
    {
      "inputs": [],
      "name": "lastRewardBlock",
      "outputs": [
        {
          "internalType": "uint256",
          "name": "",
          "type": "uint256"
        }
      ],
      "stateMutability": "view",
      "type": "function"
    },
    {
      "inputs": [],
      "name": "owner",
      "outputs": [
        {
          "internalType": "address",
          "name": "",
          "type": "address"
        }
      ],
      "stateMutability": "view",
      "type": "function"
    },
    {
      "inputs": [
        {
          "internalType": "address",
          "name": "_account",
          "type": "address"
        }
      ],
      "name": "pendingReward",
      "outputs": [
        {
          "internalType": "uint256",
          "name": "",
          "type": "uint256"
        }
      ],
      "stateMutability": "view",
      "type": "function"
    },
    {
      "inputs": [],
      "name": "poolLimitPerUser",
      "outputs": [
        {
          "internalType": "uint256",
          "name": "",
          "type": "uint256"
        }
      ],
      "stateMutability": "view",
      "type": "function"
    },
    {
      "inputs": [
        {
          "internalType": "address",
          "name": "_tokenAddress",
          "type": "address"
        },
        {
          "internalType": "uint256",
          "name": "_tokenAmount",
          "type": "uint256"
        }
      ],
      "name": "recoverWrongTokens",
      "outputs": [],
      "stateMutability": "nonpayable",
      "type": "function"
    },
    {
      "inputs": [],
      "name": "renounceOwnership",
      "outputs": [],
      "stateMutability": "nonpayable",
      "type": "function"
    },
    {
      "inputs": [],
      "name": "rewardPerBlock",
      "outputs": [
        {
          "internalType": "uint256",
          "name": "",
          "type": "uint256"
        }
      ],
      "stateMutability": "view",
      "type": "function"
    },
    {
      "inputs": [],
      "name": "rewardToken",
      "outputs": [
        {
          "internalType": "contract IERC20",
          "name": "",
          "type": "address"
        }
      ],
      "stateMutability": "view",
      "type": "function"
    },
    {
      "inputs": [
        {
          "internalType": "uint256",
          "name": "newValue",
          "type": "uint256"
        }
      ],
      "name": "setAccTokenPerShare",
      "outputs": [],
      "stateMutability": "nonpayable",
      "type": "function"
    },
    {
      "inputs": [
        {
          "internalType": "address",
          "name": "",
          "type": "address"
        }
      ],
      "name": "staked",
      "outputs": [
        {
          "internalType": "bool",
          "name": "",
          "type": "bool"
        }
      ],
      "stateMutability": "view",
      "type": "function"
    },
    {
      "inputs": [],
      "name": "startBlock",
      "outputs": [
        {
          "internalType": "uint256",
          "name": "",
          "type": "uint256"
        }
      ],
      "stateMutability": "view",
      "type": "function"
    },
    {
      "inputs": [],
      "name": "totalStaked",
      "outputs": [
        {
          "internalType": "uint256",
          "name": "",
          "type": "uint256"
        }
      ],
      "stateMutability": "view",
      "type": "function"
    },
    {
      "inputs": [],
      "name": "totalUsers",
      "outputs": [
        {
          "internalType": "uint256",
          "name": "",
          "type": "uint256"
        }
      ],
      "stateMutability": "view",
      "type": "function"
    },
    {
      "inputs": [
        {
          "internalType": "address",
          "name": "newOwner",
          "type": "address"
        }
      ],
      "name": "transferOwnership",
      "outputs": [],
      "stateMutability": "nonpayable",
      "type": "function"
    },
    {
      "inputs": [
        {
          "internalType": "uint256",
          "name": "_duration",
          "type": "uint256"
        }
      ],
      "name": "updateDuration",
      "outputs": [],
      "stateMutability": "nonpayable",
      "type": "function"
    },
    {
      "inputs": [
        {
          "internalType": "uint256",
          "name": "_depositFee",
          "type": "uint256"
        },
        {
          "internalType": "uint256",
          "name": "_withdrawFee",
          "type": "uint256"
        }
      ],
      "name": "updateFee",
      "outputs": [],
      "stateMutability": "nonpayable",
      "type": "function"
    },
    {
      "inputs": [
        {
          "internalType": "bool",
          "name": "_hasUserLimit",
          "type": "bool"
        },
        {
          "internalType": "uint256",
          "name": "_poolLimitPerUser",
          "type": "uint256"
        }
      ],
      "name": "updatePoolLimitPerUser",
      "outputs": [],
      "stateMutability": "nonpayable",
      "type": "function"
    },
    {
      "inputs": [
        {
          "internalType": "uint256",
          "name": "_rewardPerBlock",
          "type": "uint256"
        }
      ],
      "name": "updateRewardPerBlock",
      "outputs": [],
      "stateMutability": "nonpayable",
      "type": "function"
    },
    {
      "inputs": [
        {
          "internalType": "address",
          "name": "_rewardToken",
          "type": "address"
        }
      ],
      "name": "updateRewardToken",
      "outputs": [],
      "stateMutability": "nonpayable",
      "type": "function"
    },
    {
      "inputs": [
        {
          "internalType": "address",
          "name": "_account",
          "type": "address"
        }
      ],
      "name": "userInfo",
      "outputs": [
        {
          "internalType": "uint256",
          "name": "amount",
          "type": "uint256"
        },
        {
          "internalType": "uint256",
          "name": "available",
          "type": "uint256"
        },
        {
          "internalType": "uint256",
          "name": "locked",
          "type": "uint256"
        }
      ],
      "stateMutability": "view",
      "type": "function"
    },
    {
      "inputs": [
        {
          "internalType": "address",
          "name": "",
          "type": "address"
        }
      ],
      "name": "userStaked",
      "outputs": [
        {
          "internalType": "uint256",
          "name": "amount",
          "type": "uint256"
        },
        {
          "internalType": "uint256",
          "name": "count",
          "type": "uint256"
        },
        {
          "internalType": "uint256",
          "name": "locked",
          "type": "uint256"
        },
        {
          "internalType": "uint256",
          "name": "available",
          "type": "uint256"
        }
      ],
      "stateMutability": "view",
      "type": "function"
    },
    {
      "inputs": [
        {
          "internalType": "address",
          "name": "",
          "type": "address"
        },
        {
          "internalType": "uint256",
          "name": "",
          "type": "uint256"
        }
      ],
      "name": "userStakes",
      "outputs": [
        {
          "internalType": "uint256",
          "name": "amount",
          "type": "uint256"
        },
        {
          "internalType": "uint256",
          "name": "duration",
          "type": "uint256"
        },
        {
          "internalType": "uint256",
          "name": "end",
          "type": "uint256"
        },
        {
          "internalType": "uint256",
          "name": "rewardDebt",
          "type": "uint256"
        }
      ],
      "stateMutability": "view",
      "type": "function"
    },
    {
      "inputs": [
        {
          "internalType": "uint256",
          "name": "_amount",
          "type": "uint256"
        }
      ],
      "name": "withdraw",
      "outputs": [],
      "stateMutability": "nonpayable",
      "type": "function"
    },
    {
      "inputs": [],
      "name": "withdrawFee",
      "outputs": [
        {
          "internalType": "uint256",
          "name": "",
          "type": "uint256"
        }
      ],
      "stateMutability": "view",
      "type": "function"
    },
    {
      "stateMutability": "payable",
      "type": "receive"
    }
  ],
  "bytecode": "0x608060405261016d60025569d3c21bcecceda1000000600b553480156200002557600080fd5b50604051620025f8380380620025f8833981810160405260a08110156200004b57600080fd5b5080516020820151604083015160608401516080909401519293919290919060006200007f6001600160e01b036200014216565b600080546001600160a01b0319166001600160a01b0383169081178255604051929350917f8be0079c531659141344cd1fd0a4f28419497f9722a3daafe3b4186f6b6457e0908290a35060018081905550620000eb6001436200014660201b62001ccd1790919060201c565b600a819055600555600385905560068490556007839055600e80546001600160a01b0319166001600160a01b038316179055811562000137576008805460ff1916600117905560098290555b5050505050620001a5565b3390565b808201828110156200019f576040805162461bcd60e51b815260206004820152601460248201527f64732d6d6174682d6164642d6f766572666c6f77000000000000000000000000604482015290519081900360640190fd5b92915050565b61244380620001b56000396000f3fe6080604052600436106101f25760003560e01c80638f6629151161010d578063b88a802f116100a0578063e941fa781161006f578063e941fa781461061c578063f2fde38b14610631578063f40f0f5214610664578063f7c618c114610697578063f8cf31cb146106ac576101f9565b8063b88a802f146105d5578063bff1f9e1146105ea578063ccd34cd5146105ff578063d0e30db014610614576101f9565b8063a0b40905116100dc578063a0b40905146104fc578063a9f8d1811461052e578063acc3a93914610543578063b5d5b5fa1461059c576101f9565b80638f6629151461047657806392e8990e1461048b57806398807d84146104b45780639f94e272146104e7576101f9565b806348cd4cb111610185578063715018a611610154578063715018a614610406578063817b1cd21461041b5780638ae39cac146104305780638da5cb5b14610445576101f9565b806348cd4cb11461038957806366fe9f8a1461039e57806367a52793146103b35780636d5e80f8146103c8576101f9565b80631b50ad09116101c15780631b50ad09146102cc5780632740c197146102f65780632e1a7d4d146103265780633f138d4b14610350576101f9565b806301f8a976146101fe578063075564da1461022a5780630fb5a6b4146102545780631959a0021461027b576101f9565b366101f957005b600080fd5b34801561020a57600080fd5b506102286004803603602081101561022157600080fd5b50356106df565b005b34801561023657600080fd5b506102286004803603602081101561024d57600080fd5b5035610772565b34801561026057600080fd5b50610269610819565b60408051918252519081900360200190f35b34801561028757600080fd5b506102ae6004803603602081101561029e57600080fd5b50356001600160a01b031661081f565b60408051938452602084019290925282820152519081900360600190f35b3480156102d857600080fd5b50610228600480360360208110156102ef57600080fd5b50356108db565b34801561030257600080fd5b506102286004803603604081101561031957600080fd5b508035906020013561096e565b34801561033257600080fd5b506102286004803603602081101561034957600080fd5b5035610a0f565b34801561035c57600080fd5b506102286004803603604081101561037357600080fd5b506001600160a01b038135169060200135610daf565b34801561039557600080fd5b50610269610f0c565b3480156103aa57600080fd5b50610269610f12565b3480156103bf57600080fd5b50610269610f18565b610228600480360360a08110156103de57600080fd5b506001600160a01b038135169060208101359060408101359060608101359060800135610f1e565b34801561041257600080fd5b50610228611145565b34801561042757600080fd5b506102696111e7565b34801561043c57600080fd5b506102696111ed565b34801561045157600080fd5b5061045a6111f3565b604080516001600160a01b039092168252519081900360200190f35b34801561048257600080fd5b50610269611202565b34801561049757600080fd5b506104a0611208565b604080519115158252519081900360200190f35b3480156104c057600080fd5b506104a0600480360360208110156104d757600080fd5b50356001600160a01b0316611211565b3480156104f357600080fd5b50610269611226565b34801561050857600080fd5b506102286004803603604081101561051f57600080fd5b508035151590602001356112a2565b34801561053a57600080fd5b506102696113f2565b34801561054f57600080fd5b506105766004803603602081101561056657600080fd5b50356001600160a01b03166113f8565b604080519485526020850193909352838301919091526060830152519081900360800190f35b3480156105a857600080fd5b50610576600480360360408110156105bf57600080fd5b506001600160a01b03813516906020013561141f565b3480156105e157600080fd5b50610228611462565b3480156105f657600080fd5b50610269611618565b34801561060b57600080fd5b5061026961161e565b610228611624565b34801561062857600080fd5b506102696119fc565b34801561063d57600080fd5b506102286004803603602081101561065457600080fd5b50356001600160a01b0316611a02565b34801561067057600080fd5b506102696004803603602081101561068757600080fd5b50356001600160a01b0316611afa565b3480156106a357600080fd5b5061045a611c40565b3480156106b857600080fd5b50610228600480360360208110156106cf57600080fd5b50356001600160a01b0316611c4f565b6106e7611cc9565b6000546001600160a01b03908116911614610737576040805162461bcd60e51b815260206004820181905260248201526000805160206123ee833981519152604482015290519081900360640190fd5b60038190556040805182815290517f5ed0ffa545a9eae0edd36b74378d16454cf385281383c7632ad5b2ebf3ab2b929181900360200190a150565b61077a611cc9565b6000546001600160a01b039081169116146107ca576040805162461bcd60e51b815260206004820181905260248201526000805160206123ee833981519152604482015290519081900360640190fd5b60026001541415610810576040805162461bcd60e51b815260206004820152601f60248201526000805160206123a8833981519152604482015290519081900360640190fd5b60045560018055565b60025481565b6001600160a01b038116600090815260106020526040812081908190815b81548110156108d257600082828154811061085457fe5b9060005260206000209060040201905080600001546000141561087757506108ca565b805461088a90879063ffffffff611ccd16565b955080600201544211156108b25780546108ab90869063ffffffff611ccd16565b94506108c8565b80546108c590859063ffffffff611ccd16565b93505b505b60010161083d565b50509193909250565b6108e3611cc9565b6000546001600160a01b03908116911614610933576040805162461bcd60e51b815260206004820181905260248201526000805160206123ee833981519152604482015290519081900360640190fd5b60028190556040805182815290517f91abcc2d6823e3a3f11d31b208dd3065d2c6a791f1c7c9fe96a42ce12897eac59181900360200190a150565b610976611cc9565b6000546001600160a01b039081169116146109c6576040805162461bcd60e51b815260206004820181905260248201526000805160206123ee833981519152604482015290519081900360640190fd5b60068290556007819055604080518381526020810183905281517f528d9479e9f9889a87a3c30c7f7ba537e5e59c4c85a37733b16e57c62df61302929181900390910190a15050565b60026001541415610a55576040805162461bcd60e51b815260206004820152601f60248201526000805160206123a8833981519152604482015290519081900360640190fd5b600260015580610aac576040805162461bcd60e51b815260206004820152601f60248201527f416d6f756e742073686f756c642062652067726561746f72207468616e203000604482015290519081900360640190fd5b610ab4611d22565b33600090815260116020908152604080832060109092528220909183815b8354811015610be8576000848281548110610ae957fe5b90600052602060002090600402019050806000015460001415610b0c5750610be0565b82610b175750610be8565b6000610b588260030154610b4c600b54610b406004548760000154611e0890919063ffffffff16565b9063ffffffff611e6b16565b9063ffffffff611ed216565b9050610b6a858263ffffffff611ccd16565b94504282600201541015610bb8578154841015610b9e578154610b93908563ffffffff611ed216565b825560009350610bb8565b8154610bb190859063ffffffff611ed216565b6000835593505b600b546004548354610bd59291610b40919063ffffffff611e0816565b826003018190555050505b600101610ad2565b508115610c7e5781610bf8611226565b1015610c48576040805162461bcd60e51b815260206004820152601a602482015279496e73756666696369656e742072657761726420746f6b656e7360301b604482015290519081900360640190fd5b610c523383611f22565b5081600d541115610c7857600d54610c70908363ffffffff611ed216565b600d55610c7e565b6000600d555b6000610c90868363ffffffff611ed216565b90508015610d6d5760075415610d14576000610cbd612710610b4060075485611e0890919063ffffffff16565b9050610cc76111f3565b6001600160a01b03166108fc829081150290604051600060405180830381858888f19350505050158015610cff573d6000803e3d6000fd5b50610d10828263ffffffff611ed216565b9150505b8454610d26908263ffffffff611ed216565b8555604051339082156108fc029083906000818181858888f19350505050158015610d55573d6000803e3d6000fd5b50600c54610d69908263ffffffff611ed216565b600c555b60408051878152905133917f884edad9ce6fa2440d8a54cc123490eb96d2768479d49ff9c7366125a9424364919081900360200190a250506001805550505050565b610db7611cc9565b6000546001600160a01b03908116911614610e07576040805162461bcd60e51b815260206004820181905260248201526000805160206123ee833981519152604482015290519081900360640190fd5b6001600160a01b038216610e4857604051339082156108fc029083906000818181858888f19350505050158015610e42573d6000803e3d6000fd5b50610ec4565b6040805163a9059cbb60e01b81523360048201526024810183905290516001600160a01b0384169163a9059cbb9160448083019260209291908290030181600087803b158015610e9757600080fd5b505af1158015610eab573d6000803e3d6000fd5b505050506040513d6020811015610ec157600080fd5b50505b604080516001600160a01b03841681526020810183905281517f74f5dcd55c394cb1c6d3b9da22c2464bcc46c38cc3865bd629ed75823249b40b929181900390910190a15050565b600a5481565b60095481565b60065481565b60026001541415610f64576040805162461bcd60e51b815260206004820152601f60248201526000805160206123a8833981519152604482015290519081900360640190fd5b6002600155610f71611cc9565b6000546001600160a01b03908116911614610fc1576040805162461bcd60e51b815260206004820181905260248201526000805160206123ee833981519152604482015290519081900360640190fd5b60008411611016576040805162461bcd60e51b815260206004820152601f60248201527f416d6f756e742073686f756c642062652067726561746f72207468616e203000604482015290519081900360640190fd5b6001600160a01b03851660009081526011602052604090208415611079578054611046908663ffffffff611ccd16565b815560018082015461105d9163ffffffff611ccd16565b6001820155600c54611075908663ffffffff611ccd16565b600c555b61108686868686866120bf565b6001600160a01b03861660009081526012602052604090205460ff166110e2576001600160a01b0386166000908152601260205260409020805460ff19166001908117909155600f546110de9163ffffffff611ccd16565b600f555b604080516001600160a01b038816815260208101879052808201869052606081018590526080810184905290517fc890600fcaa3d889eb011bb8a5418c4878658570b27143ba7d72475902b28d719181900360a00190a150506001805550505050565b61114d611cc9565b6000546001600160a01b0390811691161461119d576040805162461bcd60e51b815260206004820181905260248201526000805160206123ee833981519152604482015290519081900360640190fd5b600080546040516001600160a01b03909116907f8be0079c531659141344cd1fd0a4f28419497f9722a3daafe3b4186f6b6457e0908390a3600080546001600160a01b0319169055565b600c5481565b60035481565b6000546001600160a01b031690565b60045481565b60085460ff1681565b60126020526000908152604090205460ff1681565b600e54604080516370a0823160e01b815230600482015290516000926001600160a01b0316916370a08231916024808301926020929190829003018186803b15801561127157600080fd5b505afa158015611285573d6000803e3d6000fd5b505050506040513d602081101561129b57600080fd5b5051905090565b6112aa611cc9565b6000546001600160a01b039081169116146112fa576040805162461bcd60e51b815260206004820181905260248201526000805160206123ee833981519152604482015290519081900360640190fd5b60085460ff1661133f576040805162461bcd60e51b815260206004820152600b60248201526a135d5cdd081899481cd95d60aa1b604482015290519081900360640190fd5b81156113a557600954811161139b576040805162461bcd60e51b815260206004820152601860248201527f4e6577206c696d6974206d757374206265206869676865720000000000000000604482015290519081900360640190fd5b60098190556113b9565b6008805460ff191683151517905560006009555b60095460408051918252517f241f67ee5f41b7a5cabf911367329be7215900f602ebfc47f89dce2a6bcd847c9181900360200190a15050565b60055481565b60116020526000908152604090208054600182015460028301546003909301549192909184565b6010602052816000526040600020818154811061143857fe5b60009182526020909120600490910201805460018201546002830154600390930154919450925084565b600260015414156114a8576040805162461bcd60e51b815260206004820152601f60248201526000805160206123a8833981519152604482015290519081900360640190fd5b6002600155600a546114b957611612565b6114c1611d22565b33600090815260106020526040812090805b82548110156115795760008382815481106114ea57fe5b9060005260206000209060040201905080600001546000141561150d5750611571565b60006115368260030154610b4c600b54610b406004548760000154611e0890919063ffffffff16565b9050611548848263ffffffff611ccd16565b600b54600454845492965061156692610b409163ffffffff611e0816565b826003018190555050505b6001016114d3565b50801561160f5780611589611226565b10156115d9576040805162461bcd60e51b815260206004820152601a602482015279496e73756666696369656e742072657761726420746f6b656e7360301b604482015290519081900360640190fd5b6115e33382611f22565b5080600d54111561160957600d54611601908263ffffffff611ed216565b600d5561160f565b6000600d555b50505b60018055565b600f5481565b600b5481565b6002600154141561166a576040805162461bcd60e51b815260206004820152601f60248201526000805160206123a8833981519152604482015290519081900360640190fd5b600260015534806116c2576040805162461bcd60e51b815260206004820152601f60248201527f416d6f756e742073686f756c642062652067726561746f72207468616e203000604482015290519081900360640190fd5b6116ca611d22565b336000908152601160209081526040808320601090925282206008549192909160ff161561175b57600954835461170890869063ffffffff611ccd16565b111561175b576040805162461bcd60e51b815260206004820152601760248201527f5573657220616d6f756e742061626f7665206c696d6974000000000000000000604482015290519081900360640190fd5b60005b825481101561180457600083828154811061177557fe5b9060005260206000209060040201905080600001546000141561179857506117fc565b60006117c18260030154610b4c600b54610b406004548760000154611e0890919063ffffffff16565b90506117d3848263ffffffff611ccd16565b600b5460045484549296506117f192610b409163ffffffff611e0816565b826003018190555050505b60010161175e565b50801561189a5780611814611226565b1015611864576040805162461bcd60e51b815260206004820152601a602482015279496e73756666696369656e742072657761726420746f6b656e7360301b604482015290519081900360640190fd5b61186e3382611f22565b5080600d54111561189457600d5461188c908263ffffffff611ed216565b600d5561189a565b6000600d555b83156118e55782546118b2908563ffffffff611ccd16565b83556001808401546118c99163ffffffff611ccd16565b6001840155600c546118e1908563ffffffff611ccd16565b600c555b6006541561196857600061190a612710610b4060065488611e0890919063ffffffff16565b905080156119665761191a6111f3565b6001600160a01b03166108fc829081150290604051600060405180830381858888f19350505050158015611952573d6000803e3d6000fd5b50611963858263ffffffff611ed216565b94505b505b6119723385612229565b3360009081526012602052604090205460ff166119bc57336000908152601260205260409020805460ff19166001908117909155600f546119b89163ffffffff611ccd16565b600f555b60408051858152905133917fe1fffcc4923d04b559f4d29a8bfc6cda04eb5b0d3c460751c2402c5c5cc9109c919081900360200190a25050600180555050565b60075481565b611a0a611cc9565b6000546001600160a01b03908116911614611a5a576040805162461bcd60e51b815260206004820181905260248201526000805160206123ee833981519152604482015290519081900360640190fd5b6001600160a01b038116611a9f5760405162461bcd60e51b81526004018080602001828103825260268152602001806123c86026913960400191505060405180910390fd5b600080546040516001600160a01b03808516939216917f8be0079c531659141344cd1fd0a4f28419497f9722a3daafe3b4186f6b6457e091a3600080546001600160a01b0319166001600160a01b0392909216919091179055565b6000600a5460001415611b0f57506000611c3b565b6001600160a01b0382166000908152601060205260409020600c54611b38576000915050611c3b565b60045460055443118015611b4d5750600c5415155b15611bb6576000611b6960055443611ed290919063ffffffff16565b90506000611b8260035483611e0890919063ffffffff16565b9050611bb1611ba2600c54610b40600b5485611e0890919063ffffffff16565b6004549063ffffffff611ccd16565b925050505b6000805b8354811015611c35576000848281548110611bd157fe5b90600052602060002090600402019050806000015460001415611bf45750611c2d565b611c29611c1c8260030154610b4c600b54610b40898760000154611e0890919063ffffffff16565b849063ffffffff611ccd16565b9250505b600101611bba565b50925050505b919050565b600e546001600160a01b031681565b611c57611cc9565b6000546001600160a01b03908116911614611ca7576040805162461bcd60e51b815260206004820181905260248201526000805160206123ee833981519152604482015290519081900360640190fd5b600e80546001600160a01b0319166001600160a01b0392909216919091179055565b3390565b80820182811015611d1c576040805162461bcd60e51b815260206004820152601460248201527364732d6d6174682d6164642d6f766572666c6f7760601b604482015290519081900360640190fd5b92915050565b6005544311611d3057611e06565b600c54611d405743600555611e06565b6000611d5760055443611ed290919063ffffffff16565b90506000611d7060035483611e0890919063ffffffff16565b600e54604080516340c10f1960e01b81523060048201526024810184905290519293506001600160a01b03909116916340c10f199160448082019260009290919082900301818387803b158015611dc657600080fd5b505af1158015611dda573d6000803e3d6000fd5b50505050611dfc611ba2600c54610b40600b5485611e0890919063ffffffff16565b6004555050436005555b565b6000811580611e2357505080820282828281611e2057fe5b04145b611d1c576040805162461bcd60e51b815260206004820152601460248201527364732d6d6174682d6d756c2d6f766572666c6f7760601b604482015290519081900360640190fd5b6000808211611ec1576040805162461bcd60e51b815260206004820152601a60248201527f536166654d6174683a206469766973696f6e206279207a65726f000000000000604482015290519081900360640190fd5b818381611eca57fe5b049392505050565b80820382811115611d1c576040805162461bcd60e51b815260206004820152601560248201527464732d6d6174682d7375622d756e646572666c6f7760581b604482015290519081900360640190fd5b600e54604080516370a0823160e01b8152306004820152905160009283926001600160a01b03909116916370a0823191602480820192602092909190829003018186803b158015611f7257600080fd5b505afa158015611f86573d6000803e3d6000fd5b505050506040513d6020811015611f9c57600080fd5b505190508083111561203357600e546040805163a9059cbb60e01b81526001600160a01b038781166004830152602482018590529151919092169163a9059cbb9160448083019260209291908290030181600087803b158015611ffe57600080fd5b505af1158015612012573d6000803e3d6000fd5b505050506040513d602081101561202857600080fd5b50909150611d1c9050565b600e546040805163a9059cbb60e01b81526001600160a01b038781166004830152602482018790529151919092169163a9059cbb9160448083019260209291908290030181600087803b15801561208957600080fd5b505af115801561209d573d6000803e3d6000fd5b505050506040513d60208110156120b357600080fd5b50839250611d1c915050565b6001600160a01b0385166000908152601060205260408120600254909190612101906120f4906201518063ffffffff611e0816565b429063ffffffff611ccd16565b82549091506101008110612149576040805162461bcd60e51b815260206004820152600a6024820152694d6178207374616b657360b01b604482015290519081900360640190fd5b8254600101835560008390525b801580159061218457508183600183038154811061217057fe5b906000526020600020906004020160020154115b156121ed5782600182038154811061219857fe5b90600052602060002090600402018382815481106121b257fe5b600091825260209091208254600490920201908155600180830154908201556002808301549082015560039182015491015560001901612156565b60008382815481106121fb57fe5b6000918252602090912060049091020160018101979097555050505060028301919091559181556003015550565b6001600160a01b038216600090815260106020526040812060025490919061225e906120f4906201518063ffffffff611e0816565b825490915061010081106122a6576040805162461bcd60e51b815260206004820152600a6024820152694d6178207374616b657360b01b604482015290519081900360640190fd5b8254600101835560008390525b80158015906122e15750818360018303815481106122cd57fe5b906000526020600020906004020160020154115b1561234a578260018203815481106122f557fe5b906000526020600020906004020183828154811061230f57fe5b6000918252602090912082546004909202019081556001808301549082015560028083015490820155600391820154910155600019016122b3565b600083828154811061235857fe5b600091825260209091206002805460016004948502909301928301558101859055868155600b54915490925061239a9190610b4090889063ffffffff611e0816565b600390910155505050505056fe5265656e7472616e637947756172643a207265656e7472616e742063616c6c004f776e61626c653a206e6577206f776e657220697320746865207a65726f20616464726573734f776e61626c653a2063616c6c6572206973206e6f7420746865206f776e6572a2646970667358221220d5f73df87111f3c0df8eb2108146850f086fd12bbdef1ca39262ef3c131d253464736f6c63430006060033",
  "linkReferences": {},
  "deployedLinkReferences": {}
}