{
  "_format": "hh-sol-artifact-1",
  "contractName": "MyToken",
  "sourceName": "contracts/Lock.sol",
  "abi": [
    {
      "inputs": [
        {
          "internalType": "address",
          "name": "initialOwner",
          "type": "address"
        },
        {
          "internalType": "string",
          "name": "name",
          "type": "string"
        },
        {
          "internalType": "string",
          "name": "symbol",
          "type": "string"
        }
      ],
      "stateMutability": "nonpayable",
      "type": "constructor"
    },
    {
      "anonymous": false,
      "inputs": [
        {
          "indexed": true,
          "internalType": "address",
          "name": "owner",
          "type": "address"
        },
        {
          "indexed": true,
          "internalType": "address",
          "name": "approved",
          "type": "address"
        },
        {
          "indexed": true,
          "internalType": "uint256",
          "name": "tokenId",
          "type": "uint256"
        }
      ],
      "name": "Approval",
      "type": "event"
    },
    {
      "anonymous": false,
      "inputs": [
        {
          "indexed": true,
          "internalType": "address",
          "name": "owner",
          "type": "address"
        },
        {
          "indexed": true,
          "internalType": "address",
          "name": "operator",
          "type": "address"
        },
        {
          "indexed": false,
          "internalType": "bool",
          "name": "approved",
          "type": "bool"
        }
      ],
      "name": "ApprovalForAll",
      "type": "event"
    },
    {
      "anonymous": false,
      "inputs": [
        {
          "indexed": true,
          "internalType": "address",
          "name": "previousOwner",
          "type": "address"
        },
        {
          "indexed": true,
          "internalType": "address",
          "name": "newOwner",
          "type": "address"
        }
      ],
      "name": "OwnershipTransferred",
      "type": "event"
    },
    {
      "anonymous": false,
      "inputs": [
        {
          "indexed": true,
          "internalType": "address",
          "name": "from",
          "type": "address"
        },
        {
          "indexed": true,
          "internalType": "address",
          "name": "to",
          "type": "address"
        },
        {
          "indexed": true,
          "internalType": "uint256",
          "name": "tokenId",
          "type": "uint256"
        }
      ],
      "name": "Transfer",
      "type": "event"
    },
    {
      "inputs": [
        {
          "internalType": "address",
          "name": "to",
          "type": "address"
        },
        {
          "internalType": "uint256",
          "name": "tokenId",
          "type": "uint256"
        }
      ],
      "name": "approve",
      "outputs": [],
      "stateMutability": "nonpayable",
      "type": "function"
    },
    {
      "inputs": [
        {
          "internalType": "address",
          "name": "owner",
          "type": "address"
        }
      ],
      "name": "balanceOf",
      "outputs": [
        {
          "internalType": "uint256",
          "name": "",
          "type": "uint256"
        }
      ],
      "stateMutability": "view",
      "type": "function"
    },
    {
      "inputs": [
        {
          "internalType": "uint256",
          "name": "tokenId",
          "type": "uint256"
        }
      ],
      "name": "burn",
      "outputs": [],
      "stateMutability": "nonpayable",
      "type": "function"
    },
    {
      "inputs": [
        {
          "internalType": "uint256",
          "name": "tokenId",
          "type": "uint256"
        }
      ],
      "name": "getApproved",
      "outputs": [
        {
          "internalType": "address",
          "name": "",
          "type": "address"
        }
      ],
      "stateMutability": "view",
      "type": "function"
    },
    {
      "inputs": [
        {
          "internalType": "address",
          "name": "owner",
          "type": "address"
        },
        {
          "internalType": "address",
          "name": "operator",
          "type": "address"
        }
      ],
      "name": "isApprovedForAll",
      "outputs": [
        {
          "internalType": "bool",
          "name": "",
          "type": "bool"
        }
      ],
      "stateMutability": "view",
      "type": "function"
    },
    {
      "inputs": [],
      "name": "name",
      "outputs": [
        {
          "internalType": "string",
          "name": "",
          "type": "string"
        }
      ],
      "stateMutability": "view",
      "type": "function"
    },
    {
      "inputs": [],
      "name": "owner",
      "outputs": [
        {
          "internalType": "address",
          "name": "",
          "type": "address"
        }
      ],
      "stateMutability": "view",
      "type": "function"
    },
    {
      "inputs": [
        {
          "internalType": "uint256",
          "name": "tokenId",
          "type": "uint256"
        }
      ],
      "name": "ownerOf",
      "outputs": [
        {
          "internalType": "address",
          "name": "",
          "type": "address"
        }
      ],
      "stateMutability": "view",
      "type": "function"
    },
    {
      "inputs": [],
      "name": "renounceOwnership",
      "outputs": [],
      "stateMutability": "nonpayable",
      "type": "function"
    },
    {
      "inputs": [
        {
          "internalType": "address",
          "name": "to",
          "type": "address"
        },
        {
          "internalType": "string",
          "name": "uri",
          "type": "string"
        },
        {
          "internalType": "uint256",
          "name": "tokenId",
          "type": "uint256"
        }
      ],
      "name": "safeMint",
      "outputs": [],
      "stateMutability": "nonpayable",
      "type": "function"
    },
    {
      "inputs": [
        {
          "internalType": "address",
          "name": "from",
          "type": "address"
        },
        {
          "internalType": "address",
          "name": "to",
          "type": "address"
        },
        {
          "internalType": "uint256",
          "name": "tokenId",
          "type": "uint256"
        }
      ],
      "name": "safeTransferFrom",
      "outputs": [],
      "stateMutability": "nonpayable",
      "type": "function"
    },
    {
      "inputs": [
        {
          "internalType": "address",
          "name": "from",
          "type": "address"
        },
        {
          "internalType": "address",
          "name": "to",
          "type": "address"
        },
        {
          "internalType": "uint256",
          "name": "tokenId",
          "type": "uint256"
        },
        {
          "internalType": "bytes",
          "name": "_data",
          "type": "bytes"
        }
      ],
      "name": "safeTransferFrom",
      "outputs": [],
      "stateMutability": "nonpayable",
      "type": "function"
    },
    {
      "inputs": [
        {
          "internalType": "address",
          "name": "operator",
          "type": "address"
        },
        {
          "internalType": "bool",
          "name": "approved",
          "type": "bool"
        }
      ],
      "name": "setApprovalForAll",
      "outputs": [],
      "stateMutability": "nonpayable",
      "type": "function"
    },
    {
      "inputs": [
        {
          "internalType": "bytes4",
          "name": "interfaceId",
          "type": "bytes4"
        }
      ],
      "name": "supportsInterface",
      "outputs": [
        {
          "internalType": "bool",
          "name": "",
          "type": "bool"
        }
      ],
      "stateMutability": "view",
      "type": "function"
    },
    {
      "inputs": [],
      "name": "symbol",
      "outputs": [
        {
          "internalType": "string",
          "name": "",
          "type": "string"
        }
      ],
      "stateMutability": "view",
      "type": "function"
    },
    {
      "inputs": [
        {
          "internalType": "uint256",
          "name": "index",
          "type": "uint256"
        }
      ],
      "name": "tokenByIndex",
      "outputs": [
        {
          "internalType": "uint256",
          "name": "",
          "type": "uint256"
        }
      ],
      "stateMutability": "view",
      "type": "function"
    },
    {
      "inputs": [
        {
          "internalType": "address",
          "name": "owner",
          "type": "address"
        },
        {
          "internalType": "uint256",
          "name": "index",
          "type": "uint256"
        }
      ],
      "name": "tokenOfOwnerByIndex",
      "outputs": [
        {
          "internalType": "uint256",
          "name": "",
          "type": "uint256"
        }
      ],
      "stateMutability": "view",
      "type": "function"
    },
    {
      "inputs": [
        {
          "internalType": "uint256",
          "name": "tokenId",
          "type": "uint256"
        }
      ],
      "name": "tokenURI",
      "outputs": [
        {
          "internalType": "string",
          "name": "",
          "type": "string"
        }
      ],
      "stateMutability": "view",
      "type": "function"
    },
    {
      "inputs": [],
      "name": "totalSupply",
      "outputs": [
        {
          "internalType": "uint256",
          "name": "",
          "type": "uint256"
        }
      ],
      "stateMutability": "view",
      "type": "function"
    },
    {
      "inputs": [
        {
          "internalType": "address",
          "name": "from",
          "type": "address"
        },
        {
          "internalType": "address",
          "name": "to",
          "type": "address"
        },
        {
          "internalType": "uint256",
          "name": "tokenId",
          "type": "uint256"
        }
      ],
      "name": "transferFrom",
      "outputs": [],
      "stateMutability": "nonpayable",
      "type": "function"
    },
    {
      "inputs": [
        {
          "internalType": "address",
          "name": "newOwner",
          "type": "address"
        }
      ],
      "name": "transferOwnership",
      "outputs": [],
      "stateMutability": "nonpayable",
      "type": "function"
    }
  ],
  "bytecode": "0x60806040523480156200001157600080fd5b506040516200238738038062002387833981016040819052620000349162000224565b8151829082906200004d906000906020850190620000d3565b50805162000063906001906020840190620000d3565b505050600062000078620000cf60201b60201c565b600680546001600160a01b0319166001600160a01b038316908117909155604051919250906000907f8be0079c531659141344cd1fd0a4f28419497f9722a3daafe3b4186f6b6457e0908290a350505050620002fd565b3390565b828054620000e190620002aa565b90600052602060002090601f01602090048101928262000105576000855562000150565b82601f106200012057805160ff191683800117855562000150565b8280016001018555821562000150579182015b828111156200015057825182559160200191906001019062000133565b506200015e92915062000162565b5090565b5b808211156200015e576000815560010162000163565b600082601f8301126200018a578081fd5b81516001600160401b0380821115620001a757620001a7620002e7565b6040516020601f8401601f1916820181018381118382101715620001cf57620001cf620002e7565b6040528382528584018101871015620001e6578485fd5b8492505b83831015620002095785830181015182840182015291820191620001ea565b838311156200021a57848185840101525b5095945050505050565b60008060006060848603121562000239578283fd5b83516001600160a01b038116811462000250578384fd5b60208501519093506001600160401b03808211156200026d578384fd5b6200027b8783880162000179565b9350604086015191508082111562000291578283fd5b50620002a08682870162000179565b9150509250925092565b600281046001821680620002bf57607f821691505b60208210811415620002e157634e487b7160e01b600052602260045260246000fd5b50919050565b634e487b7160e01b600052604160045260246000fd5b61207a806200030d6000396000f3fe608060405234801561001057600080fd5b50600436106101375760003560e01c80636352211e116100b8578063a22cb4651161007c578063a22cb46514610261578063b88d4fde14610274578063c772745a14610287578063c87b56dd1461029a578063e985e9c5146102ad578063f2fde38b146102c057610137565b80636352211e1461022357806370a0823114610236578063715018a6146102495780638da5cb5b1461025157806395d89b411461025957610137565b806323b872dd116100ff57806323b872dd146101c45780632f745c59146101d757806342842e0e146101ea57806342966c68146101fd5780634f6ccce71461021057610137565b806301ffc9a71461013c57806306fdde0314610165578063081812fc1461017a578063095ea7b31461019a57806318160ddd146101af575b600080fd5b61014f61014a366004611804565b6102d3565b60405161015c9190611900565b60405180910390f35b61016d6102e6565b60405161015c919061190b565b61018d61018836600461183c565b610378565b60405161015c91906118af565b6101ad6101a83660046117db565b6103c4565b005b6101b761045c565b60405161015c9190611f0a565b6101ad6101d2366004611685565b610462565b6101b76101e53660046117db565b61049a565b6101ad6101f8366004611685565b6104ec565b6101ad61020b36600461183c565b610507565b6101b761021e36600461183c565b61053a565b61018d61023136600461183c565b610595565b6101b7610244366004611639565b6105ca565b6101ad61060e565b61018d610697565b61016d6106a6565b6101ad61026f366004611739565b6106b5565b6101ad6102823660046116c0565b610783565b6101ad610295366004611773565b6107c2565b61016d6102a836600461183c565b610815565b61014f6102bb366004611653565b610820565b6101ad6102ce366004611639565b61084e565b60006102de8261090f565b90505b919050565b6060600080546102f590611f82565b80601f016020809104026020016040519081016040528092919081815260200182805461032190611f82565b801561036e5780601f106103435761010080835404028352916020019161036e565b820191906000526020600020905b81548152906001019060200180831161035157829003601f168201915b5050505050905090565b600061038382610934565b6103a85760405162461bcd60e51b815260040161039f90611cc3565b60405180910390fd5b506000908152600460205260409020546001600160a01b031690565b60006103cf82610595565b9050806001600160a01b0316836001600160a01b031614156104035760405162461bcd60e51b815260040161039f90611ddc565b806001600160a01b0316610415610951565b6001600160a01b031614806104315750610431816102bb610951565b61044d5760405162461bcd60e51b815260040161039f90611aff565b6104578383610955565b505050565b600a5490565b61047361046d610951565b826109c3565b61048f5760405162461bcd60e51b815260040161039f90611e1d565b610457838383610a48565b60006104a5836105ca565b82106104c35760405162461bcd60e51b815260040161039f9061191e565b506001600160a01b03919091166000908152600860209081526040808320938352929052205490565b61045783838360405180602001604052806000815250610783565b61051261046d610951565b61052e5760405162461bcd60e51b815260040161039f90611eba565b61053781610b75565b50565b600061054461045c565b82106105625760405162461bcd60e51b815260040161039f90611e6e565b600a828154811061058357634e487b7160e01b600052603260045260246000fd5b90600052602060002001549050919050565b6000818152600260205260408120546001600160a01b0316806102de5760405162461bcd60e51b815260040161039f90611ba6565b60006001600160a01b0382166105f25760405162461bcd60e51b815260040161039f90611b5c565b506001600160a01b031660009081526003602052604090205490565b610616610951565b6001600160a01b0316610627610697565b6001600160a01b03161461064d5760405162461bcd60e51b815260040161039f90611d0f565b6006546040516000916001600160a01b0316907f8be0079c531659141344cd1fd0a4f28419497f9722a3daafe3b4186f6b6457e0908390a3600680546001600160a01b0319169055565b6006546001600160a01b031690565b6060600180546102f590611f82565b6106bd610951565b6001600160a01b0316826001600160a01b031614156106ee5760405162461bcd60e51b815260040161039f90611a7c565b80600560006106fb610951565b6001600160a01b03908116825260208083019390935260409182016000908120918716808252919093529120805460ff19169215159290921790915561073f610951565b6001600160a01b03167f17307eab39ab6107e8899845ad3d59bd9653f200f220920489ca2b5937696c31836040516107779190611900565b60405180910390a35050565b61079461078e610951565b836109c3565b6107b05760405162461bcd60e51b815260040161039f90611e1d565b6107bc84848484610b7e565b50505050565b6107ca610951565b6001600160a01b03166107db610697565b6001600160a01b0316146108015760405162461bcd60e51b815260040161039f90611d0f565b61080b8382610bb1565b6104578183610bcf565b60606102de82610c13565b6001600160a01b03918216600090815260056020908152604080832093909416825291909152205460ff1690565b610856610951565b6001600160a01b0316610867610697565b6001600160a01b03161461088d5760405162461bcd60e51b815260040161039f90611d0f565b6001600160a01b0381166108b35760405162461bcd60e51b815260040161039f906119bb565b6006546040516001600160a01b038084169216907f8be0079c531659141344cd1fd0a4f28419497f9722a3daafe3b4186f6b6457e090600090a3600680546001600160a01b0319166001600160a01b0392909216919091179055565b60006001600160e01b0319821663780e9d6360e01b14806102de57506102de82610d2c565b6000908152600260205260409020546001600160a01b0316151590565b3390565b600081815260046020526040902080546001600160a01b0319166001600160a01b038416908117909155819061098a82610595565b6001600160a01b03167f8c5be1e5ebec7d5bd14f71427d1e84f3dd0314c0f7b2291e5b200ac8c7c3b92560405160405180910390a45050565b60006109ce82610934565b6109ea5760405162461bcd60e51b815260040161039f90611ab3565b60006109f583610595565b9050806001600160a01b0316846001600160a01b03161480610a305750836001600160a01b0316610a2584610378565b6001600160a01b0316145b80610a405750610a408185610820565b949350505050565b826001600160a01b0316610a5b82610595565b6001600160a01b031614610a815760405162461bcd60e51b815260040161039f90611d44565b6001600160a01b038216610aa75760405162461bcd60e51b815260040161039f90611a38565b610ab2838383610d6c565b610abd600082610955565b6001600160a01b0383166000908152600360205260408120805460019290610ae6908490611f3f565b90915550506001600160a01b0382166000908152600360205260408120805460019290610b14908490611f13565b909155505060008181526002602052604080822080546001600160a01b0319166001600160a01b0386811691821790925591518493918716917fddf252ad1be2c89b69c2b068fc378daa952ba7f163c4a11628f55a4df523b3ef91a4505050565b61053781610d77565b610b89848484610a48565b610b9584848484610db7565b6107bc5760405162461bcd60e51b815260040161039f90611969565b610bcb828260405180602001604052806000815250610ed2565b5050565b610bd882610934565b610bf45760405162461bcd60e51b815260040161039f90611bef565b60008281526007602090815260409091208251610457928401906114e1565b6060610c1e82610934565b610c3a5760405162461bcd60e51b815260040161039f90611c72565b60008281526007602052604081208054610c5390611f82565b80601f0160208091040260200160405190810160405280929190818152602001828054610c7f90611f82565b8015610ccc5780601f10610ca157610100808354040283529160200191610ccc565b820191906000526020600020905b815481529060010190602001808311610caf57829003601f168201915b505050505090506000610cdd610f05565b9050805160001415610cf1575090506102e1565b815115610d23578082604051602001610d0b929190611880565b604051602081830303815290604052925050506102e1565b610a4084610f17565b60006001600160e01b031982166380ac58cd60e01b1480610d5d57506001600160e01b03198216635b5e139f60e01b145b806102de57506102de82610f9a565b610457838383610fb3565b610d808161103c565b60008181526007602052604090208054610d9990611f82565b15905061053757600081815260076020526040812061053791611565565b6000610dcb846001600160a01b03166110e3565b15610ec757836001600160a01b031663150b7a02610de7610951565b8786866040518563ffffffff1660e01b8152600401610e0994939291906118c3565b602060405180830381600087803b158015610e2357600080fd5b505af1925050508015610e53575060408051601f3d908101601f19168201909252610e5091810190611820565b60015b610ead573d808015610e81576040519150601f19603f3d011682016040523d82523d6000602084013e610e86565b606091505b508051610ea55760405162461bcd60e51b815260040161039f90611969565b805181602001fd5b6001600160e01b031916630a85bd0160e11b149050610a40565b506001949350505050565b610edc83836110e9565b610ee96000848484610db7565b6104575760405162461bcd60e51b815260040161039f90611969565b60408051602081019091526000815290565b6060610f2282610934565b610f3e5760405162461bcd60e51b815260040161039f90611d8d565b6000610f48610f05565b90506000815111610f685760405180602001604052806000815250610f93565b80610f72846111c8565b604051602001610f83929190611880565b6040516020818303038152906040525b9392505050565b6001600160e01b031981166301ffc9a760e01b14919050565b610fbe838383610457565b6001600160a01b038316610fda57610fd5816112e3565b610ffd565b816001600160a01b0316836001600160a01b031614610ffd57610ffd8382611327565b6001600160a01b03821661101957611014816113c4565b610457565b826001600160a01b0316826001600160a01b03161461045757610457828261149d565b600061104782610595565b905061105581600084610d6c565b611060600083610955565b6001600160a01b0381166000908152600360205260408120805460019290611089908490611f3f565b909155505060008281526002602052604080822080546001600160a01b0319169055518391906001600160a01b038416907fddf252ad1be2c89b69c2b068fc378daa952ba7f163c4a11628f55a4df523b3ef908390a45050565b3b151590565b6001600160a01b03821661110f5760405162461bcd60e51b815260040161039f90611c3d565b61111881610934565b156111355760405162461bcd60e51b815260040161039f90611a01565b61114160008383610d6c565b6001600160a01b038216600090815260036020526040812080546001929061116a908490611f13565b909155505060008181526002602052604080822080546001600160a01b0319166001600160a01b03861690811790915590518392907fddf252ad1be2c89b69c2b068fc378daa952ba7f163c4a11628f55a4df523b3ef908290a45050565b6060816111ed57506040805180820190915260018152600360fc1b60208201526102e1565b8160005b8115611217578061120181611fbd565b91506112109050600a83611f2b565b91506111f1565b60008167ffffffffffffffff81111561124057634e487b7160e01b600052604160045260246000fd5b6040519080825280601f01601f19166020018201604052801561126a576020820181803683370190505b5090505b8415610a405761127f600183611f3f565b915061128c600a86611fd8565b611297906030611f13565b60f81b8183815181106112ba57634e487b7160e01b600052603260045260246000fd5b60200101906001600160f81b031916908160001a9053506112dc600a86611f2b565b945061126e565b600a80546000838152600b60205260408120829055600182018355919091527fc65a7bb8d6351c1cf70c95a316cc6a92839c986682d98bc35f958f4883f9d2a80155565b60006001611334846105ca565b61133e9190611f3f565b600083815260096020526040902054909150808214611391576001600160a01b03841660009081526008602090815260408083208584528252808320548484528184208190558352600990915290208190555b5060009182526009602090815260408084208490556001600160a01b039094168352600881528383209183525290812055565b600a546000906113d690600190611f3f565b6000838152600b6020526040812054600a805493945090928490811061140c57634e487b7160e01b600052603260045260246000fd5b9060005260206000200154905080600a838154811061143b57634e487b7160e01b600052603260045260246000fd5b6000918252602080832090910192909255828152600b9091526040808220849055858252812055600a80548061148157634e487b7160e01b600052603160045260246000fd5b6001900381819060005260206000200160009055905550505050565b60006114a8836105ca565b6001600160a01b039093166000908152600860209081526040808320868452825280832085905593825260099052919091209190915550565b8280546114ed90611f82565b90600052602060002090601f01602090048101928261150f5760008555611555565b82601f1061152857805160ff1916838001178555611555565b82800160010185558215611555579182015b8281111561155557825182559160200191906001019061153a565b5061156192915061159d565b5090565b50805461157190611f82565b6000825580601f106115835750610537565b601f01602090049060005260206000209081019061053791905b5b80821115611561576000815560010161159e565b600067ffffffffffffffff808411156115cd576115cd612018565b604051601f8501601f1916810160200182811182821017156115f1576115f1612018565b60405284815291508183850186101561160957600080fd5b8484602083013760006020868301015250509392505050565b80356001600160a01b03811681146102e157600080fd5b60006020828403121561164a578081fd5b610f9382611622565b60008060408385031215611665578081fd5b61166e83611622565b915061167c60208401611622565b90509250929050565b600080600060608486031215611699578081fd5b6116a284611622565b92506116b060208501611622565b9150604084013590509250925092565b600080600080608085870312156116d5578081fd5b6116de85611622565b93506116ec60208601611622565b925060408501359150606085013567ffffffffffffffff81111561170e578182fd5b8501601f8101871361171e578182fd5b61172d878235602084016115b2565b91505092959194509250565b6000806040838503121561174b578182fd5b61175483611622565b915060208301358015158114611768578182fd5b809150509250929050565b600080600060608486031215611787578283fd5b61179084611622565b9250602084013567ffffffffffffffff8111156117ab578283fd5b8401601f810186136117bb578283fd5b6117ca868235602084016115b2565b925050604084013590509250925092565b600080604083850312156117ed578182fd5b6117f683611622565b946020939093013593505050565b600060208284031215611815578081fd5b8135610f938161202e565b600060208284031215611831578081fd5b8151610f938161202e565b60006020828403121561184d578081fd5b5035919050565b6000815180845261186c816020860160208601611f56565b601f01601f19169290920160200192915050565b60008351611892818460208801611f56565b8351908301906118a6818360208801611f56565b01949350505050565b6001600160a01b0391909116815260200190565b6001600160a01b03858116825284166020820152604081018390526080606082018190526000906118f690830184611854565b9695505050505050565b901515815260200190565b600060208252610f936020830184611854565b6020808252602b908201527f455243373231456e756d657261626c653a206f776e657220696e646578206f7560408201526a74206f6620626f756e647360a81b606082015260800190565b60208082526032908201527f4552433732313a207472616e7366657220746f206e6f6e20455243373231526560408201527131b2b4bb32b91034b6b83632b6b2b73a32b960711b606082015260800190565b60208082526026908201527f4f776e61626c653a206e6577206f776e657220697320746865207a65726f206160408201526564647265737360d01b606082015260800190565b6020808252601c908201527f4552433732313a20746f6b656e20616c7265616479206d696e74656400000000604082015260600190565b60208082526024908201527f4552433732313a207472616e7366657220746f20746865207a65726f206164646040820152637265737360e01b606082015260800190565b60208082526019908201527f4552433732313a20617070726f766520746f2063616c6c657200000000000000604082015260600190565b6020808252602c908201527f4552433732313a206f70657261746f7220717565727920666f72206e6f6e657860408201526b34b9ba32b73a103a37b5b2b760a11b606082015260800190565b60208082526038908201527f4552433732313a20617070726f76652063616c6c6572206973206e6f74206f7760408201527f6e6572206e6f7220617070726f76656420666f7220616c6c0000000000000000606082015260800190565b6020808252602a908201527f4552433732313a2062616c616e636520717565727920666f7220746865207a65604082015269726f206164647265737360b01b606082015260800190565b60208082526029908201527f4552433732313a206f776e657220717565727920666f72206e6f6e657869737460408201526832b73a103a37b5b2b760b91b606082015260800190565b6020808252602e908201527f45524337323155524953746f726167653a2055524920736574206f66206e6f6e60408201526d32bc34b9ba32b73a103a37b5b2b760911b606082015260800190565b6020808252818101527f4552433732313a206d696e7420746f20746865207a65726f2061646472657373604082015260600190565b60208082526031908201527f45524337323155524953746f726167653a2055524920717565727920666f72206040820152703737b732bc34b9ba32b73a103a37b5b2b760791b606082015260800190565b6020808252602c908201527f4552433732313a20617070726f76656420717565727920666f72206e6f6e657860408201526b34b9ba32b73a103a37b5b2b760a11b606082015260800190565b6020808252818101527f4f776e61626c653a2063616c6c6572206973206e6f7420746865206f776e6572604082015260600190565b60208082526029908201527f4552433732313a207472616e73666572206f6620746f6b656e2074686174206960408201526839903737ba1037bbb760b91b606082015260800190565b6020808252602f908201527f4552433732314d657461646174613a2055524920717565727920666f72206e6f60408201526e3732bc34b9ba32b73a103a37b5b2b760891b606082015260800190565b60208082526021908201527f4552433732313a20617070726f76616c20746f2063757272656e74206f776e656040820152603960f91b606082015260800190565b60208082526031908201527f4552433732313a207472616e736665722063616c6c6572206973206e6f74206f6040820152701ddb995c881b9bdc88185c1c1c9bdd9959607a1b606082015260800190565b6020808252602c908201527f455243373231456e756d657261626c653a20676c6f62616c20696e646578206f60408201526b7574206f6620626f756e647360a01b606082015260800190565b60208082526030908201527f4552433732314275726e61626c653a2063616c6c6572206973206e6f74206f7760408201526f1b995c881b9bdc88185c1c1c9bdd995960821b606082015260800190565b90815260200190565b60008219821115611f2657611f26611fec565b500190565b600082611f3a57611f3a612002565b500490565b600082821015611f5157611f51611fec565b500390565b60005b83811015611f71578181015183820152602001611f59565b838111156107bc5750506000910152565b600281046001821680611f9657607f821691505b60208210811415611fb757634e487b7160e01b600052602260045260246000fd5b50919050565b6000600019821415611fd157611fd1611fec565b5060010190565b600082611fe757611fe7612002565b500690565b634e487b7160e01b600052601160045260246000fd5b634e487b7160e01b600052601260045260246000fd5b634e487b7160e01b600052604160045260246000fd5b6001600160e01b03198116811461053757600080fdfea2646970667358221220c6635d17403bc3958c36086f119266570eeb2b1a4dfd265421b1ab4c6a600f2564736f6c63430008000033",
  "linkReferences": {},
  "deployedLinkReferences": {}
}