{
  "_format": "hh-sol-artifact-1",
  "contractName": "MyToken",
  "sourceName": "contracts/Lock.sol",
  "abi": [
    {
      "inputs": [
        {
          "internalType": "address",
          "name": "initialOwner",
          "type": "address"
        },
        {
          "internalType": "string",
          "name": "name",
          "type": "string"
        },
        {
          "internalType": "string",
          "name": "symbol",
          "type": "string"
        }
      ],
      "stateMutability": "nonpayable",
      "type": "constructor"
    },
    {
      "anonymous": false,
      "inputs": [
        {
          "indexed": true,
          "internalType": "address",
          "name": "owner",
          "type": "address"
        },
        {
          "indexed": true,
          "internalType": "address",
          "name": "approved",
          "type": "address"
        },
        {
          "indexed": true,
          "internalType": "uint256",
          "name": "tokenId",
          "type": "uint256"
        }
      ],
      "name": "Approval",
      "type": "event"
    },
    {
      "anonymous": false,
      "inputs": [
        {
          "indexed": true,
          "internalType": "address",
          "name": "owner",
          "type": "address"
        },
        {
          "indexed": true,
          "internalType": "address",
          "name": "operator",
          "type": "address"
        },
        {
          "indexed": false,
          "internalType": "bool",
          "name": "approved",
          "type": "bool"
        }
      ],
      "name": "ApprovalForAll",
      "type": "event"
    },
    {
      "anonymous": false,
      "inputs": [
        {
          "indexed": true,
          "internalType": "address",
          "name": "previousOwner",
          "type": "address"
        },
        {
          "indexed": true,
          "internalType": "address",
          "name": "newOwner",
          "type": "address"
        }
      ],
      "name": "OwnershipTransferred",
      "type": "event"
    },
    {
      "anonymous": false,
      "inputs": [
        {
          "indexed": true,
          "internalType": "address",
          "name": "from",
          "type": "address"
        },
        {
          "indexed": true,
          "internalType": "address",
          "name": "to",
          "type": "address"
        },
        {
          "indexed": true,
          "internalType": "uint256",
          "name": "tokenId",
          "type": "uint256"
        }
      ],
      "name": "Transfer",
      "type": "event"
    },
    {
      "inputs": [
        {
          "internalType": "address",
          "name": "to",
          "type": "address"
        },
        {
          "internalType": "uint256",
          "name": "tokenId",
          "type": "uint256"
        }
      ],
      "name": "approve",
      "outputs": [],
      "stateMutability": "nonpayable",
      "type": "function"
    },
    {
      "inputs": [
        {
          "internalType": "address",
          "name": "owner",
          "type": "address"
        }
      ],
      "name": "balanceOf",
      "outputs": [
        {
          "internalType": "uint256",
          "name": "",
          "type": "uint256"
        }
      ],
      "stateMutability": "view",
      "type": "function"
    },
    {
      "inputs": [
        {
          "internalType": "uint256",
          "name": "tokenId",
          "type": "uint256"
        }
      ],
      "name": "burn",
      "outputs": [],
      "stateMutability": "nonpayable",
      "type": "function"
    },
    {
      "inputs": [
        {
          "internalType": "uint256",
          "name": "tokenId",
          "type": "uint256"
        }
      ],
      "name": "getApproved",
      "outputs": [
        {
          "internalType": "address",
          "name": "",
          "type": "address"
        }
      ],
      "stateMutability": "view",
      "type": "function"
    },
    {
      "inputs": [
        {
          "internalType": "address",
          "name": "owner",
          "type": "address"
        },
        {
          "internalType": "address",
          "name": "operator",
          "type": "address"
        }
      ],
      "name": "isApprovedForAll",
      "outputs": [
        {
          "internalType": "bool",
          "name": "",
          "type": "bool"
        }
      ],
      "stateMutability": "view",
      "type": "function"
    },
    {
      "inputs": [],
      "name": "name",
      "outputs": [
        {
          "internalType": "string",
          "name": "",
          "type": "string"
        }
      ],
      "stateMutability": "view",
      "type": "function"
    },
    {
      "inputs": [],
      "name": "owner",
      "outputs": [
        {
          "internalType": "address",
          "name": "",
          "type": "address"
        }
      ],
      "stateMutability": "view",
      "type": "function"
    },
    {
      "inputs": [
        {
          "internalType": "uint256",
          "name": "tokenId",
          "type": "uint256"
        }
      ],
      "name": "ownerOf",
      "outputs": [
        {
          "internalType": "address",
          "name": "",
          "type": "address"
        }
      ],
      "stateMutability": "view",
      "type": "function"
    },
    {
      "inputs": [],
      "name": "renounceOwnership",
      "outputs": [],
      "stateMutability": "nonpayable",
      "type": "function"
    },
    {
      "inputs": [
        {
          "internalType": "address",
          "name": "to",
          "type": "address"
        },
        {
          "internalType": "string",
          "name": "uri",
          "type": "string"
        },
        {
          "internalType": "uint256",
          "name": "tokenId",
          "type": "uint256"
        }
      ],
      "name": "safeMint",
      "outputs": [],
      "stateMutability": "nonpayable",
      "type": "function"
    },
    {
      "inputs": [
        {
          "internalType": "address",
          "name": "from",
          "type": "address"
        },
        {
          "internalType": "address",
          "name": "to",
          "type": "address"
        },
        {
          "internalType": "uint256",
          "name": "tokenId",
          "type": "uint256"
        }
      ],
      "name": "safeTransferFrom",
      "outputs": [],
      "stateMutability": "nonpayable",
      "type": "function"
    },
    {
      "inputs": [
        {
          "internalType": "address",
          "name": "from",
          "type": "address"
        },
        {
          "internalType": "address",
          "name": "to",
          "type": "address"
        },
        {
          "internalType": "uint256",
          "name": "tokenId",
          "type": "uint256"
        },
        {
          "internalType": "bytes",
          "name": "_data",
          "type": "bytes"
        }
      ],
      "name": "safeTransferFrom",
      "outputs": [],
      "stateMutability": "nonpayable",
      "type": "function"
    },
    {
      "inputs": [
        {
          "internalType": "address",
          "name": "operator",
          "type": "address"
        },
        {
          "internalType": "bool",
          "name": "approved",
          "type": "bool"
        }
      ],
      "name": "setApprovalForAll",
      "outputs": [],
      "stateMutability": "nonpayable",
      "type": "function"
    },
    {
      "inputs": [
        {
          "internalType": "bytes4",
          "name": "interfaceId",
          "type": "bytes4"
        }
      ],
      "name": "supportsInterface",
      "outputs": [
        {
          "internalType": "bool",
          "name": "",
          "type": "bool"
        }
      ],
      "stateMutability": "view",
      "type": "function"
    },
    {
      "inputs": [],
      "name": "symbol",
      "outputs": [
        {
          "internalType": "string",
          "name": "",
          "type": "string"
        }
      ],
      "stateMutability": "view",
      "type": "function"
    },
    {
      "inputs": [
        {
          "internalType": "uint256",
          "name": "index",
          "type": "uint256"
        }
      ],
      "name": "tokenByIndex",
      "outputs": [
        {
          "internalType": "uint256",
          "name": "",
          "type": "uint256"
        }
      ],
      "stateMutability": "view",
      "type": "function"
    },
    {
      "inputs": [
        {
          "internalType": "address",
          "name": "owner",
          "type": "address"
        },
        {
          "internalType": "uint256",
          "name": "index",
          "type": "uint256"
        }
      ],
      "name": "tokenOfOwnerByIndex",
      "outputs": [
        {
          "internalType": "uint256",
          "name": "",
          "type": "uint256"
        }
      ],
      "stateMutability": "view",
      "type": "function"
    },
    {
      "inputs": [
        {
          "internalType": "uint256",
          "name": "tokenId",
          "type": "uint256"
        }
      ],
      "name": "tokenURI",
      "outputs": [
        {
          "internalType": "string",
          "name": "",
          "type": "string"
        }
      ],
      "stateMutability": "view",
      "type": "function"
    },
    {
      "inputs": [],
      "name": "totalSupply",
      "outputs": [
        {
          "internalType": "uint256",
          "name": "",
          "type": "uint256"
        }
      ],
      "stateMutability": "view",
      "type": "function"
    },
    {
      "inputs": [
        {
          "internalType": "address",
          "name": "from",
          "type": "address"
        },
        {
          "internalType": "address",
          "name": "to",
          "type": "address"
        },
        {
          "internalType": "uint256",
          "name": "tokenId",
          "type": "uint256"
        }
      ],
      "name": "transferFrom",
      "outputs": [],
      "stateMutability": "nonpayable",
      "type": "function"
    },
    {
      "inputs": [
        {
          "internalType": "address",
          "name": "newOwner",
          "type": "address"
        }
      ],
      "name": "transferOwnership",
      "outputs": [],
      "stateMutability": "nonpayable",
      "type": "function"
    }
  ],
  "bytecode": "0x60806040523480156200001157600080fd5b50604051620022f0380380620022f0833981016040819052620000349162000188565b81816000620000448382620002a1565b506001620000538282620002a1565b505050600062000068620000bf60201b60201c565b600680546001600160a01b0319166001600160a01b038316908117909155604051919250906000907f8be0079c531659141344cd1fd0a4f28419497f9722a3daafe3b4186f6b6457e0908290a3505050506200036d565b3390565b634e487b7160e01b600052604160045260246000fd5b600082601f830112620000eb57600080fd5b81516001600160401b0380821115620001085762000108620000c3565b604051601f8301601f19908116603f01168101908282118183101715620001335762000133620000c3565b816040528381526020925086838588010111156200015057600080fd5b600091505b8382101562000174578582018301518183018401529082019062000155565b600093810190920192909252949350505050565b6000806000606084860312156200019e57600080fd5b83516001600160a01b0381168114620001b657600080fd5b60208501519093506001600160401b0380821115620001d457600080fd5b620001e287838801620000d9565b93506040860151915080821115620001f957600080fd5b506200020886828701620000d9565b9150509250925092565b600181811c908216806200022757607f821691505b6020821081036200024857634e487b7160e01b600052602260045260246000fd5b50919050565b601f8211156200029c57600081815260208120601f850160051c81016020861015620002775750805b601f850160051c820191505b81811015620002985782815560010162000283565b5050505b505050565b81516001600160401b03811115620002bd57620002bd620000c3565b620002d581620002ce845462000212565b846200024e565b602080601f8311600181146200030d5760008415620002f45750858301515b600019600386901b1c1916600185901b17855562000298565b600085815260208120601f198616915b828110156200033e578886015182559484019460019091019084016200031d565b50858210156200035d5787850151600019600388901b60f8161c191681555b5050505050600190811b01905550565b611f73806200037d6000396000f3fe608060405234801561001057600080fd5b50600436106101375760003560e01c80636352211e116100b8578063a22cb4651161007c578063a22cb46514610271578063b88d4fde14610284578063c772745a14610297578063c87b56dd146102aa578063e985e9c5146102bd578063f2fde38b146102f957600080fd5b80636352211e1461022a57806370a082311461023d578063715018a6146102505780638da5cb5b1461025857806395d89b411461026957600080fd5b806323b872dd116100ff57806323b872dd146101cb5780632f745c59146101de57806342842e0e146101f157806342966c68146102045780634f6ccce71461021757600080fd5b806301ffc9a71461013c57806306fdde0314610164578063081812fc14610179578063095ea7b3146101a457806318160ddd146101b9575b600080fd5b61014f61014a3660046118bd565b61030c565b60405190151581526020015b60405180910390f35b61016c61031d565b60405161015b919061192a565b61018c61018736600461193d565b6103af565b6040516001600160a01b03909116815260200161015b565b6101b76101b2366004611972565b61043c565b005b600a545b60405190815260200161015b565b6101b76101d936600461199c565b610551565b6101bd6101ec366004611972565b610583565b6101b76101ff36600461199c565b610619565b6101b761021236600461193d565b610634565b6101bd61022536600461193d565b6106ae565b61018c61023836600461193d565b610741565b6101bd61024b3660046119d8565b6107b8565b6101b761083f565b6006546001600160a01b031661018c565b61016c6108b3565b6101b761027f3660046119f3565b6108c2565b6101b7610292366004611abb565b610986565b6101b76102a5366004611b37565b6109be565b61016c6102b836600461193d565b6109fc565b61014f6102cb366004611ba2565b6001600160a01b03918216600090815260056020908152604080832093909416825291909152205460ff1690565b6101b76103073660046119d8565b610a07565b600061031782610af2565b92915050565b60606000805461032c90611bd5565b80601f016020809104026020016040519081016040528092919081815260200182805461035890611bd5565b80156103a55780601f1061037a576101008083540402835291602001916103a5565b820191906000526020600020905b81548152906001019060200180831161038857829003601f168201915b5050505050905090565b60006103ba82610b17565b6104205760405162461bcd60e51b815260206004820152602c60248201527f4552433732313a20617070726f76656420717565727920666f72206e6f6e657860448201526b34b9ba32b73a103a37b5b2b760a11b60648201526084015b60405180910390fd5b506000908152600460205260409020546001600160a01b031690565b600061044782610741565b9050806001600160a01b0316836001600160a01b0316036104b45760405162461bcd60e51b815260206004820152602160248201527f4552433732313a20617070726f76616c20746f2063757272656e74206f776e656044820152603960f91b6064820152608401610417565b336001600160a01b03821614806104d057506104d081336102cb565b6105425760405162461bcd60e51b815260206004820152603860248201527f4552433732313a20617070726f76652063616c6c6572206973206e6f74206f7760448201527f6e6572206e6f7220617070726f76656420666f7220616c6c00000000000000006064820152608401610417565b61054c8383610b34565b505050565b61055c335b82610ba2565b6105785760405162461bcd60e51b815260040161041790611c0f565b61054c838383610c8c565b600061058e836107b8565b82106105f05760405162461bcd60e51b815260206004820152602b60248201527f455243373231456e756d657261626c653a206f776e657220696e646578206f7560448201526a74206f6620626f756e647360a81b6064820152608401610417565b506001600160a01b03919091166000908152600860209081526040808320938352929052205490565b61054c83838360405180602001604052806000815250610986565b61063d33610556565b6106a25760405162461bcd60e51b815260206004820152603060248201527f4552433732314275726e61626c653a2063616c6c6572206973206e6f74206f7760448201526f1b995c881b9bdc88185c1c1c9bdd995960821b6064820152608401610417565b6106ab81610e37565b50565b60006106b9600a5490565b821061071c5760405162461bcd60e51b815260206004820152602c60248201527f455243373231456e756d657261626c653a20676c6f62616c20696e646578206f60448201526b7574206f6620626f756e647360a01b6064820152608401610417565b600a828154811061072f5761072f611c60565b90600052602060002001549050919050565b6000818152600260205260408120546001600160a01b0316806103175760405162461bcd60e51b815260206004820152602960248201527f4552433732313a206f776e657220717565727920666f72206e6f6e657869737460448201526832b73a103a37b5b2b760b91b6064820152608401610417565b60006001600160a01b0382166108235760405162461bcd60e51b815260206004820152602a60248201527f4552433732313a2062616c616e636520717565727920666f7220746865207a65604482015269726f206164647265737360b01b6064820152608401610417565b506001600160a01b031660009081526003602052604090205490565b6006546001600160a01b031633146108695760405162461bcd60e51b815260040161041790611c76565b6006546040516000916001600160a01b0316907f8be0079c531659141344cd1fd0a4f28419497f9722a3daafe3b4186f6b6457e0908390a3600680546001600160a01b0319169055565b60606001805461032c90611bd5565b336001600160a01b0383160361091a5760405162461bcd60e51b815260206004820152601960248201527f4552433732313a20617070726f766520746f2063616c6c6572000000000000006044820152606401610417565b3360008181526005602090815260408083206001600160a01b03871680855290835292819020805460ff191686151590811790915590519081529192917f17307eab39ab6107e8899845ad3d59bd9653f200f220920489ca2b5937696c31910160405180910390a35050565b6109903383610ba2565b6109ac5760405162461bcd60e51b815260040161041790611c0f565b6109b884848484610e40565b50505050565b6006546001600160a01b031633146109e85760405162461bcd60e51b815260040161041790611c76565b6109f28382610e73565b61054c8183610e91565b606061031782610f15565b6006546001600160a01b03163314610a315760405162461bcd60e51b815260040161041790611c76565b6001600160a01b038116610a965760405162461bcd60e51b815260206004820152602660248201527f4f776e61626c653a206e6577206f776e657220697320746865207a65726f206160448201526564647265737360d01b6064820152608401610417565b6006546040516001600160a01b038084169216907f8be0079c531659141344cd1fd0a4f28419497f9722a3daafe3b4186f6b6457e090600090a3600680546001600160a01b0319166001600160a01b0392909216919091179055565b60006001600160e01b0319821663780e9d6360e01b1480610317575061031782611083565b6000908152600260205260409020546001600160a01b0316151590565b600081815260046020526040902080546001600160a01b0319166001600160a01b0384169081179091558190610b6982610741565b6001600160a01b03167f8c5be1e5ebec7d5bd14f71427d1e84f3dd0314c0f7b2291e5b200ac8c7c3b92560405160405180910390a45050565b6000610bad82610b17565b610c0e5760405162461bcd60e51b815260206004820152602c60248201527f4552433732313a206f70657261746f7220717565727920666f72206e6f6e657860448201526b34b9ba32b73a103a37b5b2b760a11b6064820152608401610417565b6000610c1983610741565b9050806001600160a01b0316846001600160a01b03161480610c545750836001600160a01b0316610c49846103af565b6001600160a01b0316145b80610c8457506001600160a01b0380821660009081526005602090815260408083209388168352929052205460ff165b949350505050565b826001600160a01b0316610c9f82610741565b6001600160a01b031614610d075760405162461bcd60e51b815260206004820152602960248201527f4552433732313a207472616e73666572206f6620746f6b656e2074686174206960448201526839903737ba1037bbb760b91b6064820152608401610417565b6001600160a01b038216610d695760405162461bcd60e51b8152602060048201526024808201527f4552433732313a207472616e7366657220746f20746865207a65726f206164646044820152637265737360e01b6064820152608401610417565b610d748383836110d3565b610d7f600082610b34565b6001600160a01b0383166000908152600360205260408120805460019290610da8908490611cc1565b90915550506001600160a01b0382166000908152600360205260408120805460019290610dd6908490611cd4565b909155505060008181526002602052604080822080546001600160a01b0319166001600160a01b0386811691821790925591518493918716917fddf252ad1be2c89b69c2b068fc378daa952ba7f163c4a11628f55a4df523b3ef91a4505050565b6106ab816110de565b610e4b848484610c8c565b610e578484848461111e565b6109b85760405162461bcd60e51b815260040161041790611ce7565b610e8d82826040518060200160405280600081525061121f565b5050565b610e9a82610b17565b610efd5760405162461bcd60e51b815260206004820152602e60248201527f45524337323155524953746f726167653a2055524920736574206f66206e6f6e60448201526d32bc34b9ba32b73a103a37b5b2b760911b6064820152608401610417565b600082815260076020526040902061054c8282611d87565b6060610f2082610b17565b610f865760405162461bcd60e51b815260206004820152603160248201527f45524337323155524953746f726167653a2055524920717565727920666f72206044820152703737b732bc34b9ba32b73a103a37b5b2b760791b6064820152608401610417565b60008281526007602052604081208054610f9f90611bd5565b80601f0160208091040260200160405190810160405280929190818152602001828054610fcb90611bd5565b80156110185780601f10610fed57610100808354040283529160200191611018565b820191906000526020600020905b815481529060010190602001808311610ffb57829003601f168201915b50505050509050600061103660408051602081019091526000815290565b90508051600003611048575092915050565b81511561107a578082604051602001611062929190611e47565b60405160208183030381529060405292505050919050565b610c8484611252565b60006001600160e01b031982166380ac58cd60e01b14806110b457506001600160e01b03198216635b5e139f60e01b145b8061031757506301ffc9a760e01b6001600160e01b0319831614610317565b61054c83838361132a565b6110e7816113e2565b6000818152600760205260409020805461110090611bd5565b1590506106ab5760008181526007602052604081206106ab91611859565b60006001600160a01b0384163b1561121457604051630a85bd0160e11b81526001600160a01b0385169063150b7a0290611162903390899088908890600401611e76565b6020604051808303816000875af192505050801561119d575060408051601f3d908101601f1916820190925261119a91810190611eb3565b60015b6111fa573d8080156111cb576040519150601f19603f3d011682016040523d82523d6000602084013e6111d0565b606091505b5080516000036111f25760405162461bcd60e51b815260040161041790611ce7565b805181602001fd5b6001600160e01b031916630a85bd0160e11b149050610c84565b506001949350505050565b6112298383611489565b611236600084848461111e565b61054c5760405162461bcd60e51b815260040161041790611ce7565b606061125d82610b17565b6112c15760405162461bcd60e51b815260206004820152602f60248201527f4552433732314d657461646174613a2055524920717565727920666f72206e6f60448201526e3732bc34b9ba32b73a103a37b5b2b760891b6064820152608401610417565b60006112d860408051602081019091526000815290565b905060008151116112f85760405180602001604052806000815250611323565b80611302846115c8565b604051602001611313929190611e47565b6040516020818303038152906040525b9392505050565b6001600160a01b0383166113855761138081600a80546000838152600b60205260408120829055600182018355919091527fc65a7bb8d6351c1cf70c95a316cc6a92839c986682d98bc35f958f4883f9d2a80155565b6113a8565b816001600160a01b0316836001600160a01b0316146113a8576113a883826116c9565b6001600160a01b0382166113bf5761054c81611766565b826001600160a01b0316826001600160a01b03161461054c5761054c8282611815565b60006113ed82610741565b90506113fb816000846110d3565b611406600083610b34565b6001600160a01b038116600090815260036020526040812080546001929061142f908490611cc1565b909155505060008281526002602052604080822080546001600160a01b0319169055518391906001600160a01b038416907fddf252ad1be2c89b69c2b068fc378daa952ba7f163c4a11628f55a4df523b3ef908390a45050565b6001600160a01b0382166114df5760405162461bcd60e51b815260206004820181905260248201527f4552433732313a206d696e7420746f20746865207a65726f20616464726573736044820152606401610417565b6114e881610b17565b156115355760405162461bcd60e51b815260206004820152601c60248201527f4552433732313a20746f6b656e20616c7265616479206d696e746564000000006044820152606401610417565b611541600083836110d3565b6001600160a01b038216600090815260036020526040812080546001929061156a908490611cd4565b909155505060008181526002602052604080822080546001600160a01b0319166001600160a01b03861690811790915590518392907fddf252ad1be2c89b69c2b068fc378daa952ba7f163c4a11628f55a4df523b3ef908290a45050565b6060816000036115ef5750506040805180820190915260018152600360fc1b602082015290565b8160005b8115611619578061160381611ed0565b91506116129050600a83611eff565b91506115f3565b60008167ffffffffffffffff81111561163457611634611a2f565b6040519080825280601f01601f19166020018201604052801561165e576020820181803683370190505b5090505b8415610c8457611673600183611cc1565b9150611680600a86611f13565b61168b906030611cd4565b60f81b8183815181106116a0576116a0611c60565b60200101906001600160f81b031916908160001a9053506116c2600a86611eff565b9450611662565b600060016116d6846107b8565b6116e09190611cc1565b600083815260096020526040902054909150808214611733576001600160a01b03841660009081526008602090815260408083208584528252808320548484528184208190558352600990915290208190555b5060009182526009602090815260408084208490556001600160a01b039094168352600881528383209183525290812055565b600a5460009061177890600190611cc1565b6000838152600b6020526040812054600a80549394509092849081106117a0576117a0611c60565b9060005260206000200154905080600a83815481106117c1576117c1611c60565b6000918252602080832090910192909255828152600b9091526040808220849055858252812055600a8054806117f9576117f9611f27565b6001900381819060005260206000200160009055905550505050565b6000611820836107b8565b6001600160a01b039093166000908152600860209081526040808320868452825280832085905593825260099052919091209190915550565b50805461186590611bd5565b6000825580601f10611875575050565b601f0160209004906000526020600020908101906106ab91905b808211156118a3576000815560010161188f565b5090565b6001600160e01b0319811681146106ab57600080fd5b6000602082840312156118cf57600080fd5b8135611323816118a7565b60005b838110156118f55781810151838201526020016118dd565b50506000910152565b600081518084526119168160208601602086016118da565b601f01601f19169290920160200192915050565b60208152600061132360208301846118fe565b60006020828403121561194f57600080fd5b5035919050565b80356001600160a01b038116811461196d57600080fd5b919050565b6000806040838503121561198557600080fd5b61198e83611956565b946020939093013593505050565b6000806000606084860312156119b157600080fd5b6119ba84611956565b92506119c860208501611956565b9150604084013590509250925092565b6000602082840312156119ea57600080fd5b61132382611956565b60008060408385031215611a0657600080fd5b611a0f83611956565b915060208301358015158114611a2457600080fd5b809150509250929050565b634e487b7160e01b600052604160045260246000fd5b600067ffffffffffffffff80841115611a6057611a60611a2f565b604051601f8501601f19908116603f01168101908282118183101715611a8857611a88611a2f565b81604052809350858152868686011115611aa157600080fd5b858560208301376000602087830101525050509392505050565b60008060008060808587031215611ad157600080fd5b611ada85611956565b9350611ae860208601611956565b925060408501359150606085013567ffffffffffffffff811115611b0b57600080fd5b8501601f81018713611b1c57600080fd5b611b2b87823560208401611a45565b91505092959194509250565b600080600060608486031215611b4c57600080fd5b611b5584611956565b9250602084013567ffffffffffffffff811115611b7157600080fd5b8401601f81018613611b8257600080fd5b611b9186823560208401611a45565b925050604084013590509250925092565b60008060408385031215611bb557600080fd5b611bbe83611956565b9150611bcc60208401611956565b90509250929050565b600181811c90821680611be957607f821691505b602082108103611c0957634e487b7160e01b600052602260045260246000fd5b50919050565b60208082526031908201527f4552433732313a207472616e736665722063616c6c6572206973206e6f74206f6040820152701ddb995c881b9bdc88185c1c1c9bdd9959607a1b606082015260800190565b634e487b7160e01b600052603260045260246000fd5b6020808252818101527f4f776e61626c653a2063616c6c6572206973206e6f7420746865206f776e6572604082015260600190565b634e487b7160e01b600052601160045260246000fd5b8181038181111561031757610317611cab565b8082018082111561031757610317611cab565b60208082526032908201527f4552433732313a207472616e7366657220746f206e6f6e20455243373231526560408201527131b2b4bb32b91034b6b83632b6b2b73a32b960711b606082015260800190565b601f82111561054c57600081815260208120601f850160051c81016020861015611d605750805b601f850160051c820191505b81811015611d7f57828155600101611d6c565b505050505050565b815167ffffffffffffffff811115611da157611da1611a2f565b611db581611daf8454611bd5565b84611d39565b602080601f831160018114611dea5760008415611dd25750858301515b600019600386901b1c1916600185901b178555611d7f565b600085815260208120601f198616915b82811015611e1957888601518255948401946001909101908401611dfa565b5085821015611e375787850151600019600388901b60f8161c191681555b5050505050600190811b01905550565b60008351611e598184602088016118da565b835190830190611e6d8183602088016118da565b01949350505050565b6001600160a01b0385811682528416602082015260408101839052608060608201819052600090611ea9908301846118fe565b9695505050505050565b600060208284031215611ec557600080fd5b8151611323816118a7565b600060018201611ee257611ee2611cab565b5060010190565b634e487b7160e01b600052601260045260246000fd5b600082611f0e57611f0e611ee9565b500490565b600082611f2257611f22611ee9565b500690565b634e487b7160e01b600052603160045260246000fdfea2646970667358221220eb09e322b2ae4e5b0020332ab8039e3f9cf6a8917336788d821bad0744b8784c64736f6c63430008140033",
  "linkReferences": {},
  "deployedLinkReferences": {}
}